{
	"14-exam-prep/contracts/AuctionHouse.sol": {
		"AuctionHouse": {
			"abi": [
				{
					"inputs": [],
					"stateMutability": "nonpayable",
					"type": "constructor"
				},
				{
					"inputs": [],
					"name": "AlreadyClaimed",
					"type": "error"
				},
				{
					"inputs": [],
					"name": "AuctionUnfinished",
					"type": "error"
				},
				{
					"inputs": [],
					"name": "CannotBeZero",
					"type": "error"
				},
				{
					"inputs": [],
					"name": "HighestBidder",
					"type": "error"
				},
				{
					"inputs": [],
					"name": "InsufficientBid",
					"type": "error"
				},
				{
					"inputs": [
						{
							"internalType": "string",
							"name": "argument",
							"type": "string"
						}
					],
					"name": "InvalidEndTime",
					"type": "error"
				},
				{
					"inputs": [],
					"name": "InvalidStartTime",
					"type": "error"
				},
				{
					"inputs": [],
					"name": "NoWinner",
					"type": "error"
				},
				{
					"inputs": [],
					"name": "NotClaimer",
					"type": "error"
				},
				{
					"inputs": [],
					"name": "NotInBidPeriod",
					"type": "error"
				},
				{
					"inputs": [],
					"name": "NotSeller",
					"type": "error"
				},
				{
					"inputs": [],
					"name": "NotValidAuction",
					"type": "error"
				},
				{
					"inputs": [
						{
							"internalType": "address",
							"name": "owner",
							"type": "address"
						}
					],
					"name": "OwnableInvalidOwner",
					"type": "error"
				},
				{
					"inputs": [
						{
							"internalType": "address",
							"name": "account",
							"type": "address"
						}
					],
					"name": "OwnableUnauthorizedAccount",
					"type": "error"
				},
				{
					"anonymous": false,
					"inputs": [
						{
							"indexed": true,
							"internalType": "uint256",
							"name": "auctionId",
							"type": "uint256"
						}
					],
					"name": "AuctionCreated",
					"type": "event"
				},
				{
					"anonymous": false,
					"inputs": [
						{
							"indexed": true,
							"internalType": "uint256",
							"name": "auctionId",
							"type": "uint256"
						},
						{
							"indexed": true,
							"internalType": "address",
							"name": "bidder",
							"type": "address"
						},
						{
							"indexed": false,
							"internalType": "uint256",
							"name": "bid",
							"type": "uint256"
						}
					],
					"name": "BidClaimed",
					"type": "event"
				},
				{
					"anonymous": false,
					"inputs": [
						{
							"indexed": true,
							"internalType": "uint256",
							"name": "auctionId",
							"type": "uint256"
						},
						{
							"indexed": true,
							"internalType": "address",
							"name": "bidder",
							"type": "address"
						},
						{
							"indexed": false,
							"internalType": "uint256",
							"name": "bid",
							"type": "uint256"
						}
					],
					"name": "NewBid",
					"type": "event"
				},
				{
					"anonymous": false,
					"inputs": [
						{
							"indexed": true,
							"internalType": "uint256",
							"name": "auctionId",
							"type": "uint256"
						}
					],
					"name": "NftClaimed",
					"type": "event"
				},
				{
					"anonymous": false,
					"inputs": [
						{
							"indexed": true,
							"internalType": "address",
							"name": "previousOwner",
							"type": "address"
						},
						{
							"indexed": true,
							"internalType": "address",
							"name": "newOwner",
							"type": "address"
						}
					],
					"name": "OwnershipTransferred",
					"type": "event"
				},
				{
					"anonymous": false,
					"inputs": [
						{
							"indexed": true,
							"internalType": "uint256",
							"name": "auctionId",
							"type": "uint256"
						},
						{
							"indexed": false,
							"internalType": "uint256",
							"name": "reward",
							"type": "uint256"
						},
						{
							"indexed": false,
							"internalType": "uint256",
							"name": "fee",
							"type": "uint256"
						}
					],
					"name": "RewardClaimed",
					"type": "event"
				},
				{
					"inputs": [
						{
							"internalType": "uint256",
							"name": "",
							"type": "uint256"
						}
					],
					"name": "auctions",
					"outputs": [
						{
							"internalType": "uint256",
							"name": "tokenId",
							"type": "uint256"
						},
						{
							"internalType": "address",
							"name": "nftAddress",
							"type": "address"
						},
						{
							"internalType": "uint256",
							"name": "minPrice",
							"type": "uint256"
						},
						{
							"internalType": "uint256",
							"name": "startTime",
							"type": "uint256"
						},
						{
							"internalType": "uint256",
							"name": "endTime",
							"type": "uint256"
						},
						{
							"internalType": "uint256",
							"name": "minBidIncr",
							"type": "uint256"
						},
						{
							"internalType": "uint256",
							"name": "timeExtensionWindow",
							"type": "uint256"
						},
						{
							"internalType": "uint256",
							"name": "timeExtensionIncr",
							"type": "uint256"
						},
						{
							"internalType": "address",
							"name": "seller",
							"type": "address"
						},
						{
							"internalType": "bool",
							"name": "nftClaimed",
							"type": "bool"
						},
						{
							"internalType": "bool",
							"name": "rewardClaimed",
							"type": "bool"
						}
					],
					"stateMutability": "view",
					"type": "function"
				},
				{
					"inputs": [
						{
							"internalType": "uint256",
							"name": "auctionId",
							"type": "uint256"
						}
					],
					"name": "bid",
					"outputs": [],
					"stateMutability": "payable",
					"type": "function"
				},
				{
					"inputs": [
						{
							"internalType": "uint256",
							"name": "auctionId",
							"type": "uint256"
						},
						{
							"internalType": "address",
							"name": "bidder",
							"type": "address"
						}
					],
					"name": "bids",
					"outputs": [
						{
							"internalType": "uint256",
							"name": "bid",
							"type": "uint256"
						}
					],
					"stateMutability": "view",
					"type": "function"
				},
				{
					"inputs": [
						{
							"internalType": "uint256",
							"name": "auctionId",
							"type": "uint256"
						}
					],
					"name": "claimBid",
					"outputs": [],
					"stateMutability": "nonpayable",
					"type": "function"
				},
				{
					"inputs": [
						{
							"internalType": "uint256",
							"name": "auctionId",
							"type": "uint256"
						}
					],
					"name": "claimNFT",
					"outputs": [],
					"stateMutability": "nonpayable",
					"type": "function"
				},
				{
					"inputs": [
						{
							"internalType": "uint256",
							"name": "auctionId",
							"type": "uint256"
						}
					],
					"name": "claimReward",
					"outputs": [],
					"stateMutability": "nonpayable",
					"type": "function"
				},
				{
					"inputs": [
						{
							"internalType": "uint256",
							"name": "tokenId",
							"type": "uint256"
						},
						{
							"internalType": "address",
							"name": "tokenAddress",
							"type": "address"
						},
						{
							"internalType": "uint256",
							"name": "minPrice",
							"type": "uint256"
						},
						{
							"internalType": "uint256",
							"name": "startTime",
							"type": "uint256"
						},
						{
							"internalType": "uint256",
							"name": "endTime",
							"type": "uint256"
						},
						{
							"internalType": "uint256",
							"name": "minBidIncr",
							"type": "uint256"
						},
						{
							"internalType": "uint256",
							"name": "timeExtensionWindow",
							"type": "uint256"
						},
						{
							"internalType": "uint256",
							"name": "timeExtensionIncr",
							"type": "uint256"
						}
					],
					"name": "createAuction",
					"outputs": [],
					"stateMutability": "nonpayable",
					"type": "function"
				},
				{
					"inputs": [
						{
							"internalType": "uint256",
							"name": "auctionId",
							"type": "uint256"
						}
					],
					"name": "highestBidders",
					"outputs": [
						{
							"internalType": "address",
							"name": "highestBidder",
							"type": "address"
						}
					],
					"stateMutability": "view",
					"type": "function"
				},
				{
					"inputs": [],
					"name": "owner",
					"outputs": [
						{
							"internalType": "address",
							"name": "",
							"type": "address"
						}
					],
					"stateMutability": "view",
					"type": "function"
				},
				{
					"inputs": [],
					"name": "renounceOwnership",
					"outputs": [],
					"stateMutability": "nonpayable",
					"type": "function"
				},
				{
					"inputs": [
						{
							"internalType": "address",
							"name": "newOwner",
							"type": "address"
						}
					],
					"name": "transferOwnership",
					"outputs": [],
					"stateMutability": "nonpayable",
					"type": "function"
				}
			],
			"devdoc": {
				"errors": {
					"OwnableInvalidOwner(address)": [
						{
							"details": "The owner is not a valid owner account. (eg. `address(0)`)"
						}
					],
					"OwnableUnauthorizedAccount(address)": [
						{
							"details": "The caller account is not authorized to perform an operation."
						}
					]
				},
				"kind": "dev",
				"methods": {
					"owner()": {
						"details": "Returns the address of the current owner."
					},
					"renounceOwnership()": {
						"details": "Leaves the contract without owner. It will not be possible to call `onlyOwner` functions. Can only be called by the current owner. NOTE: Renouncing ownership will leave the contract without an owner, thereby disabling any functionality that is only available to the owner."
					},
					"transferOwnership(address)": {
						"details": "Transfers ownership of the contract to a new account (`newOwner`). Can only be called by the current owner."
					}
				},
				"version": 1
			},
			"evm": {
				"assembly": "    /* \"14-exam-prep/contracts/AuctionHouse.sol\":777:6465  contract AuctionHouse is Ownable{... */\n  mstore(0x40, 0x80)\n    /* \"14-exam-prep/contracts/AuctionHouse.sol\":846:852  1 days */\n  0x015180\n    /* \"14-exam-prep/contracts/AuctionHouse.sol\":815:852  uint256 MIN_AUCTION_DURATION = 1 days */\n  0x01\n  sstore\n    /* \"14-exam-prep/contracts/AuctionHouse.sol\":889:896  60 days */\n  0x4f1a00\n    /* \"14-exam-prep/contracts/AuctionHouse.sol\":858:896  uint256 MAX_AUCTION_DURATION = 60 days */\n  0x02\n  sstore\n    /* \"14-exam-prep/contracts/AuctionHouse.sol\":1575:1611  constructor() Ownable(msg.sender) {} */\n  callvalue\n  dup1\n  iszero\n  tag_1\n  jumpi\n  0x00\n  dup1\n  revert\ntag_1:\n  pop\n    /* \"14-exam-prep/contracts/AuctionHouse.sol\":1597:1607  msg.sender */\n  caller\n    /* \"@openzeppelin/contracts/access/Ownable.sol\":1297:1298  0 */\n  0x00\n    /* \"@openzeppelin/contracts/access/Ownable.sol\":1273:1299  initialOwner == address(0) */\n  0xffffffffffffffffffffffffffffffffffffffff\n  and\n    /* \"@openzeppelin/contracts/access/Ownable.sol\":1273:1285  initialOwner */\n  dup2\n    /* \"@openzeppelin/contracts/access/Ownable.sol\":1273:1299  initialOwner == address(0) */\n  0xffffffffffffffffffffffffffffffffffffffff\n  and\n  sub\n    /* \"@openzeppelin/contracts/access/Ownable.sol\":1269:1364  if (initialOwner == address(0)) {... */\n  tag_5\n  jumpi\n    /* \"@openzeppelin/contracts/access/Ownable.sol\":1350:1351  0 */\n  0x00\n    /* \"@openzeppelin/contracts/access/Ownable.sol\":1322:1353  OwnableInvalidOwner(address(0)) */\n  mload(0x40)\n  0x1e4fbdf700000000000000000000000000000000000000000000000000000000\n  dup2\n  mstore\n  0x04\n  add\n  tag_6\n  swap2\n  swap1\n  tag_7\n  jump\t// in\ntag_6:\n  mload(0x40)\n  dup1\n  swap2\n  sub\n  swap1\n  revert\n    /* \"@openzeppelin/contracts/access/Ownable.sol\":1269:1364  if (initialOwner == address(0)) {... */\ntag_5:\n    /* \"@openzeppelin/contracts/access/Ownable.sol\":1373:1405  _transferOwnership(initialOwner) */\n  tag_8\n    /* \"@openzeppelin/contracts/access/Ownable.sol\":1392:1404  initialOwner */\n  dup2\n    /* \"@openzeppelin/contracts/access/Ownable.sol\":1373:1391  _transferOwnership */\n  shl(0x20, tag_9)\n    /* \"@openzeppelin/contracts/access/Ownable.sol\":1373:1405  _transferOwnership(initialOwner) */\n  0x20\n  shr\n  jump\t// in\ntag_8:\n    /* \"@openzeppelin/contracts/access/Ownable.sol\":1225:1412  constructor(address initialOwner) {... */\n  pop\n    /* \"14-exam-prep/contracts/AuctionHouse.sol\":777:6465  contract AuctionHouse is Ownable{... */\n  jump(tag_11)\n    /* \"@openzeppelin/contracts/access/Ownable.sol\":2912:3099  function _transferOwnership(address newOwner) internal virtual {... */\ntag_9:\n    /* \"@openzeppelin/contracts/access/Ownable.sol\":2985:3001  address oldOwner */\n  0x00\n    /* \"@openzeppelin/contracts/access/Ownable.sol\":3004:3010  _owner */\n  dup1\n  0x00\n  swap1\n  sload\n  swap1\n  0x0100\n  exp\n  swap1\n  div\n  0xffffffffffffffffffffffffffffffffffffffff\n  and\n    /* \"@openzeppelin/contracts/access/Ownable.sol\":2985:3010  address oldOwner = _owner */\n  swap1\n  pop\n    /* \"@openzeppelin/contracts/access/Ownable.sol\":3029:3037  newOwner */\n  dup2\n    /* \"@openzeppelin/contracts/access/Ownable.sol\":3020:3026  _owner */\n  0x00\n  dup1\n    /* \"@openzeppelin/contracts/access/Ownable.sol\":3020:3037  _owner = newOwner */\n  0x0100\n  exp\n  dup2\n  sload\n  dup2\n  0xffffffffffffffffffffffffffffffffffffffff\n  mul\n  not\n  and\n  swap1\n  dup4\n  0xffffffffffffffffffffffffffffffffffffffff\n  and\n  mul\n  or\n  swap1\n  sstore\n  pop\n    /* \"@openzeppelin/contracts/access/Ownable.sol\":3083:3091  newOwner */\n  dup2\n    /* \"@openzeppelin/contracts/access/Ownable.sol\":3052:3092  OwnershipTransferred(oldOwner, newOwner) */\n  0xffffffffffffffffffffffffffffffffffffffff\n  and\n    /* \"@openzeppelin/contracts/access/Ownable.sol\":3073:3081  oldOwner */\n  dup2\n    /* \"@openzeppelin/contracts/access/Ownable.sol\":3052:3092  OwnershipTransferred(oldOwner, newOwner) */\n  0xffffffffffffffffffffffffffffffffffffffff\n  and\n  0x8be0079c531659141344cd1fd0a4f28419497f9722a3daafe3b4186f6b6457e0\n  mload(0x40)\n  mload(0x40)\n  dup1\n  swap2\n  sub\n  swap1\n  log3\n    /* \"@openzeppelin/contracts/access/Ownable.sol\":2975:3099  {... */\n  pop\n    /* \"@openzeppelin/contracts/access/Ownable.sol\":2912:3099  function _transferOwnership(address newOwner) internal virtual {... */\n  pop\n  jump\t// out\n    /* \"#utility.yul\":7:133   */\ntag_13:\n    /* \"#utility.yul\":44:51   */\n  0x00\n    /* \"#utility.yul\":84:126   */\n  0xffffffffffffffffffffffffffffffffffffffff\n    /* \"#utility.yul\":77:82   */\n  dup3\n    /* \"#utility.yul\":73:127   */\n  and\n    /* \"#utility.yul\":62:127   */\n  swap1\n  pop\n    /* \"#utility.yul\":7:133   */\n  swap2\n  swap1\n  pop\n  jump\t// out\n    /* \"#utility.yul\":139:235   */\ntag_14:\n    /* \"#utility.yul\":176:183   */\n  0x00\n    /* \"#utility.yul\":205:229   */\n  tag_19\n    /* \"#utility.yul\":223:228   */\n  dup3\n    /* \"#utility.yul\":205:229   */\n  tag_13\n  jump\t// in\ntag_19:\n    /* \"#utility.yul\":194:229   */\n  swap1\n  pop\n    /* \"#utility.yul\":139:235   */\n  swap2\n  swap1\n  pop\n  jump\t// out\n    /* \"#utility.yul\":241:359   */\ntag_15:\n    /* \"#utility.yul\":328:352   */\n  tag_21\n    /* \"#utility.yul\":346:351   */\n  dup2\n    /* \"#utility.yul\":328:352   */\n  tag_14\n  jump\t// in\ntag_21:\n    /* \"#utility.yul\":323:326   */\n  dup3\n    /* \"#utility.yul\":316:353   */\n  mstore\n    /* \"#utility.yul\":241:359   */\n  pop\n  pop\n  jump\t// out\n    /* \"#utility.yul\":365:587   */\ntag_7:\n    /* \"#utility.yul\":458:462   */\n  0x00\n    /* \"#utility.yul\":496:498   */\n  0x20\n    /* \"#utility.yul\":485:494   */\n  dup3\n    /* \"#utility.yul\":481:499   */\n  add\n    /* \"#utility.yul\":473:499   */\n  swap1\n  pop\n    /* \"#utility.yul\":509:580   */\n  tag_23\n    /* \"#utility.yul\":577:578   */\n  0x00\n    /* \"#utility.yul\":566:575   */\n  dup4\n    /* \"#utility.yul\":562:579   */\n  add\n    /* \"#utility.yul\":553:559   */\n  dup5\n    /* \"#utility.yul\":509:580   */\n  tag_15\n  jump\t// in\ntag_23:\n    /* \"#utility.yul\":365:587   */\n  swap3\n  swap2\n  pop\n  pop\n  jump\t// out\n    /* \"14-exam-prep/contracts/AuctionHouse.sol\":777:6465  contract AuctionHouse is Ownable{... */\ntag_11:\n  dataSize(sub_0)\n  dup1\n  dataOffset(sub_0)\n  0x00\n  codecopy\n  0x00\n  return\nstop\n\nsub_0: assembly {\n        /* \"14-exam-prep/contracts/AuctionHouse.sol\":777:6465  contract AuctionHouse is Ownable{... */\n      mstore(0x40, 0x80)\n      jumpi(tag_1, lt(calldatasize, 0x04))\n      shr(0xe0, calldataload(0x00))\n      dup1\n      0x77484aae\n      gt\n      tag_13\n      jumpi\n      dup1\n      0x77484aae\n      eq\n      tag_7\n      jumpi\n      dup1\n      0x8da5cb5b\n      eq\n      tag_8\n      jumpi\n      dup1\n      0x98ecfdac\n      eq\n      tag_9\n      jumpi\n      dup1\n      0xae169a50\n      eq\n      tag_10\n      jumpi\n      dup1\n      0xf2fde38b\n      eq\n      tag_11\n      jumpi\n      dup1\n      0xfe5c873a\n      eq\n      tag_12\n      jumpi\n      jump(tag_1)\n    tag_13:\n      dup1\n      0x21113057\n      eq\n      tag_2\n      jumpi\n      dup1\n      0x3f1ffcec\n      eq\n      tag_3\n      jumpi\n      dup1\n      0x454a2ab3\n      eq\n      tag_4\n      jumpi\n      dup1\n      0x571a26a0\n      eq\n      tag_5\n      jumpi\n      dup1\n      0x715018a6\n      eq\n      tag_6\n      jumpi\n    tag_1:\n      0x00\n      dup1\n      revert\n        /* \"14-exam-prep/contracts/AuctionHouse.sol\":4863:5365  function claimBid(uint256 auctionId) external {... */\n    tag_2:\n      callvalue\n      dup1\n      iszero\n      tag_14\n      jumpi\n      0x00\n      dup1\n      revert\n    tag_14:\n      pop\n      tag_15\n      0x04\n      dup1\n      calldatasize\n      sub\n      dup2\n      add\n      swap1\n      tag_16\n      swap2\n      swap1\n      tag_17\n      jump\t// in\n    tag_16:\n      tag_18\n      jump\t// in\n    tag_15:\n      stop\n        /* \"14-exam-prep/contracts/AuctionHouse.sol\":989:1077  mapping(uint256 auctionId => mapping(address bidder => uint256 bid))... */\n    tag_3:\n      callvalue\n      dup1\n      iszero\n      tag_19\n      jumpi\n      0x00\n      dup1\n      revert\n    tag_19:\n      pop\n      tag_20\n      0x04\n      dup1\n      calldatasize\n      sub\n      dup2\n      add\n      swap1\n      tag_21\n      swap2\n      swap1\n      tag_22\n      jump\t// in\n    tag_21:\n      tag_23\n      jump\t// in\n    tag_20:\n      mload(0x40)\n      tag_24\n      swap2\n      swap1\n      tag_25\n      jump\t// in\n    tag_24:\n      mload(0x40)\n      dup1\n      swap2\n      sub\n      swap1\n      return\n        /* \"14-exam-prep/contracts/AuctionHouse.sol\":2919:4050  function bid(uint256 auctionId) external payable {... */\n    tag_4:\n      tag_26\n      0x04\n      dup1\n      calldatasize\n      sub\n      dup2\n      add\n      swap1\n      tag_27\n      swap2\n      swap1\n      tag_17\n      jump\t// in\n    tag_27:\n      tag_28\n      jump\t// in\n    tag_26:\n      stop\n        /* \"14-exam-prep/contracts/AuctionHouse.sol\":940:983  mapping(uint256 => Auction) public auctions */\n    tag_5:\n      callvalue\n      dup1\n      iszero\n      tag_29\n      jumpi\n      0x00\n      dup1\n      revert\n    tag_29:\n      pop\n      tag_30\n      0x04\n      dup1\n      calldatasize\n      sub\n      dup2\n      add\n      swap1\n      tag_31\n      swap2\n      swap1\n      tag_17\n      jump\t// in\n    tag_31:\n      tag_32\n      jump\t// in\n    tag_30:\n      mload(0x40)\n      tag_33\n      swap12\n      swap11\n      swap10\n      swap9\n      swap8\n      swap7\n      swap6\n      swap5\n      swap4\n      swap3\n      swap2\n      swap1\n      tag_34\n      jump\t// in\n    tag_33:\n      mload(0x40)\n      dup1\n      swap2\n      sub\n      swap1\n      return\n        /* \"@openzeppelin/contracts/access/Ownable.sol\":2293:2394  function renounceOwnership() public virtual onlyOwner {... */\n    tag_6:\n      callvalue\n      dup1\n      iszero\n      tag_35\n      jumpi\n      0x00\n      dup1\n      revert\n    tag_35:\n      pop\n      tag_36\n      tag_37\n      jump\t// in\n    tag_36:\n      stop\n        /* \"14-exam-prep/contracts/AuctionHouse.sol\":1083:1156  mapping(uint256 auctionId => address highestBidder) public highestBidders */\n    tag_7:\n      callvalue\n      dup1\n      iszero\n      tag_38\n      jumpi\n      0x00\n      dup1\n      revert\n    tag_38:\n      pop\n      tag_39\n      0x04\n      dup1\n      calldatasize\n      sub\n      dup2\n      add\n      swap1\n      tag_40\n      swap2\n      swap1\n      tag_17\n      jump\t// in\n    tag_40:\n      tag_41\n      jump\t// in\n    tag_39:\n      mload(0x40)\n      tag_42\n      swap2\n      swap1\n      tag_43\n      jump\t// in\n    tag_42:\n      mload(0x40)\n      dup1\n      swap2\n      sub\n      swap1\n      return\n        /* \"@openzeppelin/contracts/access/Ownable.sol\":1638:1723  function owner() public view virtual returns (address) {... */\n    tag_8:\n      callvalue\n      dup1\n      iszero\n      tag_44\n      jumpi\n      0x00\n      dup1\n      revert\n    tag_44:\n      pop\n      tag_45\n      tag_46\n      jump\t// in\n    tag_45:\n      mload(0x40)\n      tag_47\n      swap2\n      swap1\n      tag_43\n      jump\t// in\n    tag_47:\n      mload(0x40)\n      dup1\n      swap2\n      sub\n      swap1\n      return\n        /* \"14-exam-prep/contracts/AuctionHouse.sol\":1617:2913  function createAuction(... */\n    tag_9:\n      callvalue\n      dup1\n      iszero\n      tag_48\n      jumpi\n      0x00\n      dup1\n      revert\n    tag_48:\n      pop\n      tag_49\n      0x04\n      dup1\n      calldatasize\n      sub\n      dup2\n      add\n      swap1\n      tag_50\n      swap2\n      swap1\n      tag_51\n      jump\t// in\n    tag_50:\n      tag_52\n      jump\t// in\n    tag_49:\n      stop\n        /* \"14-exam-prep/contracts/AuctionHouse.sol\":5371:6103  function claimReward(... */\n    tag_10:\n      callvalue\n      dup1\n      iszero\n      tag_53\n      jumpi\n      0x00\n      dup1\n      revert\n    tag_53:\n      pop\n      tag_54\n      0x04\n      dup1\n      calldatasize\n      sub\n      dup2\n      add\n      swap1\n      tag_55\n      swap2\n      swap1\n      tag_17\n      jump\t// in\n    tag_55:\n      tag_56\n      jump\t// in\n    tag_54:\n      stop\n        /* \"@openzeppelin/contracts/access/Ownable.sol\":2543:2758  function transferOwnership(address newOwner) public virtual onlyOwner {... */\n    tag_11:\n      callvalue\n      dup1\n      iszero\n      tag_57\n      jumpi\n      0x00\n      dup1\n      revert\n    tag_57:\n      pop\n      tag_58\n      0x04\n      dup1\n      calldatasize\n      sub\n      dup2\n      add\n      swap1\n      tag_59\n      swap2\n      swap1\n      tag_60\n      jump\t// in\n    tag_59:\n      tag_61\n      jump\t// in\n    tag_58:\n      stop\n        /* \"14-exam-prep/contracts/AuctionHouse.sol\":4056:4857  function claimNFT(uint256 auctionId) external auctionFinished(auctionId) {... */\n    tag_12:\n      callvalue\n      dup1\n      iszero\n      tag_62\n      jumpi\n      0x00\n      dup1\n      revert\n    tag_62:\n      pop\n      tag_63\n      0x04\n      dup1\n      calldatasize\n      sub\n      dup2\n      add\n      swap1\n      tag_64\n      swap2\n      swap1\n      tag_17\n      jump\t// in\n    tag_64:\n      tag_65\n      jump\t// in\n    tag_63:\n      stop\n        /* \"14-exam-prep/contracts/AuctionHouse.sol\":4863:5365  function claimBid(uint256 auctionId) external {... */\n    tag_18:\n        /* \"14-exam-prep/contracts/AuctionHouse.sol\":4993:5008  uint256 userBid */\n      0x00\n        /* \"14-exam-prep/contracts/AuctionHouse.sol\":5011:5015  bids */\n      0x05\n        /* \"14-exam-prep/contracts/AuctionHouse.sol\":5011:5026  bids[auctionId] */\n      0x00\n        /* \"14-exam-prep/contracts/AuctionHouse.sol\":5016:5025  auctionId */\n      dup4\n        /* \"14-exam-prep/contracts/AuctionHouse.sol\":5011:5026  bids[auctionId] */\n      dup2\n      mstore\n      0x20\n      add\n      swap1\n      dup2\n      mstore\n      0x20\n      add\n      0x00\n      keccak256\n        /* \"14-exam-prep/contracts/AuctionHouse.sol\":5011:5038  bids[auctionId][msg.sender] */\n      0x00\n        /* \"14-exam-prep/contracts/AuctionHouse.sol\":5027:5037  msg.sender */\n      caller\n        /* \"14-exam-prep/contracts/AuctionHouse.sol\":5011:5038  bids[auctionId][msg.sender] */\n      0xffffffffffffffffffffffffffffffffffffffff\n      and\n      0xffffffffffffffffffffffffffffffffffffffff\n      and\n      dup2\n      mstore\n      0x20\n      add\n      swap1\n      dup2\n      mstore\n      0x20\n      add\n      0x00\n      keccak256\n      sload\n        /* \"14-exam-prep/contracts/AuctionHouse.sol\":4993:5038  uint256 userBid = bids[auctionId][msg.sender] */\n      swap1\n      pop\n        /* \"14-exam-prep/contracts/AuctionHouse.sol\":5082:5092  msg.sender */\n      caller\n        /* \"14-exam-prep/contracts/AuctionHouse.sol\":5053:5092  highestBidders[auctionId] == msg.sender */\n      0xffffffffffffffffffffffffffffffffffffffff\n      and\n        /* \"14-exam-prep/contracts/AuctionHouse.sol\":5053:5067  highestBidders */\n      0x06\n        /* \"14-exam-prep/contracts/AuctionHouse.sol\":5053:5078  highestBidders[auctionId] */\n      0x00\n        /* \"14-exam-prep/contracts/AuctionHouse.sol\":5068:5077  auctionId */\n      dup5\n        /* \"14-exam-prep/contracts/AuctionHouse.sol\":5053:5078  highestBidders[auctionId] */\n      dup2\n      mstore\n      0x20\n      add\n      swap1\n      dup2\n      mstore\n      0x20\n      add\n      0x00\n      keccak256\n      0x00\n      swap1\n      sload\n      swap1\n      0x0100\n      exp\n      swap1\n      div\n      0xffffffffffffffffffffffffffffffffffffffff\n      and\n        /* \"14-exam-prep/contracts/AuctionHouse.sol\":5053:5092  highestBidders[auctionId] == msg.sender */\n      0xffffffffffffffffffffffffffffffffffffffff\n      and\n      sub\n        /* \"14-exam-prep/contracts/AuctionHouse.sol\":5049:5141  if (highestBidders[auctionId] == msg.sender) {... */\n      tag_67\n      jumpi\n        /* \"14-exam-prep/contracts/AuctionHouse.sol\":5115:5130  HighestBidder() */\n      mload(0x40)\n      0x996657af00000000000000000000000000000000000000000000000000000000\n      dup2\n      mstore\n      0x04\n      add\n      mload(0x40)\n      dup1\n      swap2\n      sub\n      swap1\n      revert\n        /* \"14-exam-prep/contracts/AuctionHouse.sol\":5049:5141  if (highestBidders[auctionId] == msg.sender) {... */\n    tag_67:\n        /* \"14-exam-prep/contracts/AuctionHouse.sol\":5186:5187  0 */\n      0x00\n        /* \"14-exam-prep/contracts/AuctionHouse.sol\":5155:5159  bids */\n      0x05\n        /* \"14-exam-prep/contracts/AuctionHouse.sol\":5155:5170  bids[auctionId] */\n      0x00\n        /* \"14-exam-prep/contracts/AuctionHouse.sol\":5160:5169  auctionId */\n      dup5\n        /* \"14-exam-prep/contracts/AuctionHouse.sol\":5155:5170  bids[auctionId] */\n      dup2\n      mstore\n      0x20\n      add\n      swap1\n      dup2\n      mstore\n      0x20\n      add\n      0x00\n      keccak256\n        /* \"14-exam-prep/contracts/AuctionHouse.sol\":5155:5182  bids[auctionId][msg.sender] */\n      0x00\n        /* \"14-exam-prep/contracts/AuctionHouse.sol\":5171:5181  msg.sender */\n      caller\n        /* \"14-exam-prep/contracts/AuctionHouse.sol\":5155:5182  bids[auctionId][msg.sender] */\n      0xffffffffffffffffffffffffffffffffffffffff\n      and\n      0xffffffffffffffffffffffffffffffffffffffff\n      and\n      dup2\n      mstore\n      0x20\n      add\n      swap1\n      dup2\n      mstore\n      0x20\n      add\n      0x00\n      keccak256\n      sload\n        /* \"14-exam-prep/contracts/AuctionHouse.sol\":5155:5187  bids[auctionId][msg.sender] != 0 */\n      eq\n        /* \"14-exam-prep/contracts/AuctionHouse.sol\":5151:5301  if (bids[auctionId][msg.sender] != 0) {... */\n      tag_68\n      jumpi\n        /* \"14-exam-prep/contracts/AuctionHouse.sol\":5233:5234  0 */\n      0x00\n        /* \"14-exam-prep/contracts/AuctionHouse.sol\":5203:5207  bids */\n      0x05\n        /* \"14-exam-prep/contracts/AuctionHouse.sol\":5203:5218  bids[auctionId] */\n      0x00\n        /* \"14-exam-prep/contracts/AuctionHouse.sol\":5208:5217  auctionId */\n      dup5\n        /* \"14-exam-prep/contracts/AuctionHouse.sol\":5203:5218  bids[auctionId] */\n      dup2\n      mstore\n      0x20\n      add\n      swap1\n      dup2\n      mstore\n      0x20\n      add\n      0x00\n      keccak256\n        /* \"14-exam-prep/contracts/AuctionHouse.sol\":5203:5230  bids[auctionId][msg.sender] */\n      0x00\n        /* \"14-exam-prep/contracts/AuctionHouse.sol\":5219:5229  msg.sender */\n      caller\n        /* \"14-exam-prep/contracts/AuctionHouse.sol\":5203:5230  bids[auctionId][msg.sender] */\n      0xffffffffffffffffffffffffffffffffffffffff\n      and\n      0xffffffffffffffffffffffffffffffffffffffff\n      and\n      dup2\n      mstore\n      0x20\n      add\n      swap1\n      dup2\n      mstore\n      0x20\n      add\n      0x00\n      keccak256\n        /* \"14-exam-prep/contracts/AuctionHouse.sol\":5203:5234  bids[auctionId][msg.sender] = 0 */\n      dup2\n      swap1\n      sstore\n      pop\n        /* \"14-exam-prep/contracts/AuctionHouse.sol\":5248:5290  _transferETH(payable(msg.sender), userBid) */\n      tag_69\n        /* \"14-exam-prep/contracts/AuctionHouse.sol\":5269:5279  msg.sender */\n      caller\n        /* \"14-exam-prep/contracts/AuctionHouse.sol\":5282:5289  userBid */\n      dup3\n        /* \"14-exam-prep/contracts/AuctionHouse.sol\":5248:5260  _transferETH */\n      tag_70\n        /* \"14-exam-prep/contracts/AuctionHouse.sol\":5248:5290  _transferETH(payable(msg.sender), userBid) */\n      jump\t// in\n    tag_69:\n        /* \"14-exam-prep/contracts/AuctionHouse.sol\":5151:5301  if (bids[auctionId][msg.sender] != 0) {... */\n    tag_68:\n        /* \"14-exam-prep/contracts/AuctionHouse.sol\":5338:5348  msg.sender */\n      caller\n        /* \"14-exam-prep/contracts/AuctionHouse.sol\":5316:5358  BidClaimed(auctionId, msg.sender, userBid) */\n      0xffffffffffffffffffffffffffffffffffffffff\n      and\n        /* \"14-exam-prep/contracts/AuctionHouse.sol\":5327:5336  auctionId */\n      dup3\n        /* \"14-exam-prep/contracts/AuctionHouse.sol\":5316:5358  BidClaimed(auctionId, msg.sender, userBid) */\n      0xe68daa9f0be9a647eb4b9d00ba8932ad8171b86ec8cd767d14fd2ae946af3d21\n        /* \"14-exam-prep/contracts/AuctionHouse.sol\":5350:5357  userBid */\n      dup4\n        /* \"14-exam-prep/contracts/AuctionHouse.sol\":5316:5358  BidClaimed(auctionId, msg.sender, userBid) */\n      mload(0x40)\n      tag_71\n      swap2\n      swap1\n      tag_25\n      jump\t// in\n    tag_71:\n      mload(0x40)\n      dup1\n      swap2\n      sub\n      swap1\n      log3\n        /* \"14-exam-prep/contracts/AuctionHouse.sol\":4909:5365  {... */\n      pop\n        /* \"14-exam-prep/contracts/AuctionHouse.sol\":4863:5365  function claimBid(uint256 auctionId) external {... */\n      pop\n      jump\t// out\n        /* \"14-exam-prep/contracts/AuctionHouse.sol\":989:1077  mapping(uint256 auctionId => mapping(address bidder => uint256 bid))... */\n    tag_23:\n      mstore(0x20, 0x05)\n      dup2\n      0x00\n      mstore\n      mstore(0x20, keccak256(0x00, 0x40))\n      dup1\n      0x00\n      mstore\n      keccak256(0x00, 0x40)\n      0x00\n      swap2\n      pop\n      swap2\n      pop\n      pop\n      sload\n      dup2\n      jump\t// out\n        /* \"14-exam-prep/contracts/AuctionHouse.sol\":2919:4050  function bid(uint256 auctionId) external payable {... */\n    tag_28:\n        /* \"14-exam-prep/contracts/AuctionHouse.sol\":2978:3001  Auction storage auction */\n      0x00\n        /* \"14-exam-prep/contracts/AuctionHouse.sol\":3004:3012  auctions */\n      0x04\n        /* \"14-exam-prep/contracts/AuctionHouse.sol\":3004:3023  auctions[auctionId] */\n      0x00\n        /* \"14-exam-prep/contracts/AuctionHouse.sol\":3013:3022  auctionId */\n      dup4\n        /* \"14-exam-prep/contracts/AuctionHouse.sol\":3004:3023  auctions[auctionId] */\n      dup2\n      mstore\n      0x20\n      add\n      swap1\n      dup2\n      mstore\n      0x20\n      add\n      0x00\n      keccak256\n        /* \"14-exam-prep/contracts/AuctionHouse.sol\":2978:3023  Auction storage auction = auctions[auctionId] */\n      swap1\n      pop\n        /* \"14-exam-prep/contracts/AuctionHouse.sol\":3101:3102  0 */\n      0x00\n        /* \"14-exam-prep/contracts/AuctionHouse.sol\":3071:3103  auction.nftAddress == address(0) */\n      0xffffffffffffffffffffffffffffffffffffffff\n      and\n        /* \"14-exam-prep/contracts/AuctionHouse.sol\":3071:3078  auction */\n      dup2\n        /* \"14-exam-prep/contracts/AuctionHouse.sol\":3071:3089  auction.nftAddress */\n      0x01\n      add\n      0x00\n      swap1\n      sload\n      swap1\n      0x0100\n      exp\n      swap1\n      div\n      0xffffffffffffffffffffffffffffffffffffffff\n      and\n        /* \"14-exam-prep/contracts/AuctionHouse.sol\":3071:3103  auction.nftAddress == address(0) */\n      0xffffffffffffffffffffffffffffffffffffffff\n      and\n      sub\n        /* \"14-exam-prep/contracts/AuctionHouse.sol\":3067:3154  if (auction.nftAddress == address(0)) {... */\n      tag_73\n      jumpi\n        /* \"14-exam-prep/contracts/AuctionHouse.sol\":3126:3143  NotValidAuction() */\n      mload(0x40)\n      0x8de42eab00000000000000000000000000000000000000000000000000000000\n      dup2\n      mstore\n      0x04\n      add\n      mload(0x40)\n      dup1\n      swap2\n      sub\n      swap1\n      revert\n        /* \"14-exam-prep/contracts/AuctionHouse.sol\":3067:3154  if (auction.nftAddress == address(0)) {... */\n    tag_73:\n        /* \"14-exam-prep/contracts/AuctionHouse.sol\":3199:3206  auction */\n      dup1\n        /* \"14-exam-prep/contracts/AuctionHouse.sol\":3199:3216  auction.startTime */\n      0x03\n      add\n      sload\n        /* \"14-exam-prep/contracts/AuctionHouse.sol\":3181:3196  block.timestamp */\n      timestamp\n        /* \"14-exam-prep/contracts/AuctionHouse.sol\":3181:3216  block.timestamp < auction.startTime */\n      lt\n        /* \"14-exam-prep/contracts/AuctionHouse.sol\":3181:3265  block.timestamp < auction.startTime ||... */\n      dup1\n      tag_74\n      jumpi\n      pop\n        /* \"14-exam-prep/contracts/AuctionHouse.sol\":3250:3257  auction */\n      dup1\n        /* \"14-exam-prep/contracts/AuctionHouse.sol\":3250:3265  auction.endTime */\n      0x04\n      add\n      sload\n        /* \"14-exam-prep/contracts/AuctionHouse.sol\":3232:3247  block.timestamp */\n      timestamp\n        /* \"14-exam-prep/contracts/AuctionHouse.sol\":3232:3265  block.timestamp > auction.endTime */\n      gt\n        /* \"14-exam-prep/contracts/AuctionHouse.sol\":3181:3265  block.timestamp < auction.startTime ||... */\n    tag_74:\n        /* \"14-exam-prep/contracts/AuctionHouse.sol\":3164:3324  if (... */\n      iszero\n      tag_75\n      jumpi\n        /* \"14-exam-prep/contracts/AuctionHouse.sol\":3297:3313  NotInBidPeriod() */\n      mload(0x40)\n      0x7bcb4fdf00000000000000000000000000000000000000000000000000000000\n      dup2\n      mstore\n      0x04\n      add\n      mload(0x40)\n      dup1\n      swap2\n      sub\n      swap1\n      revert\n        /* \"14-exam-prep/contracts/AuctionHouse.sol\":3164:3324  if (... */\n    tag_75:\n        /* \"14-exam-prep/contracts/AuctionHouse.sol\":3369:3383  uint256 newBid */\n      0x00\n        /* \"14-exam-prep/contracts/AuctionHouse.sol\":3416:3425  msg.value */\n      callvalue\n        /* \"14-exam-prep/contracts/AuctionHouse.sol\":3386:3390  bids */\n      0x05\n        /* \"14-exam-prep/contracts/AuctionHouse.sol\":3386:3401  bids[auctionId] */\n      0x00\n        /* \"14-exam-prep/contracts/AuctionHouse.sol\":3391:3400  auctionId */\n      dup6\n        /* \"14-exam-prep/contracts/AuctionHouse.sol\":3386:3401  bids[auctionId] */\n      dup2\n      mstore\n      0x20\n      add\n      swap1\n      dup2\n      mstore\n      0x20\n      add\n      0x00\n      keccak256\n        /* \"14-exam-prep/contracts/AuctionHouse.sol\":3386:3413  bids[auctionId][msg.sender] */\n      0x00\n        /* \"14-exam-prep/contracts/AuctionHouse.sol\":3402:3412  msg.sender */\n      caller\n        /* \"14-exam-prep/contracts/AuctionHouse.sol\":3386:3413  bids[auctionId][msg.sender] */\n      0xffffffffffffffffffffffffffffffffffffffff\n      and\n      0xffffffffffffffffffffffffffffffffffffffff\n      and\n      dup2\n      mstore\n      0x20\n      add\n      swap1\n      dup2\n      mstore\n      0x20\n      add\n      0x00\n      keccak256\n      sload\n        /* \"14-exam-prep/contracts/AuctionHouse.sol\":3386:3425  bids[auctionId][msg.sender] + msg.value */\n      tag_76\n      swap2\n      swap1\n      tag_77\n      jump\t// in\n    tag_76:\n        /* \"14-exam-prep/contracts/AuctionHouse.sol\":3369:3425  uint256 newBid = bids[auctionId][msg.sender] + msg.value */\n      swap1\n      pop\n        /* \"14-exam-prep/contracts/AuctionHouse.sol\":3461:3468  auction */\n      dup2\n        /* \"14-exam-prep/contracts/AuctionHouse.sol\":3461:3477  auction.minPrice */\n      0x02\n      add\n      sload\n        /* \"14-exam-prep/contracts/AuctionHouse.sol\":3452:3458  newBid */\n      dup2\n        /* \"14-exam-prep/contracts/AuctionHouse.sol\":3452:3477  newBid < auction.minPrice */\n      lt\n        /* \"14-exam-prep/contracts/AuctionHouse.sol\":3452:3642  newBid < auction.minPrice ||... */\n      dup1\n      tag_78\n      jumpi\n      pop\n        /* \"14-exam-prep/contracts/AuctionHouse.sol\":3531:3532  0 */\n      0x00\n        /* \"14-exam-prep/contracts/AuctionHouse.sol\":3494:3533  highestBidders[auctionId] != address(0) */\n      0xffffffffffffffffffffffffffffffffffffffff\n      and\n        /* \"14-exam-prep/contracts/AuctionHouse.sol\":3494:3508  highestBidders */\n      0x06\n        /* \"14-exam-prep/contracts/AuctionHouse.sol\":3494:3519  highestBidders[auctionId] */\n      0x00\n        /* \"14-exam-prep/contracts/AuctionHouse.sol\":3509:3518  auctionId */\n      dup6\n        /* \"14-exam-prep/contracts/AuctionHouse.sol\":3494:3519  highestBidders[auctionId] */\n      dup2\n      mstore\n      0x20\n      add\n      swap1\n      dup2\n      mstore\n      0x20\n      add\n      0x00\n      keccak256\n      0x00\n      swap1\n      sload\n      swap1\n      0x0100\n      exp\n      swap1\n      div\n      0xffffffffffffffffffffffffffffffffffffffff\n      and\n        /* \"14-exam-prep/contracts/AuctionHouse.sol\":3494:3533  highestBidders[auctionId] != address(0) */\n      0xffffffffffffffffffffffffffffffffffffffff\n      and\n      eq\n      iszero\n        /* \"14-exam-prep/contracts/AuctionHouse.sol\":3494:3641  highestBidders[auctionId] != address(0) &&... */\n      dup1\n      iszero\n      tag_79\n      jumpi\n      pop\n        /* \"14-exam-prep/contracts/AuctionHouse.sol\":3623:3630  auction */\n      dup2\n        /* \"14-exam-prep/contracts/AuctionHouse.sol\":3623:3641  auction.minBidIncr */\n      0x05\n      add\n      sload\n        /* \"14-exam-prep/contracts/AuctionHouse.sol\":3578:3582  bids */\n      0x05\n        /* \"14-exam-prep/contracts/AuctionHouse.sol\":3578:3593  bids[auctionId] */\n      0x00\n        /* \"14-exam-prep/contracts/AuctionHouse.sol\":3583:3592  auctionId */\n      dup6\n        /* \"14-exam-prep/contracts/AuctionHouse.sol\":3578:3593  bids[auctionId] */\n      dup2\n      mstore\n      0x20\n      add\n      swap1\n      dup2\n      mstore\n      0x20\n      add\n      0x00\n      keccak256\n        /* \"14-exam-prep/contracts/AuctionHouse.sol\":3578:3620  bids[auctionId][highestBidders[auctionId]] */\n      0x00\n        /* \"14-exam-prep/contracts/AuctionHouse.sol\":3594:3608  highestBidders */\n      0x06\n        /* \"14-exam-prep/contracts/AuctionHouse.sol\":3594:3619  highestBidders[auctionId] */\n      0x00\n        /* \"14-exam-prep/contracts/AuctionHouse.sol\":3609:3618  auctionId */\n      dup8\n        /* \"14-exam-prep/contracts/AuctionHouse.sol\":3594:3619  highestBidders[auctionId] */\n      dup2\n      mstore\n      0x20\n      add\n      swap1\n      dup2\n      mstore\n      0x20\n      add\n      0x00\n      keccak256\n      0x00\n      swap1\n      sload\n      swap1\n      0x0100\n      exp\n      swap1\n      div\n      0xffffffffffffffffffffffffffffffffffffffff\n      and\n        /* \"14-exam-prep/contracts/AuctionHouse.sol\":3578:3620  bids[auctionId][highestBidders[auctionId]] */\n      0xffffffffffffffffffffffffffffffffffffffff\n      and\n      0xffffffffffffffffffffffffffffffffffffffff\n      and\n      dup2\n      mstore\n      0x20\n      add\n      swap1\n      dup2\n      mstore\n      0x20\n      add\n      0x00\n      keccak256\n      sload\n        /* \"14-exam-prep/contracts/AuctionHouse.sol\":3578:3641  bids[auctionId][highestBidders[auctionId]] + auction.minBidIncr */\n      tag_80\n      swap2\n      swap1\n      tag_77\n      jump\t// in\n    tag_80:\n        /* \"14-exam-prep/contracts/AuctionHouse.sol\":3553:3559  newBid */\n      dup2\n        /* \"14-exam-prep/contracts/AuctionHouse.sol\":3553:3641  newBid <... */\n      lt\n        /* \"14-exam-prep/contracts/AuctionHouse.sol\":3494:3641  highestBidders[auctionId] != address(0) &&... */\n    tag_79:\n        /* \"14-exam-prep/contracts/AuctionHouse.sol\":3452:3642  newBid < auction.minPrice ||... */\n    tag_78:\n        /* \"14-exam-prep/contracts/AuctionHouse.sol\":3435:3702  if (... */\n      iszero\n      tag_81\n      jumpi\n        /* \"14-exam-prep/contracts/AuctionHouse.sol\":3674:3691  InsufficientBid() */\n      mload(0x40)\n      0x918678cb00000000000000000000000000000000000000000000000000000000\n      dup2\n      mstore\n      0x04\n      add\n      mload(0x40)\n      dup1\n      swap2\n      sub\n      swap1\n      revert\n        /* \"14-exam-prep/contracts/AuctionHouse.sol\":3435:3702  if (... */\n    tag_81:\n        /* \"14-exam-prep/contracts/AuctionHouse.sol\":3798:3805  auction */\n      dup2\n        /* \"14-exam-prep/contracts/AuctionHouse.sol\":3798:3825  auction.timeExtensionWindow */\n      0x06\n      add\n      sload\n        /* \"14-exam-prep/contracts/AuctionHouse.sol\":3780:3787  auction */\n      dup3\n        /* \"14-exam-prep/contracts/AuctionHouse.sol\":3780:3795  auction.endTime */\n      0x04\n      add\n      sload\n        /* \"14-exam-prep/contracts/AuctionHouse.sol\":3780:3825  auction.endTime - auction.timeExtensionWindow */\n      tag_82\n      swap2\n      swap1\n      tag_83\n      jump\t// in\n    tag_82:\n        /* \"14-exam-prep/contracts/AuctionHouse.sol\":3762:3777  block.timestamp */\n      timestamp\n        /* \"14-exam-prep/contracts/AuctionHouse.sol\":3762:3825  block.timestamp > auction.endTime - auction.timeExtensionWindow */\n      gt\n        /* \"14-exam-prep/contracts/AuctionHouse.sol\":3758:3896  if (block.timestamp > auction.endTime - auction.timeExtensionWindow) {... */\n      iszero\n      tag_84\n      jumpi\n        /* \"14-exam-prep/contracts/AuctionHouse.sol\":3860:3867  auction */\n      dup2\n        /* \"14-exam-prep/contracts/AuctionHouse.sol\":3860:3885  auction.timeExtensionIncr */\n      0x07\n      add\n      sload\n        /* \"14-exam-prep/contracts/AuctionHouse.sol\":3841:3848  auction */\n      dup3\n        /* \"14-exam-prep/contracts/AuctionHouse.sol\":3841:3856  auction.endTime */\n      0x04\n      add\n      0x00\n        /* \"14-exam-prep/contracts/AuctionHouse.sol\":3841:3885  auction.endTime += auction.timeExtensionIncr */\n      dup3\n      dup3\n      sload\n      tag_85\n      swap2\n      swap1\n      tag_77\n      jump\t// in\n    tag_85:\n      swap3\n      pop\n      pop\n      dup2\n      swap1\n      sstore\n      pop\n        /* \"14-exam-prep/contracts/AuctionHouse.sol\":3758:3896  if (block.timestamp > auction.endTime - auction.timeExtensionWindow) {... */\n    tag_84:\n        /* \"14-exam-prep/contracts/AuctionHouse.sol\":3936:3942  newBid */\n      dup1\n        /* \"14-exam-prep/contracts/AuctionHouse.sol\":3906:3910  bids */\n      0x05\n        /* \"14-exam-prep/contracts/AuctionHouse.sol\":3906:3921  bids[auctionId] */\n      0x00\n        /* \"14-exam-prep/contracts/AuctionHouse.sol\":3911:3920  auctionId */\n      dup6\n        /* \"14-exam-prep/contracts/AuctionHouse.sol\":3906:3921  bids[auctionId] */\n      dup2\n      mstore\n      0x20\n      add\n      swap1\n      dup2\n      mstore\n      0x20\n      add\n      0x00\n      keccak256\n        /* \"14-exam-prep/contracts/AuctionHouse.sol\":3906:3933  bids[auctionId][msg.sender] */\n      0x00\n        /* \"14-exam-prep/contracts/AuctionHouse.sol\":3922:3932  msg.sender */\n      caller\n        /* \"14-exam-prep/contracts/AuctionHouse.sol\":3906:3933  bids[auctionId][msg.sender] */\n      0xffffffffffffffffffffffffffffffffffffffff\n      and\n      0xffffffffffffffffffffffffffffffffffffffff\n      and\n      dup2\n      mstore\n      0x20\n      add\n      swap1\n      dup2\n      mstore\n      0x20\n      add\n      0x00\n      keccak256\n        /* \"14-exam-prep/contracts/AuctionHouse.sol\":3906:3942  bids[auctionId][msg.sender] = newBid */\n      dup2\n      swap1\n      sstore\n      pop\n        /* \"14-exam-prep/contracts/AuctionHouse.sol\":3980:3990  msg.sender */\n      caller\n        /* \"14-exam-prep/contracts/AuctionHouse.sol\":3952:3966  highestBidders */\n      0x06\n        /* \"14-exam-prep/contracts/AuctionHouse.sol\":3952:3977  highestBidders[auctionId] */\n      0x00\n        /* \"14-exam-prep/contracts/AuctionHouse.sol\":3967:3976  auctionId */\n      dup6\n        /* \"14-exam-prep/contracts/AuctionHouse.sol\":3952:3977  highestBidders[auctionId] */\n      dup2\n      mstore\n      0x20\n      add\n      swap1\n      dup2\n      mstore\n      0x20\n      add\n      0x00\n      keccak256\n      0x00\n        /* \"14-exam-prep/contracts/AuctionHouse.sol\":3952:3990  highestBidders[auctionId] = msg.sender */\n      0x0100\n      exp\n      dup2\n      sload\n      dup2\n      0xffffffffffffffffffffffffffffffffffffffff\n      mul\n      not\n      and\n      swap1\n      dup4\n      0xffffffffffffffffffffffffffffffffffffffff\n      and\n      mul\n      or\n      swap1\n      sstore\n      pop\n        /* \"14-exam-prep/contracts/AuctionHouse.sol\":4024:4034  msg.sender */\n      caller\n        /* \"14-exam-prep/contracts/AuctionHouse.sol\":4006:4043  NewBid(auctionId, msg.sender, newBid) */\n      0xffffffffffffffffffffffffffffffffffffffff\n      and\n        /* \"14-exam-prep/contracts/AuctionHouse.sol\":4013:4022  auctionId */\n      dup4\n        /* \"14-exam-prep/contracts/AuctionHouse.sol\":4006:4043  NewBid(auctionId, msg.sender, newBid) */\n      0x558a0d5d5468d74b0db24c74eb348b42271c2ebb4c9e953ced38aaed95fa4361\n        /* \"14-exam-prep/contracts/AuctionHouse.sol\":4036:4042  newBid */\n      dup4\n        /* \"14-exam-prep/contracts/AuctionHouse.sol\":4006:4043  NewBid(auctionId, msg.sender, newBid) */\n      mload(0x40)\n      tag_86\n      swap2\n      swap1\n      tag_25\n      jump\t// in\n    tag_86:\n      mload(0x40)\n      dup1\n      swap2\n      sub\n      swap1\n      log3\n        /* \"14-exam-prep/contracts/AuctionHouse.sol\":2968:4050  {... */\n      pop\n      pop\n        /* \"14-exam-prep/contracts/AuctionHouse.sol\":2919:4050  function bid(uint256 auctionId) external payable {... */\n      pop\n      jump\t// out\n        /* \"14-exam-prep/contracts/AuctionHouse.sol\":940:983  mapping(uint256 => Auction) public auctions */\n    tag_32:\n      mstore(0x20, 0x04)\n      dup1\n      0x00\n      mstore\n      keccak256(0x00, 0x40)\n      0x00\n      swap2\n      pop\n      swap1\n      pop\n      dup1\n      0x00\n      add\n      sload\n      swap1\n      dup1\n      0x01\n      add\n      0x00\n      swap1\n      sload\n      swap1\n      0x0100\n      exp\n      swap1\n      div\n      0xffffffffffffffffffffffffffffffffffffffff\n      and\n      swap1\n      dup1\n      0x02\n      add\n      sload\n      swap1\n      dup1\n      0x03\n      add\n      sload\n      swap1\n      dup1\n      0x04\n      add\n      sload\n      swap1\n      dup1\n      0x05\n      add\n      sload\n      swap1\n      dup1\n      0x06\n      add\n      sload\n      swap1\n      dup1\n      0x07\n      add\n      sload\n      swap1\n      dup1\n      0x08\n      add\n      0x00\n      swap1\n      sload\n      swap1\n      0x0100\n      exp\n      swap1\n      div\n      0xffffffffffffffffffffffffffffffffffffffff\n      and\n      swap1\n      dup1\n      0x08\n      add\n      0x14\n      swap1\n      sload\n      swap1\n      0x0100\n      exp\n      swap1\n      div\n      0xff\n      and\n      swap1\n      dup1\n      0x08\n      add\n      0x15\n      swap1\n      sload\n      swap1\n      0x0100\n      exp\n      swap1\n      div\n      0xff\n      and\n      swap1\n      pop\n      dup12\n      jump\t// out\n        /* \"@openzeppelin/contracts/access/Ownable.sol\":2293:2394  function renounceOwnership() public virtual onlyOwner {... */\n    tag_37:\n        /* \"@openzeppelin/contracts/access/Ownable.sol\":1531:1544  _checkOwner() */\n      tag_88\n        /* \"@openzeppelin/contracts/access/Ownable.sol\":1531:1542  _checkOwner */\n      tag_89\n        /* \"@openzeppelin/contracts/access/Ownable.sol\":1531:1544  _checkOwner() */\n      jump\t// in\n    tag_88:\n        /* \"@openzeppelin/contracts/access/Ownable.sol\":2357:2387  _transferOwnership(address(0)) */\n      tag_91\n        /* \"@openzeppelin/contracts/access/Ownable.sol\":2384:2385  0 */\n      0x00\n        /* \"@openzeppelin/contracts/access/Ownable.sol\":2357:2375  _transferOwnership */\n      tag_92\n        /* \"@openzeppelin/contracts/access/Ownable.sol\":2357:2387  _transferOwnership(address(0)) */\n      jump\t// in\n    tag_91:\n        /* \"@openzeppelin/contracts/access/Ownable.sol\":2293:2394  function renounceOwnership() public virtual onlyOwner {... */\n      jump\t// out\n        /* \"14-exam-prep/contracts/AuctionHouse.sol\":1083:1156  mapping(uint256 auctionId => address highestBidder) public highestBidders */\n    tag_41:\n      mstore(0x20, 0x06)\n      dup1\n      0x00\n      mstore\n      keccak256(0x00, 0x40)\n      0x00\n      swap2\n      pop\n      sload\n      swap1\n      0x0100\n      exp\n      swap1\n      div\n      0xffffffffffffffffffffffffffffffffffffffff\n      and\n      dup2\n      jump\t// out\n        /* \"@openzeppelin/contracts/access/Ownable.sol\":1638:1723  function owner() public view virtual returns (address) {... */\n    tag_46:\n        /* \"@openzeppelin/contracts/access/Ownable.sol\":1684:1691  address */\n      0x00\n        /* \"@openzeppelin/contracts/access/Ownable.sol\":1710:1716  _owner */\n      dup1\n      0x00\n      swap1\n      sload\n      swap1\n      0x0100\n      exp\n      swap1\n      div\n      0xffffffffffffffffffffffffffffffffffffffff\n      and\n        /* \"@openzeppelin/contracts/access/Ownable.sol\":1703:1716  return _owner */\n      swap1\n      pop\n        /* \"@openzeppelin/contracts/access/Ownable.sol\":1638:1723  function owner() public view virtual returns (address) {... */\n      swap1\n      jump\t// out\n        /* \"14-exam-prep/contracts/AuctionHouse.sol\":1617:2913  function createAuction(... */\n    tag_52:\n        /* \"14-exam-prep/contracts/AuctionHouse.sol\":1914:1915  0 */\n      0x00\n        /* \"14-exam-prep/contracts/AuctionHouse.sol\":1902:1910  minPrice */\n      dup7\n        /* \"14-exam-prep/contracts/AuctionHouse.sol\":1902:1915  minPrice == 0 */\n      sub\n        /* \"14-exam-prep/contracts/AuctionHouse.sol\":1898:1963  if (minPrice == 0) {... */\n      tag_95\n      jumpi\n        /* \"14-exam-prep/contracts/AuctionHouse.sol\":1938:1952  CannotBeZero() */\n      mload(0x40)\n      0x1e1d0ab500000000000000000000000000000000000000000000000000000000\n      dup2\n      mstore\n      0x04\n      add\n      mload(0x40)\n      dup1\n      swap2\n      sub\n      swap1\n      revert\n        /* \"14-exam-prep/contracts/AuctionHouse.sol\":1898:1963  if (minPrice == 0) {... */\n    tag_95:\n        /* \"14-exam-prep/contracts/AuctionHouse.sol\":1989:2004  block.timestamp */\n      timestamp\n        /* \"14-exam-prep/contracts/AuctionHouse.sol\":1977:1986  startTime */\n      dup6\n        /* \"14-exam-prep/contracts/AuctionHouse.sol\":1977:2004  startTime < block.timestamp */\n      lt\n        /* \"14-exam-prep/contracts/AuctionHouse.sol\":1973:2056  if (startTime < block.timestamp) {... */\n      iszero\n      tag_96\n      jumpi\n        /* \"14-exam-prep/contracts/AuctionHouse.sol\":2027:2045  InvalidStartTime() */\n      mload(0x40)\n      0xb290253c00000000000000000000000000000000000000000000000000000000\n      dup2\n      mstore\n      0x04\n      add\n      mload(0x40)\n      dup1\n      swap2\n      sub\n      swap1\n      revert\n        /* \"14-exam-prep/contracts/AuctionHouse.sol\":1973:2056  if (startTime < block.timestamp) {... */\n    tag_96:\n        /* \"14-exam-prep/contracts/AuctionHouse.sol\":2092:2112  MIN_AUCTION_DURATION */\n      sload(0x01)\n        /* \"14-exam-prep/contracts/AuctionHouse.sol\":2080:2089  startTime */\n      dup6\n        /* \"14-exam-prep/contracts/AuctionHouse.sol\":2080:2112  startTime + MIN_AUCTION_DURATION */\n      tag_97\n      swap2\n      swap1\n      tag_77\n      jump\t// in\n    tag_97:\n        /* \"14-exam-prep/contracts/AuctionHouse.sol\":2070:2077  endTime */\n      dup5\n        /* \"14-exam-prep/contracts/AuctionHouse.sol\":2070:2112  endTime < startTime + MIN_AUCTION_DURATION */\n      lt\n        /* \"14-exam-prep/contracts/AuctionHouse.sol\":2066:2171  if (endTime < startTime + MIN_AUCTION_DURATION) {... */\n      iszero\n      tag_98\n      jumpi\n        /* \"14-exam-prep/contracts/AuctionHouse.sol\":2135:2160  InvalidEndTime(\"TOO_LOW\") */\n      mload(0x40)\n      0xe38cffaa00000000000000000000000000000000000000000000000000000000\n      dup2\n      mstore\n      0x04\n      add\n      tag_99\n      swap1\n      tag_100\n      jump\t// in\n    tag_99:\n      mload(0x40)\n      dup1\n      swap2\n      sub\n      swap1\n      revert\n        /* \"14-exam-prep/contracts/AuctionHouse.sol\":2066:2171  if (endTime < startTime + MIN_AUCTION_DURATION) {... */\n    tag_98:\n        /* \"14-exam-prep/contracts/AuctionHouse.sol\":2207:2227  MAX_AUCTION_DURATION */\n      sload(0x02)\n        /* \"14-exam-prep/contracts/AuctionHouse.sol\":2195:2204  startTime */\n      dup6\n        /* \"14-exam-prep/contracts/AuctionHouse.sol\":2195:2227  startTime + MAX_AUCTION_DURATION */\n      tag_101\n      swap2\n      swap1\n      tag_77\n      jump\t// in\n    tag_101:\n        /* \"14-exam-prep/contracts/AuctionHouse.sol\":2185:2192  endTime */\n      dup5\n        /* \"14-exam-prep/contracts/AuctionHouse.sol\":2185:2227  endTime > startTime + MAX_AUCTION_DURATION */\n      gt\n        /* \"14-exam-prep/contracts/AuctionHouse.sol\":2181:2287  if (endTime > startTime + MAX_AUCTION_DURATION) {... */\n      iszero\n      tag_102\n      jumpi\n        /* \"14-exam-prep/contracts/AuctionHouse.sol\":2250:2276  InvalidEndTime(\"TOO_HIGH\") */\n      mload(0x40)\n      0xe38cffaa00000000000000000000000000000000000000000000000000000000\n      dup2\n      mstore\n      0x04\n      add\n      tag_103\n      swap1\n      tag_104\n      jump\t// in\n    tag_103:\n      mload(0x40)\n      dup1\n      swap2\n      sub\n      swap1\n      revert\n        /* \"14-exam-prep/contracts/AuctionHouse.sol\":2181:2287  if (endTime > startTime + MAX_AUCTION_DURATION) {... */\n    tag_102:\n        /* \"14-exam-prep/contracts/AuctionHouse.sol\":2296:2312  uint256 actionId */\n      0x00\n        /* \"14-exam-prep/contracts/AuctionHouse.sol\":2315:2329  _nextAuctionId */\n      0x03\n      0x00\n        /* \"14-exam-prep/contracts/AuctionHouse.sol\":2315:2331  _nextAuctionId++ */\n      dup2\n      sload\n      dup1\n      swap3\n      swap2\n      swap1\n      tag_105\n      swap1\n      tag_106\n      jump\t// in\n    tag_105:\n      swap2\n      swap1\n      pop\n      sstore\n        /* \"14-exam-prep/contracts/AuctionHouse.sol\":2296:2331  uint256 actionId = _nextAuctionId++ */\n      swap1\n      pop\n        /* \"14-exam-prep/contracts/AuctionHouse.sol\":2363:2783  Auction({... */\n      mload(0x40)\n      dup1\n      0x0160\n      add\n      0x40\n      mstore\n      dup1\n        /* \"14-exam-prep/contracts/AuctionHouse.sol\":2394:2401  tokenId */\n      dup11\n        /* \"14-exam-prep/contracts/AuctionHouse.sol\":2363:2783  Auction({... */\n      dup2\n      mstore\n      0x20\n      add\n        /* \"14-exam-prep/contracts/AuctionHouse.sol\":2427:2439  tokenAddress */\n      dup10\n        /* \"14-exam-prep/contracts/AuctionHouse.sol\":2363:2783  Auction({... */\n      0xffffffffffffffffffffffffffffffffffffffff\n      and\n      dup2\n      mstore\n      0x20\n      add\n        /* \"14-exam-prep/contracts/AuctionHouse.sol\":2463:2471  minPrice */\n      dup9\n        /* \"14-exam-prep/contracts/AuctionHouse.sol\":2363:2783  Auction({... */\n      dup2\n      mstore\n      0x20\n      add\n        /* \"14-exam-prep/contracts/AuctionHouse.sol\":2496:2505  startTime */\n      dup8\n        /* \"14-exam-prep/contracts/AuctionHouse.sol\":2363:2783  Auction({... */\n      dup2\n      mstore\n      0x20\n      add\n        /* \"14-exam-prep/contracts/AuctionHouse.sol\":2528:2535  endTime */\n      dup7\n        /* \"14-exam-prep/contracts/AuctionHouse.sol\":2363:2783  Auction({... */\n      dup2\n      mstore\n      0x20\n      add\n        /* \"14-exam-prep/contracts/AuctionHouse.sol\":2561:2571  minBidIncr */\n      dup6\n        /* \"14-exam-prep/contracts/AuctionHouse.sol\":2363:2783  Auction({... */\n      dup2\n      mstore\n      0x20\n      add\n        /* \"14-exam-prep/contracts/AuctionHouse.sol\":2606:2625  timeExtensionWindow */\n      dup5\n        /* \"14-exam-prep/contracts/AuctionHouse.sol\":2363:2783  Auction({... */\n      dup2\n      mstore\n      0x20\n      add\n        /* \"14-exam-prep/contracts/AuctionHouse.sol\":2658:2675  timeExtensionIncr */\n      dup4\n        /* \"14-exam-prep/contracts/AuctionHouse.sol\":2363:2783  Auction({... */\n      dup2\n      mstore\n      0x20\n      add\n        /* \"14-exam-prep/contracts/AuctionHouse.sol\":2697:2707  msg.sender */\n      caller\n        /* \"14-exam-prep/contracts/AuctionHouse.sol\":2363:2783  Auction({... */\n      0xffffffffffffffffffffffffffffffffffffffff\n      and\n      dup2\n      mstore\n      0x20\n      add\n        /* \"14-exam-prep/contracts/AuctionHouse.sol\":2733:2738  false */\n      0x00\n        /* \"14-exam-prep/contracts/AuctionHouse.sol\":2363:2783  Auction({... */\n      iszero\n      iszero\n      dup2\n      mstore\n      0x20\n      add\n        /* \"14-exam-prep/contracts/AuctionHouse.sol\":2767:2772  false */\n      0x00\n        /* \"14-exam-prep/contracts/AuctionHouse.sol\":2363:2783  Auction({... */\n      iszero\n      iszero\n      dup2\n      mstore\n      pop\n        /* \"14-exam-prep/contracts/AuctionHouse.sol\":2342:2350  auctions */\n      0x04\n        /* \"14-exam-prep/contracts/AuctionHouse.sol\":2342:2360  auctions[actionId] */\n      0x00\n        /* \"14-exam-prep/contracts/AuctionHouse.sol\":2351:2359  actionId */\n      dup4\n        /* \"14-exam-prep/contracts/AuctionHouse.sol\":2342:2360  auctions[actionId] */\n      dup2\n      mstore\n      0x20\n      add\n      swap1\n      dup2\n      mstore\n      0x20\n      add\n      0x00\n      keccak256\n        /* \"14-exam-prep/contracts/AuctionHouse.sol\":2342:2783  auctions[actionId] = Auction({... */\n      0x00\n      dup3\n      add\n      mload\n      dup2\n      0x00\n      add\n      sstore\n      0x20\n      dup3\n      add\n      mload\n      dup2\n      0x01\n      add\n      exp(0x0100, 0x00)\n      dup2\n      sload\n      dup2\n      0xffffffffffffffffffffffffffffffffffffffff\n      mul\n      not\n      and\n      swap1\n      dup4\n      0xffffffffffffffffffffffffffffffffffffffff\n      and\n      mul\n      or\n      swap1\n      sstore\n      pop\n      0x40\n      dup3\n      add\n      mload\n      dup2\n      0x02\n      add\n      sstore\n      0x60\n      dup3\n      add\n      mload\n      dup2\n      0x03\n      add\n      sstore\n      0x80\n      dup3\n      add\n      mload\n      dup2\n      0x04\n      add\n      sstore\n      0xa0\n      dup3\n      add\n      mload\n      dup2\n      0x05\n      add\n      sstore\n      0xc0\n      dup3\n      add\n      mload\n      dup2\n      0x06\n      add\n      sstore\n      0xe0\n      dup3\n      add\n      mload\n      dup2\n      0x07\n      add\n      sstore\n      0x0100\n      dup3\n      add\n      mload\n      dup2\n      0x08\n      add\n      exp(0x0100, 0x00)\n      dup2\n      sload\n      dup2\n      0xffffffffffffffffffffffffffffffffffffffff\n      mul\n      not\n      and\n      swap1\n      dup4\n      0xffffffffffffffffffffffffffffffffffffffff\n      and\n      mul\n      or\n      swap1\n      sstore\n      pop\n      0x0120\n      dup3\n      add\n      mload\n      dup2\n      0x08\n      add\n      exp(0x0100, 0x14)\n      dup2\n      sload\n      dup2\n      0xff\n      mul\n      not\n      and\n      swap1\n      dup4\n      iszero\n      iszero\n      mul\n      or\n      swap1\n      sstore\n      pop\n      0x0140\n      dup3\n      add\n      mload\n      dup2\n      0x08\n      add\n      exp(0x0100, 0x15)\n      dup2\n      sload\n      dup2\n      0xff\n      mul\n      not\n      and\n      swap1\n      dup4\n      iszero\n      iszero\n      mul\n      or\n      swap1\n      sstore\n      pop\n      swap1\n      pop\n      pop\n        /* \"14-exam-prep/contracts/AuctionHouse.sol\":2844:2856  tokenAddress */\n      dup8\n        /* \"14-exam-prep/contracts/AuctionHouse.sol\":2836:2870  IERC721(tokenAddress).transferFrom */\n      0xffffffffffffffffffffffffffffffffffffffff\n      and\n      0x23b872dd\n        /* \"14-exam-prep/contracts/AuctionHouse.sol\":2871:2881  msg.sender */\n      caller\n        /* \"14-exam-prep/contracts/AuctionHouse.sol\":2891:2895  this */\n      address\n        /* \"14-exam-prep/contracts/AuctionHouse.sol\":2898:2905  tokenId */\n      dup13\n        /* \"14-exam-prep/contracts/AuctionHouse.sol\":2836:2906  IERC721(tokenAddress).transferFrom(msg.sender, address(this), tokenId) */\n      mload(0x40)\n      dup5\n      0xffffffff\n      and\n      0xe0\n      shl\n      dup2\n      mstore\n      0x04\n      add\n      tag_107\n      swap4\n      swap3\n      swap2\n      swap1\n      tag_108\n      jump\t// in\n    tag_107:\n      0x00\n      mload(0x40)\n      dup1\n      dup4\n      sub\n      dup2\n      0x00\n      dup8\n      dup1\n      extcodesize\n      iszero\n      dup1\n      iszero\n      tag_109\n      jumpi\n      0x00\n      dup1\n      revert\n    tag_109:\n      pop\n      gas\n      call\n      iszero\n      dup1\n      iszero\n      tag_111\n      jumpi\n      returndatasize\n      0x00\n      dup1\n      returndatacopy\n      revert(0x00, returndatasize)\n    tag_111:\n      pop\n      pop\n      pop\n      pop\n        /* \"14-exam-prep/contracts/AuctionHouse.sol\":1888:2913  {... */\n      pop\n        /* \"14-exam-prep/contracts/AuctionHouse.sol\":1617:2913  function createAuction(... */\n      pop\n      pop\n      pop\n      pop\n      pop\n      pop\n      pop\n      pop\n      jump\t// out\n        /* \"14-exam-prep/contracts/AuctionHouse.sol\":5371:6103  function claimReward(... */\n    tag_56:\n        /* \"14-exam-prep/contracts/AuctionHouse.sol\":5450:5459  auctionId */\n      dup1\n        /* \"14-exam-prep/contracts/AuctionHouse.sol\":6365:6373  auctions */\n      0x04\n        /* \"14-exam-prep/contracts/AuctionHouse.sol\":6365:6384  auctions[auctionId] */\n      0x00\n        /* \"14-exam-prep/contracts/AuctionHouse.sol\":6374:6383  auctionId */\n      dup3\n        /* \"14-exam-prep/contracts/AuctionHouse.sol\":6365:6384  auctions[auctionId] */\n      dup2\n      mstore\n      0x20\n      add\n      swap1\n      dup2\n      mstore\n      0x20\n      add\n      0x00\n      keccak256\n        /* \"14-exam-prep/contracts/AuctionHouse.sol\":6365:6392  auctions[auctionId].endTime */\n      0x04\n      add\n      sload\n        /* \"14-exam-prep/contracts/AuctionHouse.sol\":6346:6361  block.timestamp */\n      timestamp\n        /* \"14-exam-prep/contracts/AuctionHouse.sol\":6346:6392  block.timestamp <= auctions[auctionId].endTime */\n      gt\n        /* \"14-exam-prep/contracts/AuctionHouse.sol\":6342:6445  if (block.timestamp <= auctions[auctionId].endTime) {... */\n      tag_113\n      jumpi\n        /* \"14-exam-prep/contracts/AuctionHouse.sol\":6415:6434  AuctionUnfinished() */\n      mload(0x40)\n      0xd10fc83e00000000000000000000000000000000000000000000000000000000\n      dup2\n      mstore\n      0x04\n      add\n      mload(0x40)\n      dup1\n      swap2\n      sub\n      swap1\n      revert\n        /* \"14-exam-prep/contracts/AuctionHouse.sol\":6342:6445  if (block.timestamp <= auctions[auctionId].endTime) {... */\n    tag_113:\n        /* \"14-exam-prep/contracts/AuctionHouse.sol\":5471:5485  uint256 reward */\n      0x00\n        /* \"14-exam-prep/contracts/AuctionHouse.sol\":5488:5492  bids */\n      0x05\n        /* \"14-exam-prep/contracts/AuctionHouse.sol\":5488:5503  bids[auctionId] */\n      0x00\n        /* \"14-exam-prep/contracts/AuctionHouse.sol\":5493:5502  auctionId */\n      dup5\n        /* \"14-exam-prep/contracts/AuctionHouse.sol\":5488:5503  bids[auctionId] */\n      dup2\n      mstore\n      0x20\n      add\n      swap1\n      dup2\n      mstore\n      0x20\n      add\n      0x00\n      keccak256\n        /* \"14-exam-prep/contracts/AuctionHouse.sol\":5488:5530  bids[auctionId][highestBidders[auctionId]] */\n      0x00\n        /* \"14-exam-prep/contracts/AuctionHouse.sol\":5504:5518  highestBidders */\n      0x06\n        /* \"14-exam-prep/contracts/AuctionHouse.sol\":5504:5529  highestBidders[auctionId] */\n      0x00\n        /* \"14-exam-prep/contracts/AuctionHouse.sol\":5519:5528  auctionId */\n      dup7\n        /* \"14-exam-prep/contracts/AuctionHouse.sol\":5504:5529  highestBidders[auctionId] */\n      dup2\n      mstore\n      0x20\n      add\n      swap1\n      dup2\n      mstore\n      0x20\n      add\n      0x00\n      keccak256\n      0x00\n      swap1\n      sload\n      swap1\n      0x0100\n      exp\n      swap1\n      div\n      0xffffffffffffffffffffffffffffffffffffffff\n      and\n        /* \"14-exam-prep/contracts/AuctionHouse.sol\":5488:5530  bids[auctionId][highestBidders[auctionId]] */\n      0xffffffffffffffffffffffffffffffffffffffff\n      and\n      0xffffffffffffffffffffffffffffffffffffffff\n      and\n      dup2\n      mstore\n      0x20\n      add\n      swap1\n      dup2\n      mstore\n      0x20\n      add\n      0x00\n      keccak256\n      sload\n        /* \"14-exam-prep/contracts/AuctionHouse.sol\":5471:5530  uint256 reward = bids[auctionId][highestBidders[auctionId]] */\n      swap1\n      pop\n        /* \"14-exam-prep/contracts/AuctionHouse.sol\":5554:5555  0 */\n      0x00\n        /* \"14-exam-prep/contracts/AuctionHouse.sol\":5544:5550  reward */\n      dup2\n        /* \"14-exam-prep/contracts/AuctionHouse.sol\":5544:5555  reward == 0 */\n      sub\n        /* \"14-exam-prep/contracts/AuctionHouse.sol\":5540:5599  if (reward == 0) {... */\n      tag_115\n      jumpi\n        /* \"14-exam-prep/contracts/AuctionHouse.sol\":5578:5588  NoWinner() */\n      mload(0x40)\n      0x8b9ae95f00000000000000000000000000000000000000000000000000000000\n      dup2\n      mstore\n      0x04\n      add\n      mload(0x40)\n      dup1\n      swap2\n      sub\n      swap1\n      revert\n        /* \"14-exam-prep/contracts/AuctionHouse.sol\":5540:5599  if (reward == 0) {... */\n    tag_115:\n        /* \"14-exam-prep/contracts/AuctionHouse.sol\":5609:5632  Auction storage auction */\n      0x00\n        /* \"14-exam-prep/contracts/AuctionHouse.sol\":5635:5643  auctions */\n      0x04\n        /* \"14-exam-prep/contracts/AuctionHouse.sol\":5635:5654  auctions[auctionId] */\n      0x00\n        /* \"14-exam-prep/contracts/AuctionHouse.sol\":5644:5653  auctionId */\n      dup6\n        /* \"14-exam-prep/contracts/AuctionHouse.sol\":5635:5654  auctions[auctionId] */\n      dup2\n      mstore\n      0x20\n      add\n      swap1\n      dup2\n      mstore\n      0x20\n      add\n      0x00\n      keccak256\n        /* \"14-exam-prep/contracts/AuctionHouse.sol\":5609:5654  Auction storage auction = auctions[auctionId] */\n      swap1\n      pop\n        /* \"14-exam-prep/contracts/AuctionHouse.sol\":5668:5675  auction */\n      dup1\n        /* \"14-exam-prep/contracts/AuctionHouse.sol\":5668:5689  auction.rewardClaimed */\n      0x08\n      add\n      0x15\n      swap1\n      sload\n      swap1\n      0x0100\n      exp\n      swap1\n      div\n      0xff\n      and\n        /* \"14-exam-prep/contracts/AuctionHouse.sol\":5664:5739  if (auction.rewardClaimed) {... */\n      iszero\n      tag_116\n      jumpi\n        /* \"14-exam-prep/contracts/AuctionHouse.sol\":5712:5728  AlreadyClaimed() */\n      mload(0x40)\n      0x646cf55800000000000000000000000000000000000000000000000000000000\n      dup2\n      mstore\n      0x04\n      add\n      mload(0x40)\n      dup1\n      swap2\n      sub\n      swap1\n      revert\n        /* \"14-exam-prep/contracts/AuctionHouse.sol\":5664:5739  if (auction.rewardClaimed) {... */\n    tag_116:\n        /* \"14-exam-prep/contracts/AuctionHouse.sol\":5767:5774  auction */\n      dup1\n        /* \"14-exam-prep/contracts/AuctionHouse.sol\":5767:5781  auction.seller */\n      0x08\n      add\n      0x00\n      swap1\n      sload\n      swap1\n      0x0100\n      exp\n      swap1\n      div\n      0xffffffffffffffffffffffffffffffffffffffff\n      and\n        /* \"14-exam-prep/contracts/AuctionHouse.sol\":5753:5781  msg.sender != auction.seller */\n      0xffffffffffffffffffffffffffffffffffffffff\n      and\n        /* \"14-exam-prep/contracts/AuctionHouse.sol\":5753:5763  msg.sender */\n      caller\n        /* \"14-exam-prep/contracts/AuctionHouse.sol\":5753:5781  msg.sender != auction.seller */\n      0xffffffffffffffffffffffffffffffffffffffff\n      and\n      eq\n        /* \"14-exam-prep/contracts/AuctionHouse.sol\":5749:5826  if (msg.sender != auction.seller) {... */\n      tag_117\n      jumpi\n        /* \"14-exam-prep/contracts/AuctionHouse.sol\":5804:5815  NotSeller() */\n      mload(0x40)\n      0x5ec8235100000000000000000000000000000000000000000000000000000000\n      dup2\n      mstore\n      0x04\n      add\n      mload(0x40)\n      dup1\n      swap2\n      sub\n      swap1\n      revert\n        /* \"14-exam-prep/contracts/AuctionHouse.sol\":5749:5826  if (msg.sender != auction.seller) {... */\n    tag_117:\n        /* \"14-exam-prep/contracts/AuctionHouse.sol\":5860:5864  true */\n      0x01\n        /* \"14-exam-prep/contracts/AuctionHouse.sol\":5836:5843  auction */\n      dup2\n        /* \"14-exam-prep/contracts/AuctionHouse.sol\":5836:5857  auction.rewardClaimed */\n      0x08\n      add\n      0x15\n        /* \"14-exam-prep/contracts/AuctionHouse.sol\":5836:5864  auction.rewardClaimed = true */\n      0x0100\n      exp\n      dup2\n      sload\n      dup2\n      0xff\n      mul\n      not\n      and\n      swap1\n      dup4\n      iszero\n      iszero\n      mul\n      or\n      swap1\n      sstore\n      pop\n        /* \"14-exam-prep/contracts/AuctionHouse.sol\":5875:5886  uint256 fee */\n      0x00\n        /* \"14-exam-prep/contracts/AuctionHouse.sol\":5899:5902  100 */\n      0x64\n        /* \"14-exam-prep/contracts/AuctionHouse.sol\":5890:5896  reward */\n      dup4\n        /* \"14-exam-prep/contracts/AuctionHouse.sol\":5890:5902  reward / 100 */\n      tag_118\n      swap2\n      swap1\n      tag_119\n      jump\t// in\n    tag_118:\n        /* \"14-exam-prep/contracts/AuctionHouse.sol\":5875:5903  uint256 fee = (reward / 100) */\n      swap1\n      pop\n        /* \"14-exam-prep/contracts/AuctionHouse.sol\":5923:5924  0 */\n      0x00\n        /* \"14-exam-prep/contracts/AuctionHouse.sol\":5917:5920  fee */\n      dup2\n        /* \"14-exam-prep/contracts/AuctionHouse.sol\":5917:5924  fee > 0 */\n      gt\n        /* \"14-exam-prep/contracts/AuctionHouse.sol\":5913:5986  if (fee > 0) {... */\n      iszero\n      tag_120\n      jumpi\n        /* \"14-exam-prep/contracts/AuctionHouse.sol\":5940:5975  _transferETH(payable(owner()), fee) */\n      tag_121\n        /* \"14-exam-prep/contracts/AuctionHouse.sol\":5961:5968  owner() */\n      tag_122\n        /* \"14-exam-prep/contracts/AuctionHouse.sol\":5961:5966  owner */\n      tag_46\n        /* \"14-exam-prep/contracts/AuctionHouse.sol\":5961:5968  owner() */\n      jump\t// in\n    tag_122:\n        /* \"14-exam-prep/contracts/AuctionHouse.sol\":5971:5974  fee */\n      dup3\n        /* \"14-exam-prep/contracts/AuctionHouse.sol\":5940:5952  _transferETH */\n      tag_70\n        /* \"14-exam-prep/contracts/AuctionHouse.sol\":5940:5975  _transferETH(payable(owner()), fee) */\n      jump\t// in\n    tag_121:\n        /* \"14-exam-prep/contracts/AuctionHouse.sol\":5913:5986  if (fee > 0) {... */\n    tag_120:\n        /* \"14-exam-prep/contracts/AuctionHouse.sol\":5996:6043  _transferETH(payable(msg.sender), reward - fee) */\n      tag_123\n        /* \"14-exam-prep/contracts/AuctionHouse.sol\":6017:6027  msg.sender */\n      caller\n        /* \"14-exam-prep/contracts/AuctionHouse.sol\":6039:6042  fee */\n      dup3\n        /* \"14-exam-prep/contracts/AuctionHouse.sol\":6030:6036  reward */\n      dup6\n        /* \"14-exam-prep/contracts/AuctionHouse.sol\":6030:6042  reward - fee */\n      tag_124\n      swap2\n      swap1\n      tag_83\n      jump\t// in\n    tag_124:\n        /* \"14-exam-prep/contracts/AuctionHouse.sol\":5996:6008  _transferETH */\n      tag_70\n        /* \"14-exam-prep/contracts/AuctionHouse.sol\":5996:6043  _transferETH(payable(msg.sender), reward - fee) */\n      jump\t// in\n    tag_123:\n        /* \"14-exam-prep/contracts/AuctionHouse.sol\":6073:6082  auctionId */\n      dup5\n        /* \"14-exam-prep/contracts/AuctionHouse.sol\":6059:6096  RewardClaimed(auctionId, reward, fee) */\n      0x64bc8e516eb66c9bd33c0d0f80b0e16a5bac9eb2bce20d6fdf7698a0d7ab6eba\n        /* \"14-exam-prep/contracts/AuctionHouse.sol\":6084:6090  reward */\n      dup5\n        /* \"14-exam-prep/contracts/AuctionHouse.sol\":6092:6095  fee */\n      dup4\n        /* \"14-exam-prep/contracts/AuctionHouse.sol\":6059:6096  RewardClaimed(auctionId, reward, fee) */\n      mload(0x40)\n      tag_125\n      swap3\n      swap2\n      swap1\n      tag_126\n      jump\t// in\n    tag_125:\n      mload(0x40)\n      dup1\n      swap2\n      sub\n      swap1\n      log2\n        /* \"14-exam-prep/contracts/AuctionHouse.sol\":5461:6103  {... */\n      pop\n      pop\n      pop\n        /* \"14-exam-prep/contracts/AuctionHouse.sol\":5371:6103  function claimReward(... */\n      pop\n      pop\n      jump\t// out\n        /* \"@openzeppelin/contracts/access/Ownable.sol\":2543:2758  function transferOwnership(address newOwner) public virtual onlyOwner {... */\n    tag_61:\n        /* \"@openzeppelin/contracts/access/Ownable.sol\":1531:1544  _checkOwner() */\n      tag_128\n        /* \"@openzeppelin/contracts/access/Ownable.sol\":1531:1542  _checkOwner */\n      tag_89\n        /* \"@openzeppelin/contracts/access/Ownable.sol\":1531:1544  _checkOwner() */\n      jump\t// in\n    tag_128:\n        /* \"@openzeppelin/contracts/access/Ownable.sol\":2647:2648  0 */\n      0x00\n        /* \"@openzeppelin/contracts/access/Ownable.sol\":2627:2649  newOwner == address(0) */\n      0xffffffffffffffffffffffffffffffffffffffff\n      and\n        /* \"@openzeppelin/contracts/access/Ownable.sol\":2627:2635  newOwner */\n      dup2\n        /* \"@openzeppelin/contracts/access/Ownable.sol\":2627:2649  newOwner == address(0) */\n      0xffffffffffffffffffffffffffffffffffffffff\n      and\n      sub\n        /* \"@openzeppelin/contracts/access/Ownable.sol\":2623:2714  if (newOwner == address(0)) {... */\n      tag_130\n      jumpi\n        /* \"@openzeppelin/contracts/access/Ownable.sol\":2700:2701  0 */\n      0x00\n        /* \"@openzeppelin/contracts/access/Ownable.sol\":2672:2703  OwnableInvalidOwner(address(0)) */\n      mload(0x40)\n      0x1e4fbdf700000000000000000000000000000000000000000000000000000000\n      dup2\n      mstore\n      0x04\n      add\n      tag_131\n      swap2\n      swap1\n      tag_43\n      jump\t// in\n    tag_131:\n      mload(0x40)\n      dup1\n      swap2\n      sub\n      swap1\n      revert\n        /* \"@openzeppelin/contracts/access/Ownable.sol\":2623:2714  if (newOwner == address(0)) {... */\n    tag_130:\n        /* \"@openzeppelin/contracts/access/Ownable.sol\":2723:2751  _transferOwnership(newOwner) */\n      tag_132\n        /* \"@openzeppelin/contracts/access/Ownable.sol\":2742:2750  newOwner */\n      dup2\n        /* \"@openzeppelin/contracts/access/Ownable.sol\":2723:2741  _transferOwnership */\n      tag_92\n        /* \"@openzeppelin/contracts/access/Ownable.sol\":2723:2751  _transferOwnership(newOwner) */\n      jump\t// in\n    tag_132:\n        /* \"@openzeppelin/contracts/access/Ownable.sol\":2543:2758  function transferOwnership(address newOwner) public virtual onlyOwner {... */\n      pop\n      jump\t// out\n        /* \"14-exam-prep/contracts/AuctionHouse.sol\":4056:4857  function claimNFT(uint256 auctionId) external auctionFinished(auctionId) {... */\n    tag_65:\n        /* \"14-exam-prep/contracts/AuctionHouse.sol\":4118:4127  auctionId */\n      dup1\n        /* \"14-exam-prep/contracts/AuctionHouse.sol\":6365:6373  auctions */\n      0x04\n        /* \"14-exam-prep/contracts/AuctionHouse.sol\":6365:6384  auctions[auctionId] */\n      0x00\n        /* \"14-exam-prep/contracts/AuctionHouse.sol\":6374:6383  auctionId */\n      dup3\n        /* \"14-exam-prep/contracts/AuctionHouse.sol\":6365:6384  auctions[auctionId] */\n      dup2\n      mstore\n      0x20\n      add\n      swap1\n      dup2\n      mstore\n      0x20\n      add\n      0x00\n      keccak256\n        /* \"14-exam-prep/contracts/AuctionHouse.sol\":6365:6392  auctions[auctionId].endTime */\n      0x04\n      add\n      sload\n        /* \"14-exam-prep/contracts/AuctionHouse.sol\":6346:6361  block.timestamp */\n      timestamp\n        /* \"14-exam-prep/contracts/AuctionHouse.sol\":6346:6392  block.timestamp <= auctions[auctionId].endTime */\n      gt\n        /* \"14-exam-prep/contracts/AuctionHouse.sol\":6342:6445  if (block.timestamp <= auctions[auctionId].endTime) {... */\n      tag_134\n      jumpi\n        /* \"14-exam-prep/contracts/AuctionHouse.sol\":6415:6434  AuctionUnfinished() */\n      mload(0x40)\n      0xd10fc83e00000000000000000000000000000000000000000000000000000000\n      dup2\n      mstore\n      0x04\n      add\n      mload(0x40)\n      dup1\n      swap2\n      sub\n      swap1\n      revert\n        /* \"14-exam-prep/contracts/AuctionHouse.sol\":6342:6445  if (block.timestamp <= auctions[auctionId].endTime) {... */\n    tag_134:\n        /* \"14-exam-prep/contracts/AuctionHouse.sol\":4139:4162  Auction storage auction */\n      0x00\n        /* \"14-exam-prep/contracts/AuctionHouse.sol\":4165:4173  auctions */\n      0x04\n        /* \"14-exam-prep/contracts/AuctionHouse.sol\":4165:4184  auctions[auctionId] */\n      0x00\n        /* \"14-exam-prep/contracts/AuctionHouse.sol\":4174:4183  auctionId */\n      dup5\n        /* \"14-exam-prep/contracts/AuctionHouse.sol\":4165:4184  auctions[auctionId] */\n      dup2\n      mstore\n      0x20\n      add\n      swap1\n      dup2\n      mstore\n      0x20\n      add\n      0x00\n      keccak256\n        /* \"14-exam-prep/contracts/AuctionHouse.sol\":4139:4184  Auction storage auction = auctions[auctionId] */\n      swap1\n      pop\n        /* \"14-exam-prep/contracts/AuctionHouse.sol\":4199:4206  auction */\n      dup1\n        /* \"14-exam-prep/contracts/AuctionHouse.sol\":4199:4217  auction.nftClaimed */\n      0x08\n      add\n      0x14\n      swap1\n      sload\n      swap1\n      0x0100\n      exp\n      swap1\n      div\n      0xff\n      and\n        /* \"14-exam-prep/contracts/AuctionHouse.sol\":4195:4267  if (auction.nftClaimed) {... */\n      iszero\n      tag_136\n      jumpi\n        /* \"14-exam-prep/contracts/AuctionHouse.sol\":4240:4256  AlreadyClaimed() */\n      mload(0x40)\n      0x646cf55800000000000000000000000000000000000000000000000000000000\n      dup2\n      mstore\n      0x04\n      add\n      mload(0x40)\n      dup1\n      swap2\n      sub\n      swap1\n      revert\n        /* \"14-exam-prep/contracts/AuctionHouse.sol\":4195:4267  if (auction.nftClaimed) {... */\n    tag_136:\n        /* \"14-exam-prep/contracts/AuctionHouse.sol\":4277:4298  address highestBidder */\n      0x00\n        /* \"14-exam-prep/contracts/AuctionHouse.sol\":4301:4315  highestBidders */\n      0x06\n        /* \"14-exam-prep/contracts/AuctionHouse.sol\":4301:4326  highestBidders[auctionId] */\n      0x00\n        /* \"14-exam-prep/contracts/AuctionHouse.sol\":4316:4325  auctionId */\n      dup6\n        /* \"14-exam-prep/contracts/AuctionHouse.sol\":4301:4326  highestBidders[auctionId] */\n      dup2\n      mstore\n      0x20\n      add\n      swap1\n      dup2\n      mstore\n      0x20\n      add\n      0x00\n      keccak256\n      0x00\n      swap1\n      sload\n      swap1\n      0x0100\n      exp\n      swap1\n      div\n      0xffffffffffffffffffffffffffffffffffffffff\n      and\n        /* \"14-exam-prep/contracts/AuctionHouse.sol\":4277:4326  address highestBidder = highestBidders[auctionId] */\n      swap1\n      pop\n        /* \"14-exam-prep/contracts/AuctionHouse.sol\":4367:4380  highestBidder */\n      dup1\n        /* \"14-exam-prep/contracts/AuctionHouse.sol\":4353:4380  msg.sender != highestBidder */\n      0xffffffffffffffffffffffffffffffffffffffff\n      and\n        /* \"14-exam-prep/contracts/AuctionHouse.sol\":4353:4363  msg.sender */\n      caller\n        /* \"14-exam-prep/contracts/AuctionHouse.sol\":4353:4380  msg.sender != highestBidder */\n      0xffffffffffffffffffffffffffffffffffffffff\n      and\n      eq\n      iszero\n        /* \"14-exam-prep/contracts/AuctionHouse.sol\":4353:4423  msg.sender != highestBidder &&... */\n      dup1\n      iszero\n      tag_137\n      jumpi\n      pop\n        /* \"14-exam-prep/contracts/AuctionHouse.sol\":4410:4423  highestBidder */\n      dup1\n        /* \"14-exam-prep/contracts/AuctionHouse.sol\":4396:4423  address(0) != highestBidder */\n      0xffffffffffffffffffffffffffffffffffffffff\n      and\n        /* \"14-exam-prep/contracts/AuctionHouse.sol\":4404:4405  0 */\n      0x00\n        /* \"14-exam-prep/contracts/AuctionHouse.sol\":4396:4423  address(0) != highestBidder */\n      0xffffffffffffffffffffffffffffffffffffffff\n      and\n      eq\n      iszero\n        /* \"14-exam-prep/contracts/AuctionHouse.sol\":4353:4423  msg.sender != highestBidder &&... */\n    tag_137:\n        /* \"14-exam-prep/contracts/AuctionHouse.sol\":4353:4467  msg.sender != highestBidder &&... */\n      dup1\n      iszero\n      tag_138\n      jumpi\n      pop\n        /* \"14-exam-prep/contracts/AuctionHouse.sol\":4453:4460  auction */\n      dup2\n        /* \"14-exam-prep/contracts/AuctionHouse.sol\":4453:4467  auction.seller */\n      0x08\n      add\n      0x00\n      swap1\n      sload\n      swap1\n      0x0100\n      exp\n      swap1\n      div\n      0xffffffffffffffffffffffffffffffffffffffff\n      and\n        /* \"14-exam-prep/contracts/AuctionHouse.sol\":4439:4467  msg.sender != auction.seller */\n      0xffffffffffffffffffffffffffffffffffffffff\n      and\n        /* \"14-exam-prep/contracts/AuctionHouse.sol\":4439:4449  msg.sender */\n      caller\n        /* \"14-exam-prep/contracts/AuctionHouse.sol\":4439:4467  msg.sender != auction.seller */\n      0xffffffffffffffffffffffffffffffffffffffff\n      and\n      eq\n      iszero\n        /* \"14-exam-prep/contracts/AuctionHouse.sol\":4353:4467  msg.sender != highestBidder &&... */\n    tag_138:\n        /* \"14-exam-prep/contracts/AuctionHouse.sol\":4336:4522  if (... */\n      iszero\n      tag_139\n      jumpi\n        /* \"14-exam-prep/contracts/AuctionHouse.sol\":4499:4511  NotClaimer() */\n      mload(0x40)\n      0x9553066800000000000000000000000000000000000000000000000000000000\n      dup2\n      mstore\n      0x04\n      add\n      mload(0x40)\n      dup1\n      swap2\n      sub\n      swap1\n      revert\n        /* \"14-exam-prep/contracts/AuctionHouse.sol\":4336:4522  if (... */\n    tag_139:\n        /* \"14-exam-prep/contracts/AuctionHouse.sol\":4553:4557  true */\n      0x01\n        /* \"14-exam-prep/contracts/AuctionHouse.sol\":4532:4539  auction */\n      dup3\n        /* \"14-exam-prep/contracts/AuctionHouse.sol\":4532:4550  auction.nftClaimed */\n      0x08\n      add\n      0x14\n        /* \"14-exam-prep/contracts/AuctionHouse.sol\":4532:4557  auction.nftClaimed = true */\n      0x0100\n      exp\n      dup2\n      sload\n      dup2\n      0xff\n      mul\n      not\n      and\n      swap1\n      dup4\n      iszero\n      iszero\n      mul\n      or\n      swap1\n      sstore\n      pop\n        /* \"14-exam-prep/contracts/AuctionHouse.sol\":4568:4584  address receiver */\n      0x00\n        /* \"14-exam-prep/contracts/AuctionHouse.sol\":4601:4614  highestBidder */\n      dup2\n        /* \"14-exam-prep/contracts/AuctionHouse.sol\":4587:4614  msg.sender == highestBidder */\n      0xffffffffffffffffffffffffffffffffffffffff\n      and\n        /* \"14-exam-prep/contracts/AuctionHouse.sol\":4587:4597  msg.sender */\n      caller\n        /* \"14-exam-prep/contracts/AuctionHouse.sol\":4587:4614  msg.sender == highestBidder */\n      0xffffffffffffffffffffffffffffffffffffffff\n      and\n      eq\n        /* \"14-exam-prep/contracts/AuctionHouse.sol\":4587:4671  msg.sender == highestBidder... */\n      tag_140\n      jumpi\n        /* \"14-exam-prep/contracts/AuctionHouse.sol\":4657:4664  auction */\n      dup3\n        /* \"14-exam-prep/contracts/AuctionHouse.sol\":4657:4671  auction.seller */\n      0x08\n      add\n      0x00\n      swap1\n      sload\n      swap1\n      0x0100\n      exp\n      swap1\n      div\n      0xffffffffffffffffffffffffffffffffffffffff\n      and\n        /* \"14-exam-prep/contracts/AuctionHouse.sol\":4587:4671  msg.sender == highestBidder... */\n      jump(tag_141)\n    tag_140:\n        /* \"14-exam-prep/contracts/AuctionHouse.sol\":4629:4642  highestBidder */\n      dup2\n        /* \"14-exam-prep/contracts/AuctionHouse.sol\":4587:4671  msg.sender == highestBidder... */\n    tag_141:\n        /* \"14-exam-prep/contracts/AuctionHouse.sol\":4568:4671  address receiver = msg.sender == highestBidder... */\n      swap1\n      pop\n        /* \"14-exam-prep/contracts/AuctionHouse.sol\":4689:4696  auction */\n      dup3\n        /* \"14-exam-prep/contracts/AuctionHouse.sol\":4689:4707  auction.nftAddress */\n      0x01\n      add\n      0x00\n      swap1\n      sload\n      swap1\n      0x0100\n      exp\n      swap1\n      div\n      0xffffffffffffffffffffffffffffffffffffffff\n      and\n        /* \"14-exam-prep/contracts/AuctionHouse.sol\":4681:4725  IERC721(auction.nftAddress).safeTransferFrom */\n      0xffffffffffffffffffffffffffffffffffffffff\n      and\n      0x42842e0e\n        /* \"14-exam-prep/contracts/AuctionHouse.sol\":4747:4751  this */\n      address\n        /* \"14-exam-prep/contracts/AuctionHouse.sol\":4766:4774  receiver */\n      dup4\n        /* \"14-exam-prep/contracts/AuctionHouse.sol\":4788:4795  auction */\n      dup7\n        /* \"14-exam-prep/contracts/AuctionHouse.sol\":4788:4803  auction.tokenId */\n      0x00\n      add\n      sload\n        /* \"14-exam-prep/contracts/AuctionHouse.sol\":4681:4813  IERC721(auction.nftAddress).safeTransferFrom(... */\n      mload(0x40)\n      dup5\n      0xffffffff\n      and\n      0xe0\n      shl\n      dup2\n      mstore\n      0x04\n      add\n      tag_142\n      swap4\n      swap3\n      swap2\n      swap1\n      tag_108\n      jump\t// in\n    tag_142:\n      0x00\n      mload(0x40)\n      dup1\n      dup4\n      sub\n      dup2\n      0x00\n      dup8\n      dup1\n      extcodesize\n      iszero\n      dup1\n      iszero\n      tag_143\n      jumpi\n      0x00\n      dup1\n      revert\n    tag_143:\n      pop\n      gas\n      call\n      iszero\n      dup1\n      iszero\n      tag_145\n      jumpi\n      returndatasize\n      0x00\n      dup1\n      returndatacopy\n      revert(0x00, returndatasize)\n    tag_145:\n      pop\n      pop\n      pop\n      pop\n        /* \"14-exam-prep/contracts/AuctionHouse.sol\":4840:4849  auctionId */\n      dup5\n        /* \"14-exam-prep/contracts/AuctionHouse.sol\":4829:4850  NftClaimed(auctionId) */\n      0xe7d838b5061d956e2f0afddd5dbb9c298f3e2d61c59579e796bad18fee8070c6\n      mload(0x40)\n      mload(0x40)\n      dup1\n      swap2\n      sub\n      swap1\n      log2\n        /* \"14-exam-prep/contracts/AuctionHouse.sol\":4129:4857  {... */\n      pop\n      pop\n      pop\n        /* \"14-exam-prep/contracts/AuctionHouse.sol\":4056:4857  function claimNFT(uint256 auctionId) external auctionFinished(auctionId) {... */\n      pop\n      pop\n      jump\t// out\n        /* \"14-exam-prep/contracts/AuctionHouse.sol\":6109:6282  function _transferETH(address payable to, uint256 amount) private {... */\n    tag_70:\n        /* \"14-exam-prep/contracts/AuctionHouse.sol\":6186:6195  bool sent */\n      0x00\n        /* \"14-exam-prep/contracts/AuctionHouse.sol\":6201:6203  to */\n      dup3\n        /* \"14-exam-prep/contracts/AuctionHouse.sol\":6201:6208  to.call */\n      0xffffffffffffffffffffffffffffffffffffffff\n      and\n        /* \"14-exam-prep/contracts/AuctionHouse.sol\":6216:6222  amount */\n      dup3\n        /* \"14-exam-prep/contracts/AuctionHouse.sol\":6201:6227  to.call{value: amount}(\"\") */\n      mload(0x40)\n      tag_147\n      swap1\n      tag_148\n      jump\t// in\n    tag_147:\n      0x00\n      mload(0x40)\n      dup1\n      dup4\n      sub\n      dup2\n      dup6\n      dup8\n      gas\n      call\n      swap3\n      pop\n      pop\n      pop\n      returndatasize\n      dup1\n      0x00\n      dup2\n      eq\n      tag_151\n      jumpi\n      mload(0x40)\n      swap2\n      pop\n      and(add(returndatasize, 0x3f), not(0x1f))\n      dup3\n      add\n      0x40\n      mstore\n      returndatasize\n      dup3\n      mstore\n      returndatasize\n      0x00\n      0x20\n      dup5\n      add\n      returndatacopy\n      jump(tag_150)\n    tag_151:\n      0x60\n      swap2\n      pop\n    tag_150:\n      pop\n        /* \"14-exam-prep/contracts/AuctionHouse.sol\":6185:6227  (bool sent, ) = to.call{value: amount}(\"\") */\n      pop\n      swap1\n      pop\n        /* \"14-exam-prep/contracts/AuctionHouse.sol\":6246:6250  sent */\n      dup1\n        /* \"14-exam-prep/contracts/AuctionHouse.sol\":6238:6275  require(sent, \"Failed to send Ether\") */\n      tag_152\n      jumpi\n      mload(0x40)\n      0x08c379a000000000000000000000000000000000000000000000000000000000\n      dup2\n      mstore\n      0x04\n      add\n      tag_153\n      swap1\n      tag_154\n      jump\t// in\n    tag_153:\n      mload(0x40)\n      dup1\n      swap2\n      sub\n      swap1\n      revert\n    tag_152:\n        /* \"14-exam-prep/contracts/AuctionHouse.sol\":6175:6282  {... */\n      pop\n        /* \"14-exam-prep/contracts/AuctionHouse.sol\":6109:6282  function _transferETH(address payable to, uint256 amount) private {... */\n      pop\n      pop\n      jump\t// out\n        /* \"@openzeppelin/contracts/access/Ownable.sol\":1796:1958  function _checkOwner() internal view virtual {... */\n    tag_89:\n        /* \"@openzeppelin/contracts/access/Ownable.sol\":1866:1878  _msgSender() */\n      tag_156\n        /* \"@openzeppelin/contracts/access/Ownable.sol\":1866:1876  _msgSender */\n      tag_157\n        /* \"@openzeppelin/contracts/access/Ownable.sol\":1866:1878  _msgSender() */\n      jump\t// in\n    tag_156:\n        /* \"@openzeppelin/contracts/access/Ownable.sol\":1855:1878  owner() != _msgSender() */\n      0xffffffffffffffffffffffffffffffffffffffff\n      and\n        /* \"@openzeppelin/contracts/access/Ownable.sol\":1855:1862  owner() */\n      tag_158\n        /* \"@openzeppelin/contracts/access/Ownable.sol\":1855:1860  owner */\n      tag_46\n        /* \"@openzeppelin/contracts/access/Ownable.sol\":1855:1862  owner() */\n      jump\t// in\n    tag_158:\n        /* \"@openzeppelin/contracts/access/Ownable.sol\":1855:1878  owner() != _msgSender() */\n      0xffffffffffffffffffffffffffffffffffffffff\n      and\n      eq\n        /* \"@openzeppelin/contracts/access/Ownable.sol\":1851:1952  if (owner() != _msgSender()) {... */\n      tag_159\n      jumpi\n        /* \"@openzeppelin/contracts/access/Ownable.sol\":1928:1940  _msgSender() */\n      tag_160\n        /* \"@openzeppelin/contracts/access/Ownable.sol\":1928:1938  _msgSender */\n      tag_157\n        /* \"@openzeppelin/contracts/access/Ownable.sol\":1928:1940  _msgSender() */\n      jump\t// in\n    tag_160:\n        /* \"@openzeppelin/contracts/access/Ownable.sol\":1901:1941  OwnableUnauthorizedAccount(_msgSender()) */\n      mload(0x40)\n      0x118cdaa700000000000000000000000000000000000000000000000000000000\n      dup2\n      mstore\n      0x04\n      add\n      tag_161\n      swap2\n      swap1\n      tag_43\n      jump\t// in\n    tag_161:\n      mload(0x40)\n      dup1\n      swap2\n      sub\n      swap1\n      revert\n        /* \"@openzeppelin/contracts/access/Ownable.sol\":1851:1952  if (owner() != _msgSender()) {... */\n    tag_159:\n        /* \"@openzeppelin/contracts/access/Ownable.sol\":1796:1958  function _checkOwner() internal view virtual {... */\n      jump\t// out\n        /* \"@openzeppelin/contracts/access/Ownable.sol\":2912:3099  function _transferOwnership(address newOwner) internal virtual {... */\n    tag_92:\n        /* \"@openzeppelin/contracts/access/Ownable.sol\":2985:3001  address oldOwner */\n      0x00\n        /* \"@openzeppelin/contracts/access/Ownable.sol\":3004:3010  _owner */\n      dup1\n      0x00\n      swap1\n      sload\n      swap1\n      0x0100\n      exp\n      swap1\n      div\n      0xffffffffffffffffffffffffffffffffffffffff\n      and\n        /* \"@openzeppelin/contracts/access/Ownable.sol\":2985:3010  address oldOwner = _owner */\n      swap1\n      pop\n        /* \"@openzeppelin/contracts/access/Ownable.sol\":3029:3037  newOwner */\n      dup2\n        /* \"@openzeppelin/contracts/access/Ownable.sol\":3020:3026  _owner */\n      0x00\n      dup1\n        /* \"@openzeppelin/contracts/access/Ownable.sol\":3020:3037  _owner = newOwner */\n      0x0100\n      exp\n      dup2\n      sload\n      dup2\n      0xffffffffffffffffffffffffffffffffffffffff\n      mul\n      not\n      and\n      swap1\n      dup4\n      0xffffffffffffffffffffffffffffffffffffffff\n      and\n      mul\n      or\n      swap1\n      sstore\n      pop\n        /* \"@openzeppelin/contracts/access/Ownable.sol\":3083:3091  newOwner */\n      dup2\n        /* \"@openzeppelin/contracts/access/Ownable.sol\":3052:3092  OwnershipTransferred(oldOwner, newOwner) */\n      0xffffffffffffffffffffffffffffffffffffffff\n      and\n        /* \"@openzeppelin/contracts/access/Ownable.sol\":3073:3081  oldOwner */\n      dup2\n        /* \"@openzeppelin/contracts/access/Ownable.sol\":3052:3092  OwnershipTransferred(oldOwner, newOwner) */\n      0xffffffffffffffffffffffffffffffffffffffff\n      and\n      0x8be0079c531659141344cd1fd0a4f28419497f9722a3daafe3b4186f6b6457e0\n      mload(0x40)\n      mload(0x40)\n      dup1\n      swap2\n      sub\n      swap1\n      log3\n        /* \"@openzeppelin/contracts/access/Ownable.sol\":2975:3099  {... */\n      pop\n        /* \"@openzeppelin/contracts/access/Ownable.sol\":2912:3099  function _transferOwnership(address newOwner) internal virtual {... */\n      pop\n      jump\t// out\n        /* \"@openzeppelin/contracts/utils/Context.sol\":656:752  function _msgSender() internal view virtual returns (address) {... */\n    tag_157:\n        /* \"@openzeppelin/contracts/utils/Context.sol\":709:716  address */\n      0x00\n        /* \"@openzeppelin/contracts/utils/Context.sol\":735:745  msg.sender */\n      caller\n        /* \"@openzeppelin/contracts/utils/Context.sol\":728:745  return msg.sender */\n      swap1\n      pop\n        /* \"@openzeppelin/contracts/utils/Context.sol\":656:752  function _msgSender() internal view virtual returns (address) {... */\n      swap1\n      jump\t// out\n        /* \"#utility.yul\":88:205   */\n    tag_165:\n        /* \"#utility.yul\":197:198   */\n      0x00\n        /* \"#utility.yul\":194:195   */\n      dup1\n        /* \"#utility.yul\":187:199   */\n      revert\n        /* \"#utility.yul\":334:411   */\n    tag_167:\n        /* \"#utility.yul\":371:378   */\n      0x00\n        /* \"#utility.yul\":400:405   */\n      dup2\n        /* \"#utility.yul\":389:405   */\n      swap1\n      pop\n        /* \"#utility.yul\":334:411   */\n      swap2\n      swap1\n      pop\n      jump\t// out\n        /* \"#utility.yul\":417:539   */\n    tag_168:\n        /* \"#utility.yul\":490:514   */\n      tag_196\n        /* \"#utility.yul\":508:513   */\n      dup2\n        /* \"#utility.yul\":490:514   */\n      tag_167\n      jump\t// in\n    tag_196:\n        /* \"#utility.yul\":483:488   */\n      dup2\n        /* \"#utility.yul\":480:515   */\n      eq\n        /* \"#utility.yul\":470:533   */\n      tag_197\n      jumpi\n        /* \"#utility.yul\":529:530   */\n      0x00\n        /* \"#utility.yul\":526:527   */\n      dup1\n        /* \"#utility.yul\":519:531   */\n      revert\n        /* \"#utility.yul\":470:533   */\n    tag_197:\n        /* \"#utility.yul\":417:539   */\n      pop\n      jump\t// out\n        /* \"#utility.yul\":545:684   */\n    tag_169:\n        /* \"#utility.yul\":591:596   */\n      0x00\n        /* \"#utility.yul\":629:635   */\n      dup2\n        /* \"#utility.yul\":616:636   */\n      calldataload\n        /* \"#utility.yul\":607:636   */\n      swap1\n      pop\n        /* \"#utility.yul\":645:678   */\n      tag_199\n        /* \"#utility.yul\":672:677   */\n      dup2\n        /* \"#utility.yul\":645:678   */\n      tag_168\n      jump\t// in\n    tag_199:\n        /* \"#utility.yul\":545:684   */\n      swap3\n      swap2\n      pop\n      pop\n      jump\t// out\n        /* \"#utility.yul\":690:1019   */\n    tag_17:\n        /* \"#utility.yul\":749:755   */\n      0x00\n        /* \"#utility.yul\":798:800   */\n      0x20\n        /* \"#utility.yul\":786:795   */\n      dup3\n        /* \"#utility.yul\":777:784   */\n      dup5\n        /* \"#utility.yul\":773:796   */\n      sub\n        /* \"#utility.yul\":769:801   */\n      slt\n        /* \"#utility.yul\":766:885   */\n      iszero\n      tag_201\n      jumpi\n        /* \"#utility.yul\":804:883   */\n      tag_202\n      tag_165\n      jump\t// in\n    tag_202:\n        /* \"#utility.yul\":766:885   */\n    tag_201:\n        /* \"#utility.yul\":924:925   */\n      0x00\n        /* \"#utility.yul\":949:1002   */\n      tag_203\n        /* \"#utility.yul\":994:1001   */\n      dup5\n        /* \"#utility.yul\":985:991   */\n      dup3\n        /* \"#utility.yul\":974:983   */\n      dup6\n        /* \"#utility.yul\":970:992   */\n      add\n        /* \"#utility.yul\":949:1002   */\n      tag_169\n      jump\t// in\n    tag_203:\n        /* \"#utility.yul\":939:1002   */\n      swap2\n      pop\n        /* \"#utility.yul\":895:1012   */\n      pop\n        /* \"#utility.yul\":690:1019   */\n      swap3\n      swap2\n      pop\n      pop\n      jump\t// out\n        /* \"#utility.yul\":1025:1151   */\n    tag_170:\n        /* \"#utility.yul\":1062:1069   */\n      0x00\n        /* \"#utility.yul\":1102:1144   */\n      0xffffffffffffffffffffffffffffffffffffffff\n        /* \"#utility.yul\":1095:1100   */\n      dup3\n        /* \"#utility.yul\":1091:1145   */\n      and\n        /* \"#utility.yul\":1080:1145   */\n      swap1\n      pop\n        /* \"#utility.yul\":1025:1151   */\n      swap2\n      swap1\n      pop\n      jump\t// out\n        /* \"#utility.yul\":1157:1253   */\n    tag_171:\n        /* \"#utility.yul\":1194:1201   */\n      0x00\n        /* \"#utility.yul\":1223:1247   */\n      tag_206\n        /* \"#utility.yul\":1241:1246   */\n      dup3\n        /* \"#utility.yul\":1223:1247   */\n      tag_170\n      jump\t// in\n    tag_206:\n        /* \"#utility.yul\":1212:1247   */\n      swap1\n      pop\n        /* \"#utility.yul\":1157:1253   */\n      swap2\n      swap1\n      pop\n      jump\t// out\n        /* \"#utility.yul\":1259:1381   */\n    tag_172:\n        /* \"#utility.yul\":1332:1356   */\n      tag_208\n        /* \"#utility.yul\":1350:1355   */\n      dup2\n        /* \"#utility.yul\":1332:1356   */\n      tag_171\n      jump\t// in\n    tag_208:\n        /* \"#utility.yul\":1325:1330   */\n      dup2\n        /* \"#utility.yul\":1322:1357   */\n      eq\n        /* \"#utility.yul\":1312:1375   */\n      tag_209\n      jumpi\n        /* \"#utility.yul\":1371:1372   */\n      0x00\n        /* \"#utility.yul\":1368:1369   */\n      dup1\n        /* \"#utility.yul\":1361:1373   */\n      revert\n        /* \"#utility.yul\":1312:1375   */\n    tag_209:\n        /* \"#utility.yul\":1259:1381   */\n      pop\n      jump\t// out\n        /* \"#utility.yul\":1387:1526   */\n    tag_173:\n        /* \"#utility.yul\":1433:1438   */\n      0x00\n        /* \"#utility.yul\":1471:1477   */\n      dup2\n        /* \"#utility.yul\":1458:1478   */\n      calldataload\n        /* \"#utility.yul\":1449:1478   */\n      swap1\n      pop\n        /* \"#utility.yul\":1487:1520   */\n      tag_211\n        /* \"#utility.yul\":1514:1519   */\n      dup2\n        /* \"#utility.yul\":1487:1520   */\n      tag_172\n      jump\t// in\n    tag_211:\n        /* \"#utility.yul\":1387:1526   */\n      swap3\n      swap2\n      pop\n      pop\n      jump\t// out\n        /* \"#utility.yul\":1532:2006   */\n    tag_22:\n        /* \"#utility.yul\":1600:1606   */\n      0x00\n        /* \"#utility.yul\":1608:1614   */\n      dup1\n        /* \"#utility.yul\":1657:1659   */\n      0x40\n        /* \"#utility.yul\":1645:1654   */\n      dup4\n        /* \"#utility.yul\":1636:1643   */\n      dup6\n        /* \"#utility.yul\":1632:1655   */\n      sub\n        /* \"#utility.yul\":1628:1660   */\n      slt\n        /* \"#utility.yul\":1625:1744   */\n      iszero\n      tag_213\n      jumpi\n        /* \"#utility.yul\":1663:1742   */\n      tag_214\n      tag_165\n      jump\t// in\n    tag_214:\n        /* \"#utility.yul\":1625:1744   */\n    tag_213:\n        /* \"#utility.yul\":1783:1784   */\n      0x00\n        /* \"#utility.yul\":1808:1861   */\n      tag_215\n        /* \"#utility.yul\":1853:1860   */\n      dup6\n        /* \"#utility.yul\":1844:1850   */\n      dup3\n        /* \"#utility.yul\":1833:1842   */\n      dup7\n        /* \"#utility.yul\":1829:1851   */\n      add\n        /* \"#utility.yul\":1808:1861   */\n      tag_169\n      jump\t// in\n    tag_215:\n        /* \"#utility.yul\":1798:1861   */\n      swap3\n      pop\n        /* \"#utility.yul\":1754:1871   */\n      pop\n        /* \"#utility.yul\":1910:1912   */\n      0x20\n        /* \"#utility.yul\":1936:1989   */\n      tag_216\n        /* \"#utility.yul\":1981:1988   */\n      dup6\n        /* \"#utility.yul\":1972:1978   */\n      dup3\n        /* \"#utility.yul\":1961:1970   */\n      dup7\n        /* \"#utility.yul\":1957:1979   */\n      add\n        /* \"#utility.yul\":1936:1989   */\n      tag_173\n      jump\t// in\n    tag_216:\n        /* \"#utility.yul\":1926:1989   */\n      swap2\n      pop\n        /* \"#utility.yul\":1881:1999   */\n      pop\n        /* \"#utility.yul\":1532:2006   */\n      swap3\n      pop\n      swap3\n      swap1\n      pop\n      jump\t// out\n        /* \"#utility.yul\":2012:2130   */\n    tag_174:\n        /* \"#utility.yul\":2099:2123   */\n      tag_218\n        /* \"#utility.yul\":2117:2122   */\n      dup2\n        /* \"#utility.yul\":2099:2123   */\n      tag_167\n      jump\t// in\n    tag_218:\n        /* \"#utility.yul\":2094:2097   */\n      dup3\n        /* \"#utility.yul\":2087:2124   */\n      mstore\n        /* \"#utility.yul\":2012:2130   */\n      pop\n      pop\n      jump\t// out\n        /* \"#utility.yul\":2136:2358   */\n    tag_25:\n        /* \"#utility.yul\":2229:2233   */\n      0x00\n        /* \"#utility.yul\":2267:2269   */\n      0x20\n        /* \"#utility.yul\":2256:2265   */\n      dup3\n        /* \"#utility.yul\":2252:2270   */\n      add\n        /* \"#utility.yul\":2244:2270   */\n      swap1\n      pop\n        /* \"#utility.yul\":2280:2351   */\n      tag_220\n        /* \"#utility.yul\":2348:2349   */\n      0x00\n        /* \"#utility.yul\":2337:2346   */\n      dup4\n        /* \"#utility.yul\":2333:2350   */\n      add\n        /* \"#utility.yul\":2324:2330   */\n      dup5\n        /* \"#utility.yul\":2280:2351   */\n      tag_174\n      jump\t// in\n    tag_220:\n        /* \"#utility.yul\":2136:2358   */\n      swap3\n      swap2\n      pop\n      pop\n      jump\t// out\n        /* \"#utility.yul\":2364:2482   */\n    tag_175:\n        /* \"#utility.yul\":2451:2475   */\n      tag_222\n        /* \"#utility.yul\":2469:2474   */\n      dup2\n        /* \"#utility.yul\":2451:2475   */\n      tag_171\n      jump\t// in\n    tag_222:\n        /* \"#utility.yul\":2446:2449   */\n      dup3\n        /* \"#utility.yul\":2439:2476   */\n      mstore\n        /* \"#utility.yul\":2364:2482   */\n      pop\n      pop\n      jump\t// out\n        /* \"#utility.yul\":2488:2578   */\n    tag_176:\n        /* \"#utility.yul\":2522:2529   */\n      0x00\n        /* \"#utility.yul\":2565:2570   */\n      dup2\n        /* \"#utility.yul\":2558:2571   */\n      iszero\n        /* \"#utility.yul\":2551:2572   */\n      iszero\n        /* \"#utility.yul\":2540:2572   */\n      swap1\n      pop\n        /* \"#utility.yul\":2488:2578   */\n      swap2\n      swap1\n      pop\n      jump\t// out\n        /* \"#utility.yul\":2584:2693   */\n    tag_177:\n        /* \"#utility.yul\":2665:2686   */\n      tag_225\n        /* \"#utility.yul\":2680:2685   */\n      dup2\n        /* \"#utility.yul\":2665:2686   */\n      tag_176\n      jump\t// in\n    tag_225:\n        /* \"#utility.yul\":2660:2663   */\n      dup3\n        /* \"#utility.yul\":2653:2687   */\n      mstore\n        /* \"#utility.yul\":2584:2693   */\n      pop\n      pop\n      jump\t// out\n        /* \"#utility.yul\":2699:4007   */\n    tag_34:\n        /* \"#utility.yul\":3061:3065   */\n      0x00\n        /* \"#utility.yul\":3099:3102   */\n      0x0160\n        /* \"#utility.yul\":3088:3097   */\n      dup3\n        /* \"#utility.yul\":3084:3103   */\n      add\n        /* \"#utility.yul\":3076:3103   */\n      swap1\n      pop\n        /* \"#utility.yul\":3113:3184   */\n      tag_227\n        /* \"#utility.yul\":3181:3182   */\n      0x00\n        /* \"#utility.yul\":3170:3179   */\n      dup4\n        /* \"#utility.yul\":3166:3183   */\n      add\n        /* \"#utility.yul\":3157:3163   */\n      dup15\n        /* \"#utility.yul\":3113:3184   */\n      tag_174\n      jump\t// in\n    tag_227:\n        /* \"#utility.yul\":3194:3266   */\n      tag_228\n        /* \"#utility.yul\":3262:3264   */\n      0x20\n        /* \"#utility.yul\":3251:3260   */\n      dup4\n        /* \"#utility.yul\":3247:3265   */\n      add\n        /* \"#utility.yul\":3238:3244   */\n      dup14\n        /* \"#utility.yul\":3194:3266   */\n      tag_175\n      jump\t// in\n    tag_228:\n        /* \"#utility.yul\":3276:3348   */\n      tag_229\n        /* \"#utility.yul\":3344:3346   */\n      0x40\n        /* \"#utility.yul\":3333:3342   */\n      dup4\n        /* \"#utility.yul\":3329:3347   */\n      add\n        /* \"#utility.yul\":3320:3326   */\n      dup13\n        /* \"#utility.yul\":3276:3348   */\n      tag_174\n      jump\t// in\n    tag_229:\n        /* \"#utility.yul\":3358:3430   */\n      tag_230\n        /* \"#utility.yul\":3426:3428   */\n      0x60\n        /* \"#utility.yul\":3415:3424   */\n      dup4\n        /* \"#utility.yul\":3411:3429   */\n      add\n        /* \"#utility.yul\":3402:3408   */\n      dup12\n        /* \"#utility.yul\":3358:3430   */\n      tag_174\n      jump\t// in\n    tag_230:\n        /* \"#utility.yul\":3440:3513   */\n      tag_231\n        /* \"#utility.yul\":3508:3511   */\n      0x80\n        /* \"#utility.yul\":3497:3506   */\n      dup4\n        /* \"#utility.yul\":3493:3512   */\n      add\n        /* \"#utility.yul\":3484:3490   */\n      dup11\n        /* \"#utility.yul\":3440:3513   */\n      tag_174\n      jump\t// in\n    tag_231:\n        /* \"#utility.yul\":3523:3596   */\n      tag_232\n        /* \"#utility.yul\":3591:3594   */\n      0xa0\n        /* \"#utility.yul\":3580:3589   */\n      dup4\n        /* \"#utility.yul\":3576:3595   */\n      add\n        /* \"#utility.yul\":3567:3573   */\n      dup10\n        /* \"#utility.yul\":3523:3596   */\n      tag_174\n      jump\t// in\n    tag_232:\n        /* \"#utility.yul\":3606:3679   */\n      tag_233\n        /* \"#utility.yul\":3674:3677   */\n      0xc0\n        /* \"#utility.yul\":3663:3672   */\n      dup4\n        /* \"#utility.yul\":3659:3678   */\n      add\n        /* \"#utility.yul\":3650:3656   */\n      dup9\n        /* \"#utility.yul\":3606:3679   */\n      tag_174\n      jump\t// in\n    tag_233:\n        /* \"#utility.yul\":3689:3762   */\n      tag_234\n        /* \"#utility.yul\":3757:3760   */\n      0xe0\n        /* \"#utility.yul\":3746:3755   */\n      dup4\n        /* \"#utility.yul\":3742:3761   */\n      add\n        /* \"#utility.yul\":3733:3739   */\n      dup8\n        /* \"#utility.yul\":3689:3762   */\n      tag_174\n      jump\t// in\n    tag_234:\n        /* \"#utility.yul\":3772:3845   */\n      tag_235\n        /* \"#utility.yul\":3840:3843   */\n      0x0100\n        /* \"#utility.yul\":3829:3838   */\n      dup4\n        /* \"#utility.yul\":3825:3844   */\n      add\n        /* \"#utility.yul\":3816:3822   */\n      dup7\n        /* \"#utility.yul\":3772:3845   */\n      tag_175\n      jump\t// in\n    tag_235:\n        /* \"#utility.yul\":3855:3922   */\n      tag_236\n        /* \"#utility.yul\":3917:3920   */\n      0x0120\n        /* \"#utility.yul\":3906:3915   */\n      dup4\n        /* \"#utility.yul\":3902:3921   */\n      add\n        /* \"#utility.yul\":3893:3899   */\n      dup6\n        /* \"#utility.yul\":3855:3922   */\n      tag_177\n      jump\t// in\n    tag_236:\n        /* \"#utility.yul\":3932:4000   */\n      tag_237\n        /* \"#utility.yul\":3995:3998   */\n      0x0140\n        /* \"#utility.yul\":3984:3993   */\n      dup4\n        /* \"#utility.yul\":3980:3999   */\n      add\n        /* \"#utility.yul\":3970:3977   */\n      dup5\n        /* \"#utility.yul\":3932:4000   */\n      tag_177\n      jump\t// in\n    tag_237:\n        /* \"#utility.yul\":2699:4007   */\n      swap13\n      swap12\n      pop\n      pop\n      pop\n      pop\n      pop\n      pop\n      pop\n      pop\n      pop\n      pop\n      pop\n      pop\n      jump\t// out\n        /* \"#utility.yul\":4013:4235   */\n    tag_43:\n        /* \"#utility.yul\":4106:4110   */\n      0x00\n        /* \"#utility.yul\":4144:4146   */\n      0x20\n        /* \"#utility.yul\":4133:4142   */\n      dup3\n        /* \"#utility.yul\":4129:4147   */\n      add\n        /* \"#utility.yul\":4121:4147   */\n      swap1\n      pop\n        /* \"#utility.yul\":4157:4228   */\n      tag_239\n        /* \"#utility.yul\":4225:4226   */\n      0x00\n        /* \"#utility.yul\":4214:4223   */\n      dup4\n        /* \"#utility.yul\":4210:4227   */\n      add\n        /* \"#utility.yul\":4201:4207   */\n      dup5\n        /* \"#utility.yul\":4157:4228   */\n      tag_175\n      jump\t// in\n    tag_239:\n        /* \"#utility.yul\":4013:4235   */\n      swap3\n      swap2\n      pop\n      pop\n      jump\t// out\n        /* \"#utility.yul\":4241:5590   */\n    tag_51:\n        /* \"#utility.yul\":4363:4369   */\n      0x00\n        /* \"#utility.yul\":4371:4377   */\n      dup1\n        /* \"#utility.yul\":4379:4385   */\n      0x00\n        /* \"#utility.yul\":4387:4393   */\n      dup1\n        /* \"#utility.yul\":4395:4401   */\n      0x00\n        /* \"#utility.yul\":4403:4409   */\n      dup1\n        /* \"#utility.yul\":4411:4417   */\n      0x00\n        /* \"#utility.yul\":4419:4425   */\n      dup1\n        /* \"#utility.yul\":4468:4471   */\n      0x0100\n        /* \"#utility.yul\":4456:4465   */\n      dup10\n        /* \"#utility.yul\":4447:4454   */\n      dup12\n        /* \"#utility.yul\":4443:4466   */\n      sub\n        /* \"#utility.yul\":4439:4472   */\n      slt\n        /* \"#utility.yul\":4436:4556   */\n      iszero\n      tag_241\n      jumpi\n        /* \"#utility.yul\":4475:4554   */\n      tag_242\n      tag_165\n      jump\t// in\n    tag_242:\n        /* \"#utility.yul\":4436:4556   */\n    tag_241:\n        /* \"#utility.yul\":4595:4596   */\n      0x00\n        /* \"#utility.yul\":4620:4673   */\n      tag_243\n        /* \"#utility.yul\":4665:4672   */\n      dup12\n        /* \"#utility.yul\":4656:4662   */\n      dup3\n        /* \"#utility.yul\":4645:4654   */\n      dup13\n        /* \"#utility.yul\":4641:4663   */\n      add\n        /* \"#utility.yul\":4620:4673   */\n      tag_169\n      jump\t// in\n    tag_243:\n        /* \"#utility.yul\":4610:4673   */\n      swap9\n      pop\n        /* \"#utility.yul\":4566:4683   */\n      pop\n        /* \"#utility.yul\":4722:4724   */\n      0x20\n        /* \"#utility.yul\":4748:4801   */\n      tag_244\n        /* \"#utility.yul\":4793:4800   */\n      dup12\n        /* \"#utility.yul\":4784:4790   */\n      dup3\n        /* \"#utility.yul\":4773:4782   */\n      dup13\n        /* \"#utility.yul\":4769:4791   */\n      add\n        /* \"#utility.yul\":4748:4801   */\n      tag_173\n      jump\t// in\n    tag_244:\n        /* \"#utility.yul\":4738:4801   */\n      swap8\n      pop\n        /* \"#utility.yul\":4693:4811   */\n      pop\n        /* \"#utility.yul\":4850:4852   */\n      0x40\n        /* \"#utility.yul\":4876:4929   */\n      tag_245\n        /* \"#utility.yul\":4921:4928   */\n      dup12\n        /* \"#utility.yul\":4912:4918   */\n      dup3\n        /* \"#utility.yul\":4901:4910   */\n      dup13\n        /* \"#utility.yul\":4897:4919   */\n      add\n        /* \"#utility.yul\":4876:4929   */\n      tag_169\n      jump\t// in\n    tag_245:\n        /* \"#utility.yul\":4866:4929   */\n      swap7\n      pop\n        /* \"#utility.yul\":4821:4939   */\n      pop\n        /* \"#utility.yul\":4978:4980   */\n      0x60\n        /* \"#utility.yul\":5004:5057   */\n      tag_246\n        /* \"#utility.yul\":5049:5056   */\n      dup12\n        /* \"#utility.yul\":5040:5046   */\n      dup3\n        /* \"#utility.yul\":5029:5038   */\n      dup13\n        /* \"#utility.yul\":5025:5047   */\n      add\n        /* \"#utility.yul\":5004:5057   */\n      tag_169\n      jump\t// in\n    tag_246:\n        /* \"#utility.yul\":4994:5057   */\n      swap6\n      pop\n        /* \"#utility.yul\":4949:5067   */\n      pop\n        /* \"#utility.yul\":5106:5109   */\n      0x80\n        /* \"#utility.yul\":5133:5186   */\n      tag_247\n        /* \"#utility.yul\":5178:5185   */\n      dup12\n        /* \"#utility.yul\":5169:5175   */\n      dup3\n        /* \"#utility.yul\":5158:5167   */\n      dup13\n        /* \"#utility.yul\":5154:5176   */\n      add\n        /* \"#utility.yul\":5133:5186   */\n      tag_169\n      jump\t// in\n    tag_247:\n        /* \"#utility.yul\":5123:5186   */\n      swap5\n      pop\n        /* \"#utility.yul\":5077:5196   */\n      pop\n        /* \"#utility.yul\":5235:5238   */\n      0xa0\n        /* \"#utility.yul\":5262:5315   */\n      tag_248\n        /* \"#utility.yul\":5307:5314   */\n      dup12\n        /* \"#utility.yul\":5298:5304   */\n      dup3\n        /* \"#utility.yul\":5287:5296   */\n      dup13\n        /* \"#utility.yul\":5283:5305   */\n      add\n        /* \"#utility.yul\":5262:5315   */\n      tag_169\n      jump\t// in\n    tag_248:\n        /* \"#utility.yul\":5252:5315   */\n      swap4\n      pop\n        /* \"#utility.yul\":5206:5325   */\n      pop\n        /* \"#utility.yul\":5364:5367   */\n      0xc0\n        /* \"#utility.yul\":5391:5444   */\n      tag_249\n        /* \"#utility.yul\":5436:5443   */\n      dup12\n        /* \"#utility.yul\":5427:5433   */\n      dup3\n        /* \"#utility.yul\":5416:5425   */\n      dup13\n        /* \"#utility.yul\":5412:5434   */\n      add\n        /* \"#utility.yul\":5391:5444   */\n      tag_169\n      jump\t// in\n    tag_249:\n        /* \"#utility.yul\":5381:5444   */\n      swap3\n      pop\n        /* \"#utility.yul\":5335:5454   */\n      pop\n        /* \"#utility.yul\":5493:5496   */\n      0xe0\n        /* \"#utility.yul\":5520:5573   */\n      tag_250\n        /* \"#utility.yul\":5565:5572   */\n      dup12\n        /* \"#utility.yul\":5556:5562   */\n      dup3\n        /* \"#utility.yul\":5545:5554   */\n      dup13\n        /* \"#utility.yul\":5541:5563   */\n      add\n        /* \"#utility.yul\":5520:5573   */\n      tag_169\n      jump\t// in\n    tag_250:\n        /* \"#utility.yul\":5510:5573   */\n      swap2\n      pop\n        /* \"#utility.yul\":5464:5583   */\n      pop\n        /* \"#utility.yul\":4241:5590   */\n      swap3\n      swap6\n      swap9\n      pop\n      swap3\n      swap6\n      swap9\n      swap1\n      swap4\n      swap7\n      pop\n      jump\t// out\n        /* \"#utility.yul\":5596:5925   */\n    tag_60:\n        /* \"#utility.yul\":5655:5661   */\n      0x00\n        /* \"#utility.yul\":5704:5706   */\n      0x20\n        /* \"#utility.yul\":5692:5701   */\n      dup3\n        /* \"#utility.yul\":5683:5690   */\n      dup5\n        /* \"#utility.yul\":5679:5702   */\n      sub\n        /* \"#utility.yul\":5675:5707   */\n      slt\n        /* \"#utility.yul\":5672:5791   */\n      iszero\n      tag_252\n      jumpi\n        /* \"#utility.yul\":5710:5789   */\n      tag_253\n      tag_165\n      jump\t// in\n    tag_253:\n        /* \"#utility.yul\":5672:5791   */\n    tag_252:\n        /* \"#utility.yul\":5830:5831   */\n      0x00\n        /* \"#utility.yul\":5855:5908   */\n      tag_254\n        /* \"#utility.yul\":5900:5907   */\n      dup5\n        /* \"#utility.yul\":5891:5897   */\n      dup3\n        /* \"#utility.yul\":5880:5889   */\n      dup6\n        /* \"#utility.yul\":5876:5898   */\n      add\n        /* \"#utility.yul\":5855:5908   */\n      tag_173\n      jump\t// in\n    tag_254:\n        /* \"#utility.yul\":5845:5908   */\n      swap2\n      pop\n        /* \"#utility.yul\":5801:5918   */\n      pop\n        /* \"#utility.yul\":5596:5925   */\n      swap3\n      swap2\n      pop\n      pop\n      jump\t// out\n        /* \"#utility.yul\":5931:6111   */\n    tag_178:\n        /* \"#utility.yul\":5979:6056   */\n      0x4e487b7100000000000000000000000000000000000000000000000000000000\n        /* \"#utility.yul\":5976:5977   */\n      0x00\n        /* \"#utility.yul\":5969:6057   */\n      mstore\n        /* \"#utility.yul\":6076:6080   */\n      0x11\n        /* \"#utility.yul\":6073:6074   */\n      0x04\n        /* \"#utility.yul\":6066:6081   */\n      mstore\n        /* \"#utility.yul\":6100:6104   */\n      0x24\n        /* \"#utility.yul\":6097:6098   */\n      0x00\n        /* \"#utility.yul\":6090:6105   */\n      revert\n        /* \"#utility.yul\":6117:6308   */\n    tag_77:\n        /* \"#utility.yul\":6157:6160   */\n      0x00\n        /* \"#utility.yul\":6176:6196   */\n      tag_257\n        /* \"#utility.yul\":6194:6195   */\n      dup3\n        /* \"#utility.yul\":6176:6196   */\n      tag_167\n      jump\t// in\n    tag_257:\n        /* \"#utility.yul\":6171:6196   */\n      swap2\n      pop\n        /* \"#utility.yul\":6210:6230   */\n      tag_258\n        /* \"#utility.yul\":6228:6229   */\n      dup4\n        /* \"#utility.yul\":6210:6230   */\n      tag_167\n      jump\t// in\n    tag_258:\n        /* \"#utility.yul\":6205:6230   */\n      swap3\n      pop\n        /* \"#utility.yul\":6253:6254   */\n      dup3\n        /* \"#utility.yul\":6250:6251   */\n      dup3\n        /* \"#utility.yul\":6246:6255   */\n      add\n        /* \"#utility.yul\":6239:6255   */\n      swap1\n      pop\n        /* \"#utility.yul\":6274:6277   */\n      dup1\n        /* \"#utility.yul\":6271:6272   */\n      dup3\n        /* \"#utility.yul\":6268:6278   */\n      gt\n        /* \"#utility.yul\":6265:6301   */\n      iszero\n      tag_259\n      jumpi\n        /* \"#utility.yul\":6281:6299   */\n      tag_260\n      tag_178\n      jump\t// in\n    tag_260:\n        /* \"#utility.yul\":6265:6301   */\n    tag_259:\n        /* \"#utility.yul\":6117:6308   */\n      swap3\n      swap2\n      pop\n      pop\n      jump\t// out\n        /* \"#utility.yul\":6314:6508   */\n    tag_83:\n        /* \"#utility.yul\":6354:6358   */\n      0x00\n        /* \"#utility.yul\":6374:6394   */\n      tag_262\n        /* \"#utility.yul\":6392:6393   */\n      dup3\n        /* \"#utility.yul\":6374:6394   */\n      tag_167\n      jump\t// in\n    tag_262:\n        /* \"#utility.yul\":6369:6394   */\n      swap2\n      pop\n        /* \"#utility.yul\":6408:6428   */\n      tag_263\n        /* \"#utility.yul\":6426:6427   */\n      dup4\n        /* \"#utility.yul\":6408:6428   */\n      tag_167\n      jump\t// in\n    tag_263:\n        /* \"#utility.yul\":6403:6428   */\n      swap3\n      pop\n        /* \"#utility.yul\":6452:6453   */\n      dup3\n        /* \"#utility.yul\":6449:6450   */\n      dup3\n        /* \"#utility.yul\":6445:6454   */\n      sub\n        /* \"#utility.yul\":6437:6454   */\n      swap1\n      pop\n        /* \"#utility.yul\":6476:6477   */\n      dup2\n        /* \"#utility.yul\":6470:6474   */\n      dup2\n        /* \"#utility.yul\":6467:6478   */\n      gt\n        /* \"#utility.yul\":6464:6501   */\n      iszero\n      tag_264\n      jumpi\n        /* \"#utility.yul\":6481:6499   */\n      tag_265\n      tag_178\n      jump\t// in\n    tag_265:\n        /* \"#utility.yul\":6464:6501   */\n    tag_264:\n        /* \"#utility.yul\":6314:6508   */\n      swap3\n      swap2\n      pop\n      pop\n      jump\t// out\n        /* \"#utility.yul\":6514:6683   */\n    tag_179:\n        /* \"#utility.yul\":6598:6609   */\n      0x00\n        /* \"#utility.yul\":6632:6638   */\n      dup3\n        /* \"#utility.yul\":6627:6630   */\n      dup3\n        /* \"#utility.yul\":6620:6639   */\n      mstore\n        /* \"#utility.yul\":6672:6676   */\n      0x20\n        /* \"#utility.yul\":6667:6670   */\n      dup3\n        /* \"#utility.yul\":6663:6677   */\n      add\n        /* \"#utility.yul\":6648:6677   */\n      swap1\n      pop\n        /* \"#utility.yul\":6514:6683   */\n      swap3\n      swap2\n      pop\n      pop\n      jump\t// out\n        /* \"#utility.yul\":6689:6846   */\n    tag_180:\n        /* \"#utility.yul\":6829:6838   */\n      0x544f4f5f4c4f5700000000000000000000000000000000000000000000000000\n        /* \"#utility.yul\":6825:6826   */\n      0x00\n        /* \"#utility.yul\":6817:6823   */\n      dup3\n        /* \"#utility.yul\":6813:6827   */\n      add\n        /* \"#utility.yul\":6806:6839   */\n      mstore\n        /* \"#utility.yul\":6689:6846   */\n      pop\n      jump\t// out\n        /* \"#utility.yul\":6852:7217   */\n    tag_181:\n        /* \"#utility.yul\":6994:6997   */\n      0x00\n        /* \"#utility.yul\":7015:7081   */\n      tag_269\n        /* \"#utility.yul\":7079:7080   */\n      0x07\n        /* \"#utility.yul\":7074:7077   */\n      dup4\n        /* \"#utility.yul\":7015:7081   */\n      tag_179\n      jump\t// in\n    tag_269:\n        /* \"#utility.yul\":7008:7081   */\n      swap2\n      pop\n        /* \"#utility.yul\":7090:7183   */\n      tag_270\n        /* \"#utility.yul\":7179:7182   */\n      dup3\n        /* \"#utility.yul\":7090:7183   */\n      tag_180\n      jump\t// in\n    tag_270:\n        /* \"#utility.yul\":7208:7210   */\n      0x20\n        /* \"#utility.yul\":7203:7206   */\n      dup3\n        /* \"#utility.yul\":7199:7211   */\n      add\n        /* \"#utility.yul\":7192:7211   */\n      swap1\n      pop\n        /* \"#utility.yul\":6852:7217   */\n      swap2\n      swap1\n      pop\n      jump\t// out\n        /* \"#utility.yul\":7223:7642   */\n    tag_100:\n        /* \"#utility.yul\":7389:7393   */\n      0x00\n        /* \"#utility.yul\":7427:7429   */\n      0x20\n        /* \"#utility.yul\":7416:7425   */\n      dup3\n        /* \"#utility.yul\":7412:7430   */\n      add\n        /* \"#utility.yul\":7404:7430   */\n      swap1\n      pop\n        /* \"#utility.yul\":7476:7485   */\n      dup2\n        /* \"#utility.yul\":7470:7474   */\n      dup2\n        /* \"#utility.yul\":7466:7486   */\n      sub\n        /* \"#utility.yul\":7462:7463   */\n      0x00\n        /* \"#utility.yul\":7451:7460   */\n      dup4\n        /* \"#utility.yul\":7447:7464   */\n      add\n        /* \"#utility.yul\":7440:7487   */\n      mstore\n        /* \"#utility.yul\":7504:7635   */\n      tag_272\n        /* \"#utility.yul\":7630:7634   */\n      dup2\n        /* \"#utility.yul\":7504:7635   */\n      tag_181\n      jump\t// in\n    tag_272:\n        /* \"#utility.yul\":7496:7635   */\n      swap1\n      pop\n        /* \"#utility.yul\":7223:7642   */\n      swap2\n      swap1\n      pop\n      jump\t// out\n        /* \"#utility.yul\":7648:7806   */\n    tag_182:\n        /* \"#utility.yul\":7788:7798   */\n      0x544f4f5f48494748000000000000000000000000000000000000000000000000\n        /* \"#utility.yul\":7784:7785   */\n      0x00\n        /* \"#utility.yul\":7776:7782   */\n      dup3\n        /* \"#utility.yul\":7772:7786   */\n      add\n        /* \"#utility.yul\":7765:7799   */\n      mstore\n        /* \"#utility.yul\":7648:7806   */\n      pop\n      jump\t// out\n        /* \"#utility.yul\":7812:8177   */\n    tag_183:\n        /* \"#utility.yul\":7954:7957   */\n      0x00\n        /* \"#utility.yul\":7975:8041   */\n      tag_275\n        /* \"#utility.yul\":8039:8040   */\n      0x08\n        /* \"#utility.yul\":8034:8037   */\n      dup4\n        /* \"#utility.yul\":7975:8041   */\n      tag_179\n      jump\t// in\n    tag_275:\n        /* \"#utility.yul\":7968:8041   */\n      swap2\n      pop\n        /* \"#utility.yul\":8050:8143   */\n      tag_276\n        /* \"#utility.yul\":8139:8142   */\n      dup3\n        /* \"#utility.yul\":8050:8143   */\n      tag_182\n      jump\t// in\n    tag_276:\n        /* \"#utility.yul\":8168:8170   */\n      0x20\n        /* \"#utility.yul\":8163:8166   */\n      dup3\n        /* \"#utility.yul\":8159:8171   */\n      add\n        /* \"#utility.yul\":8152:8171   */\n      swap1\n      pop\n        /* \"#utility.yul\":7812:8177   */\n      swap2\n      swap1\n      pop\n      jump\t// out\n        /* \"#utility.yul\":8183:8602   */\n    tag_104:\n        /* \"#utility.yul\":8349:8353   */\n      0x00\n        /* \"#utility.yul\":8387:8389   */\n      0x20\n        /* \"#utility.yul\":8376:8385   */\n      dup3\n        /* \"#utility.yul\":8372:8390   */\n      add\n        /* \"#utility.yul\":8364:8390   */\n      swap1\n      pop\n        /* \"#utility.yul\":8436:8445   */\n      dup2\n        /* \"#utility.yul\":8430:8434   */\n      dup2\n        /* \"#utility.yul\":8426:8446   */\n      sub\n        /* \"#utility.yul\":8422:8423   */\n      0x00\n        /* \"#utility.yul\":8411:8420   */\n      dup4\n        /* \"#utility.yul\":8407:8424   */\n      add\n        /* \"#utility.yul\":8400:8447   */\n      mstore\n        /* \"#utility.yul\":8464:8595   */\n      tag_278\n        /* \"#utility.yul\":8590:8594   */\n      dup2\n        /* \"#utility.yul\":8464:8595   */\n      tag_183\n      jump\t// in\n    tag_278:\n        /* \"#utility.yul\":8456:8595   */\n      swap1\n      pop\n        /* \"#utility.yul\":8183:8602   */\n      swap2\n      swap1\n      pop\n      jump\t// out\n        /* \"#utility.yul\":8608:8841   */\n    tag_106:\n        /* \"#utility.yul\":8647:8650   */\n      0x00\n        /* \"#utility.yul\":8670:8694   */\n      tag_280\n        /* \"#utility.yul\":8688:8693   */\n      dup3\n        /* \"#utility.yul\":8670:8694   */\n      tag_167\n      jump\t// in\n    tag_280:\n        /* \"#utility.yul\":8661:8694   */\n      swap2\n      pop\n        /* \"#utility.yul\":8716:8782   */\n      0xffffffffffffffffffffffffffffffffffffffffffffffffffffffffffffffff\n        /* \"#utility.yul\":8709:8714   */\n      dup3\n        /* \"#utility.yul\":8706:8783   */\n      sub\n        /* \"#utility.yul\":8703:8806   */\n      tag_281\n      jumpi\n        /* \"#utility.yul\":8786:8804   */\n      tag_282\n      tag_178\n      jump\t// in\n    tag_282:\n        /* \"#utility.yul\":8703:8806   */\n    tag_281:\n        /* \"#utility.yul\":8833:8834   */\n      0x01\n        /* \"#utility.yul\":8826:8831   */\n      dup3\n        /* \"#utility.yul\":8822:8835   */\n      add\n        /* \"#utility.yul\":8815:8835   */\n      swap1\n      pop\n        /* \"#utility.yul\":8608:8841   */\n      swap2\n      swap1\n      pop\n      jump\t// out\n        /* \"#utility.yul\":8847:9289   */\n    tag_108:\n        /* \"#utility.yul\":8996:9000   */\n      0x00\n        /* \"#utility.yul\":9034:9036   */\n      0x60\n        /* \"#utility.yul\":9023:9032   */\n      dup3\n        /* \"#utility.yul\":9019:9037   */\n      add\n        /* \"#utility.yul\":9011:9037   */\n      swap1\n      pop\n        /* \"#utility.yul\":9047:9118   */\n      tag_284\n        /* \"#utility.yul\":9115:9116   */\n      0x00\n        /* \"#utility.yul\":9104:9113   */\n      dup4\n        /* \"#utility.yul\":9100:9117   */\n      add\n        /* \"#utility.yul\":9091:9097   */\n      dup7\n        /* \"#utility.yul\":9047:9118   */\n      tag_175\n      jump\t// in\n    tag_284:\n        /* \"#utility.yul\":9128:9200   */\n      tag_285\n        /* \"#utility.yul\":9196:9198   */\n      0x20\n        /* \"#utility.yul\":9185:9194   */\n      dup4\n        /* \"#utility.yul\":9181:9199   */\n      add\n        /* \"#utility.yul\":9172:9178   */\n      dup6\n        /* \"#utility.yul\":9128:9200   */\n      tag_175\n      jump\t// in\n    tag_285:\n        /* \"#utility.yul\":9210:9282   */\n      tag_286\n        /* \"#utility.yul\":9278:9280   */\n      0x40\n        /* \"#utility.yul\":9267:9276   */\n      dup4\n        /* \"#utility.yul\":9263:9281   */\n      add\n        /* \"#utility.yul\":9254:9260   */\n      dup5\n        /* \"#utility.yul\":9210:9282   */\n      tag_174\n      jump\t// in\n    tag_286:\n        /* \"#utility.yul\":8847:9289   */\n      swap5\n      swap4\n      pop\n      pop\n      pop\n      pop\n      jump\t// out\n        /* \"#utility.yul\":9295:9475   */\n    tag_184:\n        /* \"#utility.yul\":9343:9420   */\n      0x4e487b7100000000000000000000000000000000000000000000000000000000\n        /* \"#utility.yul\":9340:9341   */\n      0x00\n        /* \"#utility.yul\":9333:9421   */\n      mstore\n        /* \"#utility.yul\":9440:9444   */\n      0x12\n        /* \"#utility.yul\":9437:9438   */\n      0x04\n        /* \"#utility.yul\":9430:9445   */\n      mstore\n        /* \"#utility.yul\":9464:9468   */\n      0x24\n        /* \"#utility.yul\":9461:9462   */\n      0x00\n        /* \"#utility.yul\":9454:9469   */\n      revert\n        /* \"#utility.yul\":9481:9666   */\n    tag_119:\n        /* \"#utility.yul\":9521:9522   */\n      0x00\n        /* \"#utility.yul\":9538:9558   */\n      tag_289\n        /* \"#utility.yul\":9556:9557   */\n      dup3\n        /* \"#utility.yul\":9538:9558   */\n      tag_167\n      jump\t// in\n    tag_289:\n        /* \"#utility.yul\":9533:9558   */\n      swap2\n      pop\n        /* \"#utility.yul\":9572:9592   */\n      tag_290\n        /* \"#utility.yul\":9590:9591   */\n      dup4\n        /* \"#utility.yul\":9572:9592   */\n      tag_167\n      jump\t// in\n    tag_290:\n        /* \"#utility.yul\":9567:9592   */\n      swap3\n      pop\n        /* \"#utility.yul\":9611:9612   */\n      dup3\n        /* \"#utility.yul\":9601:9636   */\n      tag_291\n      jumpi\n        /* \"#utility.yul\":9616:9634   */\n      tag_292\n      tag_184\n      jump\t// in\n    tag_292:\n        /* \"#utility.yul\":9601:9636   */\n    tag_291:\n        /* \"#utility.yul\":9658:9659   */\n      dup3\n        /* \"#utility.yul\":9655:9656   */\n      dup3\n        /* \"#utility.yul\":9651:9660   */\n      div\n        /* \"#utility.yul\":9646:9660   */\n      swap1\n      pop\n        /* \"#utility.yul\":9481:9666   */\n      swap3\n      swap2\n      pop\n      pop\n      jump\t// out\n        /* \"#utility.yul\":9672:10004   */\n    tag_126:\n        /* \"#utility.yul\":9793:9797   */\n      0x00\n        /* \"#utility.yul\":9831:9833   */\n      0x40\n        /* \"#utility.yul\":9820:9829   */\n      dup3\n        /* \"#utility.yul\":9816:9834   */\n      add\n        /* \"#utility.yul\":9808:9834   */\n      swap1\n      pop\n        /* \"#utility.yul\":9844:9915   */\n      tag_294\n        /* \"#utility.yul\":9912:9913   */\n      0x00\n        /* \"#utility.yul\":9901:9910   */\n      dup4\n        /* \"#utility.yul\":9897:9914   */\n      add\n        /* \"#utility.yul\":9888:9894   */\n      dup6\n        /* \"#utility.yul\":9844:9915   */\n      tag_174\n      jump\t// in\n    tag_294:\n        /* \"#utility.yul\":9925:9997   */\n      tag_295\n        /* \"#utility.yul\":9993:9995   */\n      0x20\n        /* \"#utility.yul\":9982:9991   */\n      dup4\n        /* \"#utility.yul\":9978:9996   */\n      add\n        /* \"#utility.yul\":9969:9975   */\n      dup5\n        /* \"#utility.yul\":9925:9997   */\n      tag_174\n      jump\t// in\n    tag_295:\n        /* \"#utility.yul\":9672:10004   */\n      swap4\n      swap3\n      pop\n      pop\n      pop\n      jump\t// out\n        /* \"#utility.yul\":10010:10157   */\n    tag_185:\n        /* \"#utility.yul\":10111:10122   */\n      0x00\n        /* \"#utility.yul\":10148:10151   */\n      dup2\n        /* \"#utility.yul\":10133:10151   */\n      swap1\n      pop\n        /* \"#utility.yul\":10010:10157   */\n      swap3\n      swap2\n      pop\n      pop\n      jump\t// out\n        /* \"#utility.yul\":10163:10277   */\n    tag_186:\n      pop\n      jump\t// out\n        /* \"#utility.yul\":10283:10681   */\n    tag_187:\n        /* \"#utility.yul\":10442:10445   */\n      0x00\n        /* \"#utility.yul\":10463:10546   */\n      tag_299\n        /* \"#utility.yul\":10544:10545   */\n      0x00\n        /* \"#utility.yul\":10539:10542   */\n      dup4\n        /* \"#utility.yul\":10463:10546   */\n      tag_185\n      jump\t// in\n    tag_299:\n        /* \"#utility.yul\":10456:10546   */\n      swap2\n      pop\n        /* \"#utility.yul\":10555:10648   */\n      tag_300\n        /* \"#utility.yul\":10644:10647   */\n      dup3\n        /* \"#utility.yul\":10555:10648   */\n      tag_186\n      jump\t// in\n    tag_300:\n        /* \"#utility.yul\":10673:10674   */\n      0x00\n        /* \"#utility.yul\":10668:10671   */\n      dup3\n        /* \"#utility.yul\":10664:10675   */\n      add\n        /* \"#utility.yul\":10657:10675   */\n      swap1\n      pop\n        /* \"#utility.yul\":10283:10681   */\n      swap2\n      swap1\n      pop\n      jump\t// out\n        /* \"#utility.yul\":10687:11066   */\n    tag_148:\n        /* \"#utility.yul\":10871:10874   */\n      0x00\n        /* \"#utility.yul\":10893:11040   */\n      tag_302\n        /* \"#utility.yul\":11036:11039   */\n      dup3\n        /* \"#utility.yul\":10893:11040   */\n      tag_187\n      jump\t// in\n    tag_302:\n        /* \"#utility.yul\":10886:11040   */\n      swap2\n      pop\n        /* \"#utility.yul\":11057:11060   */\n      dup2\n        /* \"#utility.yul\":11050:11060   */\n      swap1\n      pop\n        /* \"#utility.yul\":10687:11066   */\n      swap2\n      swap1\n      pop\n      jump\t// out\n        /* \"#utility.yul\":11072:11242   */\n    tag_188:\n        /* \"#utility.yul\":11212:11234   */\n      0x4661696c656420746f2073656e64204574686572000000000000000000000000\n        /* \"#utility.yul\":11208:11209   */\n      0x00\n        /* \"#utility.yul\":11200:11206   */\n      dup3\n        /* \"#utility.yul\":11196:11210   */\n      add\n        /* \"#utility.yul\":11189:11235   */\n      mstore\n        /* \"#utility.yul\":11072:11242   */\n      pop\n      jump\t// out\n        /* \"#utility.yul\":11248:11614   */\n    tag_189:\n        /* \"#utility.yul\":11390:11393   */\n      0x00\n        /* \"#utility.yul\":11411:11478   */\n      tag_305\n        /* \"#utility.yul\":11475:11477   */\n      0x14\n        /* \"#utility.yul\":11470:11473   */\n      dup4\n        /* \"#utility.yul\":11411:11478   */\n      tag_179\n      jump\t// in\n    tag_305:\n        /* \"#utility.yul\":11404:11478   */\n      swap2\n      pop\n        /* \"#utility.yul\":11487:11580   */\n      tag_306\n        /* \"#utility.yul\":11576:11579   */\n      dup3\n        /* \"#utility.yul\":11487:11580   */\n      tag_188\n      jump\t// in\n    tag_306:\n        /* \"#utility.yul\":11605:11607   */\n      0x20\n        /* \"#utility.yul\":11600:11603   */\n      dup3\n        /* \"#utility.yul\":11596:11608   */\n      add\n        /* \"#utility.yul\":11589:11608   */\n      swap1\n      pop\n        /* \"#utility.yul\":11248:11614   */\n      swap2\n      swap1\n      pop\n      jump\t// out\n        /* \"#utility.yul\":11620:12039   */\n    tag_154:\n        /* \"#utility.yul\":11786:11790   */\n      0x00\n        /* \"#utility.yul\":11824:11826   */\n      0x20\n        /* \"#utility.yul\":11813:11822   */\n      dup3\n        /* \"#utility.yul\":11809:11827   */\n      add\n        /* \"#utility.yul\":11801:11827   */\n      swap1\n      pop\n        /* \"#utility.yul\":11873:11882   */\n      dup2\n        /* \"#utility.yul\":11867:11871   */\n      dup2\n        /* \"#utility.yul\":11863:11883   */\n      sub\n        /* \"#utility.yul\":11859:11860   */\n      0x00\n        /* \"#utility.yul\":11848:11857   */\n      dup4\n        /* \"#utility.yul\":11844:11861   */\n      add\n        /* \"#utility.yul\":11837:11884   */\n      mstore\n        /* \"#utility.yul\":11901:12032   */\n      tag_308\n        /* \"#utility.yul\":12027:12031   */\n      dup2\n        /* \"#utility.yul\":11901:12032   */\n      tag_189\n      jump\t// in\n    tag_308:\n        /* \"#utility.yul\":11893:12032   */\n      swap1\n      pop\n        /* \"#utility.yul\":11620:12039   */\n      swap2\n      swap1\n      pop\n      jump\t// out\n\n    auxdata: 0xa2646970667358221220b65e85e88c3838d97a99757a1bc943c5e8e1f6ca34b2d0f45916e456d6a0deea64736f6c63430008190033\n}\n",
				"bytecode": {
					"linkReferences": {},
					"object": "608060405262015180600155624f1a0060025534801561001d575f80fd5b50335f73ffffffffffffffffffffffffffffffffffffffff168173ffffffffffffffffffffffffffffffffffffffff160361008f575f6040517f1e4fbdf700000000000000000000000000000000000000000000000000000000815260040161008691906101a4565b60405180910390fd5b61009e816100a460201b60201c565b506101bd565b5f805f9054906101000a900473ffffffffffffffffffffffffffffffffffffffff169050815f806101000a81548173ffffffffffffffffffffffffffffffffffffffff021916908373ffffffffffffffffffffffffffffffffffffffff1602179055508173ffffffffffffffffffffffffffffffffffffffff168173ffffffffffffffffffffffffffffffffffffffff167f8be0079c531659141344cd1fd0a4f28419497f9722a3daafe3b4186f6b6457e060405160405180910390a35050565b5f73ffffffffffffffffffffffffffffffffffffffff82169050919050565b5f61018e82610165565b9050919050565b61019e81610184565b82525050565b5f6020820190506101b75f830184610195565b92915050565b611aef806101ca5f395ff3fe60806040526004361061009b575f3560e01c806377484aae1161006357806377484aae1461017b5780638da5cb5b146101b757806398ecfdac146101e1578063ae169a5014610209578063f2fde38b14610231578063fe5c873a146102595761009b565b8063211130571461009f5780633f1ffcec146100c7578063454a2ab314610103578063571a26a01461011f578063715018a614610165575b5f80fd5b3480156100aa575f80fd5b506100c560048036038101906100c091906114eb565b610281565b005b3480156100d2575f80fd5b506100ed60048036038101906100e89190611570565b610468565b6040516100fa91906115bd565b60405180910390f35b61011d600480360381019061011891906114eb565b610488565b005b34801561012a575f80fd5b50610145600480360381019061014091906114eb565b610834565b60405161015c9b9a999897969594939291906115ff565b60405180910390f35b348015610170575f80fd5b506101796108e2565b005b348015610186575f80fd5b506101a1600480360381019061019c91906114eb565b6108f5565b6040516101ae91906116a8565b60405180910390f35b3480156101c2575f80fd5b506101cb610925565b6040516101d891906116a8565b60405180910390f35b3480156101ec575f80fd5b50610207600480360381019061020291906116c1565b61094c565b005b348015610214575f80fd5b5061022f600480360381019061022a91906114eb565b610c90565b005b34801561023c575f80fd5b5061025760048036038101906102529190611772565b610f19565b005b348015610264575f80fd5b5061027f600480360381019061027a91906114eb565b610f9d565b005b5f60055f8381526020019081526020015f205f3373ffffffffffffffffffffffffffffffffffffffff1673ffffffffffffffffffffffffffffffffffffffff1681526020019081526020015f205490503373ffffffffffffffffffffffffffffffffffffffff1660065f8481526020019081526020015f205f9054906101000a900473ffffffffffffffffffffffffffffffffffffffff1673ffffffffffffffffffffffffffffffffffffffff1603610366576040517f996657af00000000000000000000000000000000000000000000000000000000815260040160405180910390fd5b5f60055f8481526020019081526020015f205f3373ffffffffffffffffffffffffffffffffffffffff1673ffffffffffffffffffffffffffffffffffffffff1681526020019081526020015f205414610415575f60055f8481526020019081526020015f205f3373ffffffffffffffffffffffffffffffffffffffff1673ffffffffffffffffffffffffffffffffffffffff1681526020019081526020015f208190555061041433826112b8565b5b3373ffffffffffffffffffffffffffffffffffffffff16827fe68daa9f0be9a647eb4b9d00ba8932ad8171b86ec8cd767d14fd2ae946af3d218360405161045c91906115bd565b60405180910390a35050565b6005602052815f5260405f20602052805f5260405f205f91509150505481565b5f60045f8381526020019081526020015f2090505f73ffffffffffffffffffffffffffffffffffffffff16816001015f9054906101000a900473ffffffffffffffffffffffffffffffffffffffff1673ffffffffffffffffffffffffffffffffffffffff1603610524576040517f8de42eab00000000000000000000000000000000000000000000000000000000815260040160405180910390fd5b80600301544210806105395750806004015442115b15610570576040517f7bcb4fdf00000000000000000000000000000000000000000000000000000000815260040160405180910390fd5b5f3460055f8581526020019081526020015f205f3373ffffffffffffffffffffffffffffffffffffffff1673ffffffffffffffffffffffffffffffffffffffff1681526020019081526020015f20546105c991906117ca565b905081600201548110806106cf57505f73ffffffffffffffffffffffffffffffffffffffff1660065f8581526020019081526020015f205f9054906101000a900473ffffffffffffffffffffffffffffffffffffffff1673ffffffffffffffffffffffffffffffffffffffff16141580156106ce5750816005015460055f8581526020019081526020015f205f60065f8781526020019081526020015f205f9054906101000a900473ffffffffffffffffffffffffffffffffffffffff1673ffffffffffffffffffffffffffffffffffffffff1673ffffffffffffffffffffffffffffffffffffffff1681526020019081526020015f20546106cb91906117ca565b81105b5b15610706576040517f918678cb00000000000000000000000000000000000000000000000000000000815260040160405180910390fd5b8160060154826004015461071a91906117fd565b421115610740578160070154826004015f82825461073891906117ca565b925050819055505b8060055f8581526020019081526020015f205f3373ffffffffffffffffffffffffffffffffffffffff1673ffffffffffffffffffffffffffffffffffffffff1681526020019081526020015f20819055503360065f8581526020019081526020015f205f6101000a81548173ffffffffffffffffffffffffffffffffffffffff021916908373ffffffffffffffffffffffffffffffffffffffff1602179055503373ffffffffffffffffffffffffffffffffffffffff16837f558a0d5d5468d74b0db24c74eb348b42271c2ebb4c9e953ced38aaed95fa43618360405161082791906115bd565b60405180910390a3505050565b6004602052805f5260405f205f91509050805f015490806001015f9054906101000a900473ffffffffffffffffffffffffffffffffffffffff1690806002015490806003015490806004015490806005015490806006015490806007015490806008015f9054906101000a900473ffffffffffffffffffffffffffffffffffffffff16908060080160149054906101000a900460ff16908060080160159054906101000a900460ff1690508b565b6108ea611365565b6108f35f6113ec565b565b6006602052805f5260405f205f915054906101000a900473ffffffffffffffffffffffffffffffffffffffff1681565b5f805f9054906101000a900473ffffffffffffffffffffffffffffffffffffffff16905090565b5f8603610985576040517f1e1d0ab500000000000000000000000000000000000000000000000000000000815260040160405180910390fd5b428510156109bf576040517fb290253c00000000000000000000000000000000000000000000000000000000815260040160405180910390fd5b600154856109cd91906117ca565b841015610a0f576040517fe38cffaa000000000000000000000000000000000000000000000000000000008152600401610a069061188a565b60405180910390fd5b60025485610a1d91906117ca565b841115610a5f576040517fe38cffaa000000000000000000000000000000000000000000000000000000008152600401610a56906118f2565b60405180910390fd5b5f60035f815480929190610a7290611910565b9190505590506040518061016001604052808a81526020018973ffffffffffffffffffffffffffffffffffffffff1681526020018881526020018781526020018681526020018581526020018481526020018381526020013373ffffffffffffffffffffffffffffffffffffffff1681526020015f151581526020015f151581525060045f8381526020019081526020015f205f820151815f01556020820151816001015f6101000a81548173ffffffffffffffffffffffffffffffffffffffff021916908373ffffffffffffffffffffffffffffffffffffffff16021790555060408201518160020155606082015181600301556080820151816004015560a0820151816005015560c0820151816006015560e08201518160070155610100820151816008015f6101000a81548173ffffffffffffffffffffffffffffffffffffffff021916908373ffffffffffffffffffffffffffffffffffffffff1602179055506101208201518160080160146101000a81548160ff0219169083151502179055506101408201518160080160156101000a81548160ff0219169083151502179055509050508773ffffffffffffffffffffffffffffffffffffffff166323b872dd33308c6040518463ffffffff1660e01b8152600401610c5893929190611957565b5f604051808303815f87803b158015610c6f575f80fd5b505af1158015610c81573d5f803e3d5ffd5b50505050505050505050505050565b8060045f8281526020019081526020015f20600401544211610cde576040517fd10fc83e00000000000000000000000000000000000000000000000000000000815260040160405180910390fd5b5f60055f8481526020019081526020015f205f60065f8681526020019081526020015f205f9054906101000a900473ffffffffffffffffffffffffffffffffffffffff1673ffffffffffffffffffffffffffffffffffffffff1673ffffffffffffffffffffffffffffffffffffffff1681526020019081526020015f205490505f8103610d97576040517f8b9ae95f00000000000000000000000000000000000000000000000000000000815260040160405180910390fd5b5f60045f8581526020019081526020015f2090508060080160159054906101000a900460ff1615610df4576040517f646cf55800000000000000000000000000000000000000000000000000000000815260040160405180910390fd5b806008015f9054906101000a900473ffffffffffffffffffffffffffffffffffffffff1673ffffffffffffffffffffffffffffffffffffffff163373ffffffffffffffffffffffffffffffffffffffff1614610e7c576040517f5ec8235100000000000000000000000000000000000000000000000000000000815260040160405180910390fd5b60018160080160156101000a81548160ff0219169083151502179055505f606483610ea791906119b9565b90505f811115610ec357610ec2610ebc610925565b826112b8565b5b610ed8338285610ed391906117fd565b6112b8565b847f64bc8e516eb66c9bd33c0d0f80b0e16a5bac9eb2bce20d6fdf7698a0d7ab6eba8483604051610f0a9291906119e9565b60405180910390a25050505050565b610f21611365565b5f73ffffffffffffffffffffffffffffffffffffffff168173ffffffffffffffffffffffffffffffffffffffff1603610f91575f6040517f1e4fbdf7000000000000000000000000000000000000000000000000000000008152600401610f8891906116a8565b60405180910390fd5b610f9a816113ec565b50565b8060045f8281526020019081526020015f20600401544211610feb576040517fd10fc83e00000000000000000000000000000000000000000000000000000000815260040160405180910390fd5b5f60045f8481526020019081526020015f2090508060080160149054906101000a900460ff1615611048576040517f646cf55800000000000000000000000000000000000000000000000000000000815260040160405180910390fd5b5f60065f8581526020019081526020015f205f9054906101000a900473ffffffffffffffffffffffffffffffffffffffff1690508073ffffffffffffffffffffffffffffffffffffffff163373ffffffffffffffffffffffffffffffffffffffff16141580156110e457508073ffffffffffffffffffffffffffffffffffffffff165f73ffffffffffffffffffffffffffffffffffffffff1614155b801561113f5750816008015f9054906101000a900473ffffffffffffffffffffffffffffffffffffffff1673ffffffffffffffffffffffffffffffffffffffff163373ffffffffffffffffffffffffffffffffffffffff1614155b15611176576040517f9553066800000000000000000000000000000000000000000000000000000000815260040160405180910390fd5b60018260080160146101000a81548160ff0219169083151502179055505f8173ffffffffffffffffffffffffffffffffffffffff163373ffffffffffffffffffffffffffffffffffffffff16146111f057826008015f9054906101000a900473ffffffffffffffffffffffffffffffffffffffff166111f2565b815b9050826001015f9054906101000a900473ffffffffffffffffffffffffffffffffffffffff1673ffffffffffffffffffffffffffffffffffffffff166342842e0e3083865f01546040518463ffffffff1660e01b815260040161125793929190611957565b5f604051808303815f87803b15801561126e575f80fd5b505af1158015611280573d5f803e3d5ffd5b50505050847fe7d838b5061d956e2f0afddd5dbb9c298f3e2d61c59579e796bad18fee8070c660405160405180910390a25050505050565b5f8273ffffffffffffffffffffffffffffffffffffffff16826040516112dd90611a3d565b5f6040518083038185875af1925050503d805f8114611317576040519150601f19603f3d011682016040523d82523d5f602084013e61131c565b606091505b5050905080611360576040517f08c379a000000000000000000000000000000000000000000000000000000000815260040161135790611a9b565b60405180910390fd5b505050565b61136d6114ad565b73ffffffffffffffffffffffffffffffffffffffff1661138b610925565b73ffffffffffffffffffffffffffffffffffffffff16146113ea576113ae6114ad565b6040517f118cdaa70000000000000000000000000000000000000000000000000000000081526004016113e191906116a8565b60405180910390fd5b565b5f805f9054906101000a900473ffffffffffffffffffffffffffffffffffffffff169050815f806101000a81548173ffffffffffffffffffffffffffffffffffffffff021916908373ffffffffffffffffffffffffffffffffffffffff1602179055508173ffffffffffffffffffffffffffffffffffffffff168173ffffffffffffffffffffffffffffffffffffffff167f8be0079c531659141344cd1fd0a4f28419497f9722a3daafe3b4186f6b6457e060405160405180910390a35050565b5f33905090565b5f80fd5b5f819050919050565b6114ca816114b8565b81146114d4575f80fd5b50565b5f813590506114e5816114c1565b92915050565b5f60208284031215611500576114ff6114b4565b5b5f61150d848285016114d7565b91505092915050565b5f73ffffffffffffffffffffffffffffffffffffffff82169050919050565b5f61153f82611516565b9050919050565b61154f81611535565b8114611559575f80fd5b50565b5f8135905061156a81611546565b92915050565b5f8060408385031215611586576115856114b4565b5b5f611593858286016114d7565b92505060206115a48582860161155c565b9150509250929050565b6115b7816114b8565b82525050565b5f6020820190506115d05f8301846115ae565b92915050565b6115df81611535565b82525050565b5f8115159050919050565b6115f9816115e5565b82525050565b5f610160820190506116135f83018e6115ae565b611620602083018d6115d6565b61162d604083018c6115ae565b61163a606083018b6115ae565b611647608083018a6115ae565b61165460a08301896115ae565b61166160c08301886115ae565b61166e60e08301876115ae565b61167c6101008301866115d6565b61168a6101208301856115f0565b6116986101408301846115f0565b9c9b505050505050505050505050565b5f6020820190506116bb5f8301846115d6565b92915050565b5f805f805f805f80610100898b0312156116de576116dd6114b4565b5b5f6116eb8b828c016114d7565b98505060206116fc8b828c0161155c565b975050604061170d8b828c016114d7565b965050606061171e8b828c016114d7565b955050608061172f8b828c016114d7565b94505060a06117408b828c016114d7565b93505060c06117518b828c016114d7565b92505060e06117628b828c016114d7565b9150509295985092959890939650565b5f60208284031215611787576117866114b4565b5b5f6117948482850161155c565b91505092915050565b7f4e487b71000000000000000000000000000000000000000000000000000000005f52601160045260245ffd5b5f6117d4826114b8565b91506117df836114b8565b92508282019050808211156117f7576117f661179d565b5b92915050565b5f611807826114b8565b9150611812836114b8565b925082820390508181111561182a5761182961179d565b5b92915050565b5f82825260208201905092915050565b7f544f4f5f4c4f57000000000000000000000000000000000000000000000000005f82015250565b5f611874600783611830565b915061187f82611840565b602082019050919050565b5f6020820190508181035f8301526118a181611868565b9050919050565b7f544f4f5f484947480000000000000000000000000000000000000000000000005f82015250565b5f6118dc600883611830565b91506118e7826118a8565b602082019050919050565b5f6020820190508181035f830152611909816118d0565b9050919050565b5f61191a826114b8565b91507fffffffffffffffffffffffffffffffffffffffffffffffffffffffffffffffff820361194c5761194b61179d565b5b600182019050919050565b5f60608201905061196a5f8301866115d6565b61197760208301856115d6565b61198460408301846115ae565b949350505050565b7f4e487b71000000000000000000000000000000000000000000000000000000005f52601260045260245ffd5b5f6119c3826114b8565b91506119ce836114b8565b9250826119de576119dd61198c565b5b828204905092915050565b5f6040820190506119fc5f8301856115ae565b611a0960208301846115ae565b9392505050565b5f81905092915050565b50565b5f611a285f83611a10565b9150611a3382611a1a565b5f82019050919050565b5f611a4782611a1d565b9150819050919050565b7f4661696c656420746f2073656e642045746865720000000000000000000000005f82015250565b5f611a85601483611830565b9150611a9082611a51565b602082019050919050565b5f6020820190508181035f830152611ab281611a79565b905091905056fea2646970667358221220b65e85e88c3838d97a99757a1bc943c5e8e1f6ca34b2d0f45916e456d6a0deea64736f6c63430008190033",
					"opcodes": "PUSH1 0x80 PUSH1 0x40 MSTORE PUSH3 0x15180 PUSH1 0x1 SSTORE PUSH3 0x4F1A00 PUSH1 0x2 SSTORE CALLVALUE DUP1 ISZERO PUSH2 0x1D JUMPI PUSH0 DUP1 REVERT JUMPDEST POP CALLER PUSH0 PUSH20 0xFFFFFFFFFFFFFFFFFFFFFFFFFFFFFFFFFFFFFFFF AND DUP2 PUSH20 0xFFFFFFFFFFFFFFFFFFFFFFFFFFFFFFFFFFFFFFFF AND SUB PUSH2 0x8F JUMPI PUSH0 PUSH1 0x40 MLOAD PUSH32 0x1E4FBDF700000000000000000000000000000000000000000000000000000000 DUP2 MSTORE PUSH1 0x4 ADD PUSH2 0x86 SWAP2 SWAP1 PUSH2 0x1A4 JUMP JUMPDEST PUSH1 0x40 MLOAD DUP1 SWAP2 SUB SWAP1 REVERT JUMPDEST PUSH2 0x9E DUP2 PUSH2 0xA4 PUSH1 0x20 SHL PUSH1 0x20 SHR JUMP JUMPDEST POP PUSH2 0x1BD JUMP JUMPDEST PUSH0 DUP1 PUSH0 SWAP1 SLOAD SWAP1 PUSH2 0x100 EXP SWAP1 DIV PUSH20 0xFFFFFFFFFFFFFFFFFFFFFFFFFFFFFFFFFFFFFFFF AND SWAP1 POP DUP2 PUSH0 DUP1 PUSH2 0x100 EXP DUP2 SLOAD DUP2 PUSH20 0xFFFFFFFFFFFFFFFFFFFFFFFFFFFFFFFFFFFFFFFF MUL NOT AND SWAP1 DUP4 PUSH20 0xFFFFFFFFFFFFFFFFFFFFFFFFFFFFFFFFFFFFFFFF AND MUL OR SWAP1 SSTORE POP DUP2 PUSH20 0xFFFFFFFFFFFFFFFFFFFFFFFFFFFFFFFFFFFFFFFF AND DUP2 PUSH20 0xFFFFFFFFFFFFFFFFFFFFFFFFFFFFFFFFFFFFFFFF AND PUSH32 0x8BE0079C531659141344CD1FD0A4F28419497F9722A3DAAFE3B4186F6B6457E0 PUSH1 0x40 MLOAD PUSH1 0x40 MLOAD DUP1 SWAP2 SUB SWAP1 LOG3 POP POP JUMP JUMPDEST PUSH0 PUSH20 0xFFFFFFFFFFFFFFFFFFFFFFFFFFFFFFFFFFFFFFFF DUP3 AND SWAP1 POP SWAP2 SWAP1 POP JUMP JUMPDEST PUSH0 PUSH2 0x18E DUP3 PUSH2 0x165 JUMP JUMPDEST SWAP1 POP SWAP2 SWAP1 POP JUMP JUMPDEST PUSH2 0x19E DUP2 PUSH2 0x184 JUMP JUMPDEST DUP3 MSTORE POP POP JUMP JUMPDEST PUSH0 PUSH1 0x20 DUP3 ADD SWAP1 POP PUSH2 0x1B7 PUSH0 DUP4 ADD DUP5 PUSH2 0x195 JUMP JUMPDEST SWAP3 SWAP2 POP POP JUMP JUMPDEST PUSH2 0x1AEF DUP1 PUSH2 0x1CA PUSH0 CODECOPY PUSH0 RETURN INVALID PUSH1 0x80 PUSH1 0x40 MSTORE PUSH1 0x4 CALLDATASIZE LT PUSH2 0x9B JUMPI PUSH0 CALLDATALOAD PUSH1 0xE0 SHR DUP1 PUSH4 0x77484AAE GT PUSH2 0x63 JUMPI DUP1 PUSH4 0x77484AAE EQ PUSH2 0x17B JUMPI DUP1 PUSH4 0x8DA5CB5B EQ PUSH2 0x1B7 JUMPI DUP1 PUSH4 0x98ECFDAC EQ PUSH2 0x1E1 JUMPI DUP1 PUSH4 0xAE169A50 EQ PUSH2 0x209 JUMPI DUP1 PUSH4 0xF2FDE38B EQ PUSH2 0x231 JUMPI DUP1 PUSH4 0xFE5C873A EQ PUSH2 0x259 JUMPI PUSH2 0x9B JUMP JUMPDEST DUP1 PUSH4 0x21113057 EQ PUSH2 0x9F JUMPI DUP1 PUSH4 0x3F1FFCEC EQ PUSH2 0xC7 JUMPI DUP1 PUSH4 0x454A2AB3 EQ PUSH2 0x103 JUMPI DUP1 PUSH4 0x571A26A0 EQ PUSH2 0x11F JUMPI DUP1 PUSH4 0x715018A6 EQ PUSH2 0x165 JUMPI JUMPDEST PUSH0 DUP1 REVERT JUMPDEST CALLVALUE DUP1 ISZERO PUSH2 0xAA JUMPI PUSH0 DUP1 REVERT JUMPDEST POP PUSH2 0xC5 PUSH1 0x4 DUP1 CALLDATASIZE SUB DUP2 ADD SWAP1 PUSH2 0xC0 SWAP2 SWAP1 PUSH2 0x14EB JUMP JUMPDEST PUSH2 0x281 JUMP JUMPDEST STOP JUMPDEST CALLVALUE DUP1 ISZERO PUSH2 0xD2 JUMPI PUSH0 DUP1 REVERT JUMPDEST POP PUSH2 0xED PUSH1 0x4 DUP1 CALLDATASIZE SUB DUP2 ADD SWAP1 PUSH2 0xE8 SWAP2 SWAP1 PUSH2 0x1570 JUMP JUMPDEST PUSH2 0x468 JUMP JUMPDEST PUSH1 0x40 MLOAD PUSH2 0xFA SWAP2 SWAP1 PUSH2 0x15BD JUMP JUMPDEST PUSH1 0x40 MLOAD DUP1 SWAP2 SUB SWAP1 RETURN JUMPDEST PUSH2 0x11D PUSH1 0x4 DUP1 CALLDATASIZE SUB DUP2 ADD SWAP1 PUSH2 0x118 SWAP2 SWAP1 PUSH2 0x14EB JUMP JUMPDEST PUSH2 0x488 JUMP JUMPDEST STOP JUMPDEST CALLVALUE DUP1 ISZERO PUSH2 0x12A JUMPI PUSH0 DUP1 REVERT JUMPDEST POP PUSH2 0x145 PUSH1 0x4 DUP1 CALLDATASIZE SUB DUP2 ADD SWAP1 PUSH2 0x140 SWAP2 SWAP1 PUSH2 0x14EB JUMP JUMPDEST PUSH2 0x834 JUMP JUMPDEST PUSH1 0x40 MLOAD PUSH2 0x15C SWAP12 SWAP11 SWAP10 SWAP9 SWAP8 SWAP7 SWAP6 SWAP5 SWAP4 SWAP3 SWAP2 SWAP1 PUSH2 0x15FF JUMP JUMPDEST PUSH1 0x40 MLOAD DUP1 SWAP2 SUB SWAP1 RETURN JUMPDEST CALLVALUE DUP1 ISZERO PUSH2 0x170 JUMPI PUSH0 DUP1 REVERT JUMPDEST POP PUSH2 0x179 PUSH2 0x8E2 JUMP JUMPDEST STOP JUMPDEST CALLVALUE DUP1 ISZERO PUSH2 0x186 JUMPI PUSH0 DUP1 REVERT JUMPDEST POP PUSH2 0x1A1 PUSH1 0x4 DUP1 CALLDATASIZE SUB DUP2 ADD SWAP1 PUSH2 0x19C SWAP2 SWAP1 PUSH2 0x14EB JUMP JUMPDEST PUSH2 0x8F5 JUMP JUMPDEST PUSH1 0x40 MLOAD PUSH2 0x1AE SWAP2 SWAP1 PUSH2 0x16A8 JUMP JUMPDEST PUSH1 0x40 MLOAD DUP1 SWAP2 SUB SWAP1 RETURN JUMPDEST CALLVALUE DUP1 ISZERO PUSH2 0x1C2 JUMPI PUSH0 DUP1 REVERT JUMPDEST POP PUSH2 0x1CB PUSH2 0x925 JUMP JUMPDEST PUSH1 0x40 MLOAD PUSH2 0x1D8 SWAP2 SWAP1 PUSH2 0x16A8 JUMP JUMPDEST PUSH1 0x40 MLOAD DUP1 SWAP2 SUB SWAP1 RETURN JUMPDEST CALLVALUE DUP1 ISZERO PUSH2 0x1EC JUMPI PUSH0 DUP1 REVERT JUMPDEST POP PUSH2 0x207 PUSH1 0x4 DUP1 CALLDATASIZE SUB DUP2 ADD SWAP1 PUSH2 0x202 SWAP2 SWAP1 PUSH2 0x16C1 JUMP JUMPDEST PUSH2 0x94C JUMP JUMPDEST STOP JUMPDEST CALLVALUE DUP1 ISZERO PUSH2 0x214 JUMPI PUSH0 DUP1 REVERT JUMPDEST POP PUSH2 0x22F PUSH1 0x4 DUP1 CALLDATASIZE SUB DUP2 ADD SWAP1 PUSH2 0x22A SWAP2 SWAP1 PUSH2 0x14EB JUMP JUMPDEST PUSH2 0xC90 JUMP JUMPDEST STOP JUMPDEST CALLVALUE DUP1 ISZERO PUSH2 0x23C JUMPI PUSH0 DUP1 REVERT JUMPDEST POP PUSH2 0x257 PUSH1 0x4 DUP1 CALLDATASIZE SUB DUP2 ADD SWAP1 PUSH2 0x252 SWAP2 SWAP1 PUSH2 0x1772 JUMP JUMPDEST PUSH2 0xF19 JUMP JUMPDEST STOP JUMPDEST CALLVALUE DUP1 ISZERO PUSH2 0x264 JUMPI PUSH0 DUP1 REVERT JUMPDEST POP PUSH2 0x27F PUSH1 0x4 DUP1 CALLDATASIZE SUB DUP2 ADD SWAP1 PUSH2 0x27A SWAP2 SWAP1 PUSH2 0x14EB JUMP JUMPDEST PUSH2 0xF9D JUMP JUMPDEST STOP JUMPDEST PUSH0 PUSH1 0x5 PUSH0 DUP4 DUP2 MSTORE PUSH1 0x20 ADD SWAP1 DUP2 MSTORE PUSH1 0x20 ADD PUSH0 KECCAK256 PUSH0 CALLER PUSH20 0xFFFFFFFFFFFFFFFFFFFFFFFFFFFFFFFFFFFFFFFF AND PUSH20 0xFFFFFFFFFFFFFFFFFFFFFFFFFFFFFFFFFFFFFFFF AND DUP2 MSTORE PUSH1 0x20 ADD SWAP1 DUP2 MSTORE PUSH1 0x20 ADD PUSH0 KECCAK256 SLOAD SWAP1 POP CALLER PUSH20 0xFFFFFFFFFFFFFFFFFFFFFFFFFFFFFFFFFFFFFFFF AND PUSH1 0x6 PUSH0 DUP5 DUP2 MSTORE PUSH1 0x20 ADD SWAP1 DUP2 MSTORE PUSH1 0x20 ADD PUSH0 KECCAK256 PUSH0 SWAP1 SLOAD SWAP1 PUSH2 0x100 EXP SWAP1 DIV PUSH20 0xFFFFFFFFFFFFFFFFFFFFFFFFFFFFFFFFFFFFFFFF AND PUSH20 0xFFFFFFFFFFFFFFFFFFFFFFFFFFFFFFFFFFFFFFFF AND SUB PUSH2 0x366 JUMPI PUSH1 0x40 MLOAD PUSH32 0x996657AF00000000000000000000000000000000000000000000000000000000 DUP2 MSTORE PUSH1 0x4 ADD PUSH1 0x40 MLOAD DUP1 SWAP2 SUB SWAP1 REVERT JUMPDEST PUSH0 PUSH1 0x5 PUSH0 DUP5 DUP2 MSTORE PUSH1 0x20 ADD SWAP1 DUP2 MSTORE PUSH1 0x20 ADD PUSH0 KECCAK256 PUSH0 CALLER PUSH20 0xFFFFFFFFFFFFFFFFFFFFFFFFFFFFFFFFFFFFFFFF AND PUSH20 0xFFFFFFFFFFFFFFFFFFFFFFFFFFFFFFFFFFFFFFFF AND DUP2 MSTORE PUSH1 0x20 ADD SWAP1 DUP2 MSTORE PUSH1 0x20 ADD PUSH0 KECCAK256 SLOAD EQ PUSH2 0x415 JUMPI PUSH0 PUSH1 0x5 PUSH0 DUP5 DUP2 MSTORE PUSH1 0x20 ADD SWAP1 DUP2 MSTORE PUSH1 0x20 ADD PUSH0 KECCAK256 PUSH0 CALLER PUSH20 0xFFFFFFFFFFFFFFFFFFFFFFFFFFFFFFFFFFFFFFFF AND PUSH20 0xFFFFFFFFFFFFFFFFFFFFFFFFFFFFFFFFFFFFFFFF AND DUP2 MSTORE PUSH1 0x20 ADD SWAP1 DUP2 MSTORE PUSH1 0x20 ADD PUSH0 KECCAK256 DUP2 SWAP1 SSTORE POP PUSH2 0x414 CALLER DUP3 PUSH2 0x12B8 JUMP JUMPDEST JUMPDEST CALLER PUSH20 0xFFFFFFFFFFFFFFFFFFFFFFFFFFFFFFFFFFFFFFFF AND DUP3 PUSH32 0xE68DAA9F0BE9A647EB4B9D00BA8932AD8171B86EC8CD767D14FD2AE946AF3D21 DUP4 PUSH1 0x40 MLOAD PUSH2 0x45C SWAP2 SWAP1 PUSH2 0x15BD JUMP JUMPDEST PUSH1 0x40 MLOAD DUP1 SWAP2 SUB SWAP1 LOG3 POP POP JUMP JUMPDEST PUSH1 0x5 PUSH1 0x20 MSTORE DUP2 PUSH0 MSTORE PUSH1 0x40 PUSH0 KECCAK256 PUSH1 0x20 MSTORE DUP1 PUSH0 MSTORE PUSH1 0x40 PUSH0 KECCAK256 PUSH0 SWAP2 POP SWAP2 POP POP SLOAD DUP2 JUMP JUMPDEST PUSH0 PUSH1 0x4 PUSH0 DUP4 DUP2 MSTORE PUSH1 0x20 ADD SWAP1 DUP2 MSTORE PUSH1 0x20 ADD PUSH0 KECCAK256 SWAP1 POP PUSH0 PUSH20 0xFFFFFFFFFFFFFFFFFFFFFFFFFFFFFFFFFFFFFFFF AND DUP2 PUSH1 0x1 ADD PUSH0 SWAP1 SLOAD SWAP1 PUSH2 0x100 EXP SWAP1 DIV PUSH20 0xFFFFFFFFFFFFFFFFFFFFFFFFFFFFFFFFFFFFFFFF AND PUSH20 0xFFFFFFFFFFFFFFFFFFFFFFFFFFFFFFFFFFFFFFFF AND SUB PUSH2 0x524 JUMPI PUSH1 0x40 MLOAD PUSH32 0x8DE42EAB00000000000000000000000000000000000000000000000000000000 DUP2 MSTORE PUSH1 0x4 ADD PUSH1 0x40 MLOAD DUP1 SWAP2 SUB SWAP1 REVERT JUMPDEST DUP1 PUSH1 0x3 ADD SLOAD TIMESTAMP LT DUP1 PUSH2 0x539 JUMPI POP DUP1 PUSH1 0x4 ADD SLOAD TIMESTAMP GT JUMPDEST ISZERO PUSH2 0x570 JUMPI PUSH1 0x40 MLOAD PUSH32 0x7BCB4FDF00000000000000000000000000000000000000000000000000000000 DUP2 MSTORE PUSH1 0x4 ADD PUSH1 0x40 MLOAD DUP1 SWAP2 SUB SWAP1 REVERT JUMPDEST PUSH0 CALLVALUE PUSH1 0x5 PUSH0 DUP6 DUP2 MSTORE PUSH1 0x20 ADD SWAP1 DUP2 MSTORE PUSH1 0x20 ADD PUSH0 KECCAK256 PUSH0 CALLER PUSH20 0xFFFFFFFFFFFFFFFFFFFFFFFFFFFFFFFFFFFFFFFF AND PUSH20 0xFFFFFFFFFFFFFFFFFFFFFFFFFFFFFFFFFFFFFFFF AND DUP2 MSTORE PUSH1 0x20 ADD SWAP1 DUP2 MSTORE PUSH1 0x20 ADD PUSH0 KECCAK256 SLOAD PUSH2 0x5C9 SWAP2 SWAP1 PUSH2 0x17CA JUMP JUMPDEST SWAP1 POP DUP2 PUSH1 0x2 ADD SLOAD DUP2 LT DUP1 PUSH2 0x6CF JUMPI POP PUSH0 PUSH20 0xFFFFFFFFFFFFFFFFFFFFFFFFFFFFFFFFFFFFFFFF AND PUSH1 0x6 PUSH0 DUP6 DUP2 MSTORE PUSH1 0x20 ADD SWAP1 DUP2 MSTORE PUSH1 0x20 ADD PUSH0 KECCAK256 PUSH0 SWAP1 SLOAD SWAP1 PUSH2 0x100 EXP SWAP1 DIV PUSH20 0xFFFFFFFFFFFFFFFFFFFFFFFFFFFFFFFFFFFFFFFF AND PUSH20 0xFFFFFFFFFFFFFFFFFFFFFFFFFFFFFFFFFFFFFFFF AND EQ ISZERO DUP1 ISZERO PUSH2 0x6CE JUMPI POP DUP2 PUSH1 0x5 ADD SLOAD PUSH1 0x5 PUSH0 DUP6 DUP2 MSTORE PUSH1 0x20 ADD SWAP1 DUP2 MSTORE PUSH1 0x20 ADD PUSH0 KECCAK256 PUSH0 PUSH1 0x6 PUSH0 DUP8 DUP2 MSTORE PUSH1 0x20 ADD SWAP1 DUP2 MSTORE PUSH1 0x20 ADD PUSH0 KECCAK256 PUSH0 SWAP1 SLOAD SWAP1 PUSH2 0x100 EXP SWAP1 DIV PUSH20 0xFFFFFFFFFFFFFFFFFFFFFFFFFFFFFFFFFFFFFFFF AND PUSH20 0xFFFFFFFFFFFFFFFFFFFFFFFFFFFFFFFFFFFFFFFF AND PUSH20 0xFFFFFFFFFFFFFFFFFFFFFFFFFFFFFFFFFFFFFFFF AND DUP2 MSTORE PUSH1 0x20 ADD SWAP1 DUP2 MSTORE PUSH1 0x20 ADD PUSH0 KECCAK256 SLOAD PUSH2 0x6CB SWAP2 SWAP1 PUSH2 0x17CA JUMP JUMPDEST DUP2 LT JUMPDEST JUMPDEST ISZERO PUSH2 0x706 JUMPI PUSH1 0x40 MLOAD PUSH32 0x918678CB00000000000000000000000000000000000000000000000000000000 DUP2 MSTORE PUSH1 0x4 ADD PUSH1 0x40 MLOAD DUP1 SWAP2 SUB SWAP1 REVERT JUMPDEST DUP2 PUSH1 0x6 ADD SLOAD DUP3 PUSH1 0x4 ADD SLOAD PUSH2 0x71A SWAP2 SWAP1 PUSH2 0x17FD JUMP JUMPDEST TIMESTAMP GT ISZERO PUSH2 0x740 JUMPI DUP2 PUSH1 0x7 ADD SLOAD DUP3 PUSH1 0x4 ADD PUSH0 DUP3 DUP3 SLOAD PUSH2 0x738 SWAP2 SWAP1 PUSH2 0x17CA JUMP JUMPDEST SWAP3 POP POP DUP2 SWAP1 SSTORE POP JUMPDEST DUP1 PUSH1 0x5 PUSH0 DUP6 DUP2 MSTORE PUSH1 0x20 ADD SWAP1 DUP2 MSTORE PUSH1 0x20 ADD PUSH0 KECCAK256 PUSH0 CALLER PUSH20 0xFFFFFFFFFFFFFFFFFFFFFFFFFFFFFFFFFFFFFFFF AND PUSH20 0xFFFFFFFFFFFFFFFFFFFFFFFFFFFFFFFFFFFFFFFF AND DUP2 MSTORE PUSH1 0x20 ADD SWAP1 DUP2 MSTORE PUSH1 0x20 ADD PUSH0 KECCAK256 DUP2 SWAP1 SSTORE POP CALLER PUSH1 0x6 PUSH0 DUP6 DUP2 MSTORE PUSH1 0x20 ADD SWAP1 DUP2 MSTORE PUSH1 0x20 ADD PUSH0 KECCAK256 PUSH0 PUSH2 0x100 EXP DUP2 SLOAD DUP2 PUSH20 0xFFFFFFFFFFFFFFFFFFFFFFFFFFFFFFFFFFFFFFFF MUL NOT AND SWAP1 DUP4 PUSH20 0xFFFFFFFFFFFFFFFFFFFFFFFFFFFFFFFFFFFFFFFF AND MUL OR SWAP1 SSTORE POP CALLER PUSH20 0xFFFFFFFFFFFFFFFFFFFFFFFFFFFFFFFFFFFFFFFF AND DUP4 PUSH32 0x558A0D5D5468D74B0DB24C74EB348B42271C2EBB4C9E953CED38AAED95FA4361 DUP4 PUSH1 0x40 MLOAD PUSH2 0x827 SWAP2 SWAP1 PUSH2 0x15BD JUMP JUMPDEST PUSH1 0x40 MLOAD DUP1 SWAP2 SUB SWAP1 LOG3 POP POP POP JUMP JUMPDEST PUSH1 0x4 PUSH1 0x20 MSTORE DUP1 PUSH0 MSTORE PUSH1 0x40 PUSH0 KECCAK256 PUSH0 SWAP2 POP SWAP1 POP DUP1 PUSH0 ADD SLOAD SWAP1 DUP1 PUSH1 0x1 ADD PUSH0 SWAP1 SLOAD SWAP1 PUSH2 0x100 EXP SWAP1 DIV PUSH20 0xFFFFFFFFFFFFFFFFFFFFFFFFFFFFFFFFFFFFFFFF AND SWAP1 DUP1 PUSH1 0x2 ADD SLOAD SWAP1 DUP1 PUSH1 0x3 ADD SLOAD SWAP1 DUP1 PUSH1 0x4 ADD SLOAD SWAP1 DUP1 PUSH1 0x5 ADD SLOAD SWAP1 DUP1 PUSH1 0x6 ADD SLOAD SWAP1 DUP1 PUSH1 0x7 ADD SLOAD SWAP1 DUP1 PUSH1 0x8 ADD PUSH0 SWAP1 SLOAD SWAP1 PUSH2 0x100 EXP SWAP1 DIV PUSH20 0xFFFFFFFFFFFFFFFFFFFFFFFFFFFFFFFFFFFFFFFF AND SWAP1 DUP1 PUSH1 0x8 ADD PUSH1 0x14 SWAP1 SLOAD SWAP1 PUSH2 0x100 EXP SWAP1 DIV PUSH1 0xFF AND SWAP1 DUP1 PUSH1 0x8 ADD PUSH1 0x15 SWAP1 SLOAD SWAP1 PUSH2 0x100 EXP SWAP1 DIV PUSH1 0xFF AND SWAP1 POP DUP12 JUMP JUMPDEST PUSH2 0x8EA PUSH2 0x1365 JUMP JUMPDEST PUSH2 0x8F3 PUSH0 PUSH2 0x13EC JUMP JUMPDEST JUMP JUMPDEST PUSH1 0x6 PUSH1 0x20 MSTORE DUP1 PUSH0 MSTORE PUSH1 0x40 PUSH0 KECCAK256 PUSH0 SWAP2 POP SLOAD SWAP1 PUSH2 0x100 EXP SWAP1 DIV PUSH20 0xFFFFFFFFFFFFFFFFFFFFFFFFFFFFFFFFFFFFFFFF AND DUP2 JUMP JUMPDEST PUSH0 DUP1 PUSH0 SWAP1 SLOAD SWAP1 PUSH2 0x100 EXP SWAP1 DIV PUSH20 0xFFFFFFFFFFFFFFFFFFFFFFFFFFFFFFFFFFFFFFFF AND SWAP1 POP SWAP1 JUMP JUMPDEST PUSH0 DUP7 SUB PUSH2 0x985 JUMPI PUSH1 0x40 MLOAD PUSH32 0x1E1D0AB500000000000000000000000000000000000000000000000000000000 DUP2 MSTORE PUSH1 0x4 ADD PUSH1 0x40 MLOAD DUP1 SWAP2 SUB SWAP1 REVERT JUMPDEST TIMESTAMP DUP6 LT ISZERO PUSH2 0x9BF JUMPI PUSH1 0x40 MLOAD PUSH32 0xB290253C00000000000000000000000000000000000000000000000000000000 DUP2 MSTORE PUSH1 0x4 ADD PUSH1 0x40 MLOAD DUP1 SWAP2 SUB SWAP1 REVERT JUMPDEST PUSH1 0x1 SLOAD DUP6 PUSH2 0x9CD SWAP2 SWAP1 PUSH2 0x17CA JUMP JUMPDEST DUP5 LT ISZERO PUSH2 0xA0F JUMPI PUSH1 0x40 MLOAD PUSH32 0xE38CFFAA00000000000000000000000000000000000000000000000000000000 DUP2 MSTORE PUSH1 0x4 ADD PUSH2 0xA06 SWAP1 PUSH2 0x188A JUMP JUMPDEST PUSH1 0x40 MLOAD DUP1 SWAP2 SUB SWAP1 REVERT JUMPDEST PUSH1 0x2 SLOAD DUP6 PUSH2 0xA1D SWAP2 SWAP1 PUSH2 0x17CA JUMP JUMPDEST DUP5 GT ISZERO PUSH2 0xA5F JUMPI PUSH1 0x40 MLOAD PUSH32 0xE38CFFAA00000000000000000000000000000000000000000000000000000000 DUP2 MSTORE PUSH1 0x4 ADD PUSH2 0xA56 SWAP1 PUSH2 0x18F2 JUMP JUMPDEST PUSH1 0x40 MLOAD DUP1 SWAP2 SUB SWAP1 REVERT JUMPDEST PUSH0 PUSH1 0x3 PUSH0 DUP2 SLOAD DUP1 SWAP3 SWAP2 SWAP1 PUSH2 0xA72 SWAP1 PUSH2 0x1910 JUMP JUMPDEST SWAP2 SWAP1 POP SSTORE SWAP1 POP PUSH1 0x40 MLOAD DUP1 PUSH2 0x160 ADD PUSH1 0x40 MSTORE DUP1 DUP11 DUP2 MSTORE PUSH1 0x20 ADD DUP10 PUSH20 0xFFFFFFFFFFFFFFFFFFFFFFFFFFFFFFFFFFFFFFFF AND DUP2 MSTORE PUSH1 0x20 ADD DUP9 DUP2 MSTORE PUSH1 0x20 ADD DUP8 DUP2 MSTORE PUSH1 0x20 ADD DUP7 DUP2 MSTORE PUSH1 0x20 ADD DUP6 DUP2 MSTORE PUSH1 0x20 ADD DUP5 DUP2 MSTORE PUSH1 0x20 ADD DUP4 DUP2 MSTORE PUSH1 0x20 ADD CALLER PUSH20 0xFFFFFFFFFFFFFFFFFFFFFFFFFFFFFFFFFFFFFFFF AND DUP2 MSTORE PUSH1 0x20 ADD PUSH0 ISZERO ISZERO DUP2 MSTORE PUSH1 0x20 ADD PUSH0 ISZERO ISZERO DUP2 MSTORE POP PUSH1 0x4 PUSH0 DUP4 DUP2 MSTORE PUSH1 0x20 ADD SWAP1 DUP2 MSTORE PUSH1 0x20 ADD PUSH0 KECCAK256 PUSH0 DUP3 ADD MLOAD DUP2 PUSH0 ADD SSTORE PUSH1 0x20 DUP3 ADD MLOAD DUP2 PUSH1 0x1 ADD PUSH0 PUSH2 0x100 EXP DUP2 SLOAD DUP2 PUSH20 0xFFFFFFFFFFFFFFFFFFFFFFFFFFFFFFFFFFFFFFFF MUL NOT AND SWAP1 DUP4 PUSH20 0xFFFFFFFFFFFFFFFFFFFFFFFFFFFFFFFFFFFFFFFF AND MUL OR SWAP1 SSTORE POP PUSH1 0x40 DUP3 ADD MLOAD DUP2 PUSH1 0x2 ADD SSTORE PUSH1 0x60 DUP3 ADD MLOAD DUP2 PUSH1 0x3 ADD SSTORE PUSH1 0x80 DUP3 ADD MLOAD DUP2 PUSH1 0x4 ADD SSTORE PUSH1 0xA0 DUP3 ADD MLOAD DUP2 PUSH1 0x5 ADD SSTORE PUSH1 0xC0 DUP3 ADD MLOAD DUP2 PUSH1 0x6 ADD SSTORE PUSH1 0xE0 DUP3 ADD MLOAD DUP2 PUSH1 0x7 ADD SSTORE PUSH2 0x100 DUP3 ADD MLOAD DUP2 PUSH1 0x8 ADD PUSH0 PUSH2 0x100 EXP DUP2 SLOAD DUP2 PUSH20 0xFFFFFFFFFFFFFFFFFFFFFFFFFFFFFFFFFFFFFFFF MUL NOT AND SWAP1 DUP4 PUSH20 0xFFFFFFFFFFFFFFFFFFFFFFFFFFFFFFFFFFFFFFFF AND MUL OR SWAP1 SSTORE POP PUSH2 0x120 DUP3 ADD MLOAD DUP2 PUSH1 0x8 ADD PUSH1 0x14 PUSH2 0x100 EXP DUP2 SLOAD DUP2 PUSH1 0xFF MUL NOT AND SWAP1 DUP4 ISZERO ISZERO MUL OR SWAP1 SSTORE POP PUSH2 0x140 DUP3 ADD MLOAD DUP2 PUSH1 0x8 ADD PUSH1 0x15 PUSH2 0x100 EXP DUP2 SLOAD DUP2 PUSH1 0xFF MUL NOT AND SWAP1 DUP4 ISZERO ISZERO MUL OR SWAP1 SSTORE POP SWAP1 POP POP DUP8 PUSH20 0xFFFFFFFFFFFFFFFFFFFFFFFFFFFFFFFFFFFFFFFF AND PUSH4 0x23B872DD CALLER ADDRESS DUP13 PUSH1 0x40 MLOAD DUP5 PUSH4 0xFFFFFFFF AND PUSH1 0xE0 SHL DUP2 MSTORE PUSH1 0x4 ADD PUSH2 0xC58 SWAP4 SWAP3 SWAP2 SWAP1 PUSH2 0x1957 JUMP JUMPDEST PUSH0 PUSH1 0x40 MLOAD DUP1 DUP4 SUB DUP2 PUSH0 DUP8 DUP1 EXTCODESIZE ISZERO DUP1 ISZERO PUSH2 0xC6F JUMPI PUSH0 DUP1 REVERT JUMPDEST POP GAS CALL ISZERO DUP1 ISZERO PUSH2 0xC81 JUMPI RETURNDATASIZE PUSH0 DUP1 RETURNDATACOPY RETURNDATASIZE PUSH0 REVERT JUMPDEST POP POP POP POP POP POP POP POP POP POP POP POP POP JUMP JUMPDEST DUP1 PUSH1 0x4 PUSH0 DUP3 DUP2 MSTORE PUSH1 0x20 ADD SWAP1 DUP2 MSTORE PUSH1 0x20 ADD PUSH0 KECCAK256 PUSH1 0x4 ADD SLOAD TIMESTAMP GT PUSH2 0xCDE JUMPI PUSH1 0x40 MLOAD PUSH32 0xD10FC83E00000000000000000000000000000000000000000000000000000000 DUP2 MSTORE PUSH1 0x4 ADD PUSH1 0x40 MLOAD DUP1 SWAP2 SUB SWAP1 REVERT JUMPDEST PUSH0 PUSH1 0x5 PUSH0 DUP5 DUP2 MSTORE PUSH1 0x20 ADD SWAP1 DUP2 MSTORE PUSH1 0x20 ADD PUSH0 KECCAK256 PUSH0 PUSH1 0x6 PUSH0 DUP7 DUP2 MSTORE PUSH1 0x20 ADD SWAP1 DUP2 MSTORE PUSH1 0x20 ADD PUSH0 KECCAK256 PUSH0 SWAP1 SLOAD SWAP1 PUSH2 0x100 EXP SWAP1 DIV PUSH20 0xFFFFFFFFFFFFFFFFFFFFFFFFFFFFFFFFFFFFFFFF AND PUSH20 0xFFFFFFFFFFFFFFFFFFFFFFFFFFFFFFFFFFFFFFFF AND PUSH20 0xFFFFFFFFFFFFFFFFFFFFFFFFFFFFFFFFFFFFFFFF AND DUP2 MSTORE PUSH1 0x20 ADD SWAP1 DUP2 MSTORE PUSH1 0x20 ADD PUSH0 KECCAK256 SLOAD SWAP1 POP PUSH0 DUP2 SUB PUSH2 0xD97 JUMPI PUSH1 0x40 MLOAD PUSH32 0x8B9AE95F00000000000000000000000000000000000000000000000000000000 DUP2 MSTORE PUSH1 0x4 ADD PUSH1 0x40 MLOAD DUP1 SWAP2 SUB SWAP1 REVERT JUMPDEST PUSH0 PUSH1 0x4 PUSH0 DUP6 DUP2 MSTORE PUSH1 0x20 ADD SWAP1 DUP2 MSTORE PUSH1 0x20 ADD PUSH0 KECCAK256 SWAP1 POP DUP1 PUSH1 0x8 ADD PUSH1 0x15 SWAP1 SLOAD SWAP1 PUSH2 0x100 EXP SWAP1 DIV PUSH1 0xFF AND ISZERO PUSH2 0xDF4 JUMPI PUSH1 0x40 MLOAD PUSH32 0x646CF55800000000000000000000000000000000000000000000000000000000 DUP2 MSTORE PUSH1 0x4 ADD PUSH1 0x40 MLOAD DUP1 SWAP2 SUB SWAP1 REVERT JUMPDEST DUP1 PUSH1 0x8 ADD PUSH0 SWAP1 SLOAD SWAP1 PUSH2 0x100 EXP SWAP1 DIV PUSH20 0xFFFFFFFFFFFFFFFFFFFFFFFFFFFFFFFFFFFFFFFF AND PUSH20 0xFFFFFFFFFFFFFFFFFFFFFFFFFFFFFFFFFFFFFFFF AND CALLER PUSH20 0xFFFFFFFFFFFFFFFFFFFFFFFFFFFFFFFFFFFFFFFF AND EQ PUSH2 0xE7C JUMPI PUSH1 0x40 MLOAD PUSH32 0x5EC8235100000000000000000000000000000000000000000000000000000000 DUP2 MSTORE PUSH1 0x4 ADD PUSH1 0x40 MLOAD DUP1 SWAP2 SUB SWAP1 REVERT JUMPDEST PUSH1 0x1 DUP2 PUSH1 0x8 ADD PUSH1 0x15 PUSH2 0x100 EXP DUP2 SLOAD DUP2 PUSH1 0xFF MUL NOT AND SWAP1 DUP4 ISZERO ISZERO MUL OR SWAP1 SSTORE POP PUSH0 PUSH1 0x64 DUP4 PUSH2 0xEA7 SWAP2 SWAP1 PUSH2 0x19B9 JUMP JUMPDEST SWAP1 POP PUSH0 DUP2 GT ISZERO PUSH2 0xEC3 JUMPI PUSH2 0xEC2 PUSH2 0xEBC PUSH2 0x925 JUMP JUMPDEST DUP3 PUSH2 0x12B8 JUMP JUMPDEST JUMPDEST PUSH2 0xED8 CALLER DUP3 DUP6 PUSH2 0xED3 SWAP2 SWAP1 PUSH2 0x17FD JUMP JUMPDEST PUSH2 0x12B8 JUMP JUMPDEST DUP5 PUSH32 0x64BC8E516EB66C9BD33C0D0F80B0E16A5BAC9EB2BCE20D6FDF7698A0D7AB6EBA DUP5 DUP4 PUSH1 0x40 MLOAD PUSH2 0xF0A SWAP3 SWAP2 SWAP1 PUSH2 0x19E9 JUMP JUMPDEST PUSH1 0x40 MLOAD DUP1 SWAP2 SUB SWAP1 LOG2 POP POP POP POP POP JUMP JUMPDEST PUSH2 0xF21 PUSH2 0x1365 JUMP JUMPDEST PUSH0 PUSH20 0xFFFFFFFFFFFFFFFFFFFFFFFFFFFFFFFFFFFFFFFF AND DUP2 PUSH20 0xFFFFFFFFFFFFFFFFFFFFFFFFFFFFFFFFFFFFFFFF AND SUB PUSH2 0xF91 JUMPI PUSH0 PUSH1 0x40 MLOAD PUSH32 0x1E4FBDF700000000000000000000000000000000000000000000000000000000 DUP2 MSTORE PUSH1 0x4 ADD PUSH2 0xF88 SWAP2 SWAP1 PUSH2 0x16A8 JUMP JUMPDEST PUSH1 0x40 MLOAD DUP1 SWAP2 SUB SWAP1 REVERT JUMPDEST PUSH2 0xF9A DUP2 PUSH2 0x13EC JUMP JUMPDEST POP JUMP JUMPDEST DUP1 PUSH1 0x4 PUSH0 DUP3 DUP2 MSTORE PUSH1 0x20 ADD SWAP1 DUP2 MSTORE PUSH1 0x20 ADD PUSH0 KECCAK256 PUSH1 0x4 ADD SLOAD TIMESTAMP GT PUSH2 0xFEB JUMPI PUSH1 0x40 MLOAD PUSH32 0xD10FC83E00000000000000000000000000000000000000000000000000000000 DUP2 MSTORE PUSH1 0x4 ADD PUSH1 0x40 MLOAD DUP1 SWAP2 SUB SWAP1 REVERT JUMPDEST PUSH0 PUSH1 0x4 PUSH0 DUP5 DUP2 MSTORE PUSH1 0x20 ADD SWAP1 DUP2 MSTORE PUSH1 0x20 ADD PUSH0 KECCAK256 SWAP1 POP DUP1 PUSH1 0x8 ADD PUSH1 0x14 SWAP1 SLOAD SWAP1 PUSH2 0x100 EXP SWAP1 DIV PUSH1 0xFF AND ISZERO PUSH2 0x1048 JUMPI PUSH1 0x40 MLOAD PUSH32 0x646CF55800000000000000000000000000000000000000000000000000000000 DUP2 MSTORE PUSH1 0x4 ADD PUSH1 0x40 MLOAD DUP1 SWAP2 SUB SWAP1 REVERT JUMPDEST PUSH0 PUSH1 0x6 PUSH0 DUP6 DUP2 MSTORE PUSH1 0x20 ADD SWAP1 DUP2 MSTORE PUSH1 0x20 ADD PUSH0 KECCAK256 PUSH0 SWAP1 SLOAD SWAP1 PUSH2 0x100 EXP SWAP1 DIV PUSH20 0xFFFFFFFFFFFFFFFFFFFFFFFFFFFFFFFFFFFFFFFF AND SWAP1 POP DUP1 PUSH20 0xFFFFFFFFFFFFFFFFFFFFFFFFFFFFFFFFFFFFFFFF AND CALLER PUSH20 0xFFFFFFFFFFFFFFFFFFFFFFFFFFFFFFFFFFFFFFFF AND EQ ISZERO DUP1 ISZERO PUSH2 0x10E4 JUMPI POP DUP1 PUSH20 0xFFFFFFFFFFFFFFFFFFFFFFFFFFFFFFFFFFFFFFFF AND PUSH0 PUSH20 0xFFFFFFFFFFFFFFFFFFFFFFFFFFFFFFFFFFFFFFFF AND EQ ISZERO JUMPDEST DUP1 ISZERO PUSH2 0x113F JUMPI POP DUP2 PUSH1 0x8 ADD PUSH0 SWAP1 SLOAD SWAP1 PUSH2 0x100 EXP SWAP1 DIV PUSH20 0xFFFFFFFFFFFFFFFFFFFFFFFFFFFFFFFFFFFFFFFF AND PUSH20 0xFFFFFFFFFFFFFFFFFFFFFFFFFFFFFFFFFFFFFFFF AND CALLER PUSH20 0xFFFFFFFFFFFFFFFFFFFFFFFFFFFFFFFFFFFFFFFF AND EQ ISZERO JUMPDEST ISZERO PUSH2 0x1176 JUMPI PUSH1 0x40 MLOAD PUSH32 0x9553066800000000000000000000000000000000000000000000000000000000 DUP2 MSTORE PUSH1 0x4 ADD PUSH1 0x40 MLOAD DUP1 SWAP2 SUB SWAP1 REVERT JUMPDEST PUSH1 0x1 DUP3 PUSH1 0x8 ADD PUSH1 0x14 PUSH2 0x100 EXP DUP2 SLOAD DUP2 PUSH1 0xFF MUL NOT AND SWAP1 DUP4 ISZERO ISZERO MUL OR SWAP1 SSTORE POP PUSH0 DUP2 PUSH20 0xFFFFFFFFFFFFFFFFFFFFFFFFFFFFFFFFFFFFFFFF AND CALLER PUSH20 0xFFFFFFFFFFFFFFFFFFFFFFFFFFFFFFFFFFFFFFFF AND EQ PUSH2 0x11F0 JUMPI DUP3 PUSH1 0x8 ADD PUSH0 SWAP1 SLOAD SWAP1 PUSH2 0x100 EXP SWAP1 DIV PUSH20 0xFFFFFFFFFFFFFFFFFFFFFFFFFFFFFFFFFFFFFFFF AND PUSH2 0x11F2 JUMP JUMPDEST DUP2 JUMPDEST SWAP1 POP DUP3 PUSH1 0x1 ADD PUSH0 SWAP1 SLOAD SWAP1 PUSH2 0x100 EXP SWAP1 DIV PUSH20 0xFFFFFFFFFFFFFFFFFFFFFFFFFFFFFFFFFFFFFFFF AND PUSH20 0xFFFFFFFFFFFFFFFFFFFFFFFFFFFFFFFFFFFFFFFF AND PUSH4 0x42842E0E ADDRESS DUP4 DUP7 PUSH0 ADD SLOAD PUSH1 0x40 MLOAD DUP5 PUSH4 0xFFFFFFFF AND PUSH1 0xE0 SHL DUP2 MSTORE PUSH1 0x4 ADD PUSH2 0x1257 SWAP4 SWAP3 SWAP2 SWAP1 PUSH2 0x1957 JUMP JUMPDEST PUSH0 PUSH1 0x40 MLOAD DUP1 DUP4 SUB DUP2 PUSH0 DUP8 DUP1 EXTCODESIZE ISZERO DUP1 ISZERO PUSH2 0x126E JUMPI PUSH0 DUP1 REVERT JUMPDEST POP GAS CALL ISZERO DUP1 ISZERO PUSH2 0x1280 JUMPI RETURNDATASIZE PUSH0 DUP1 RETURNDATACOPY RETURNDATASIZE PUSH0 REVERT JUMPDEST POP POP POP POP DUP5 PUSH32 0xE7D838B5061D956E2F0AFDDD5DBB9C298F3E2D61C59579E796BAD18FEE8070C6 PUSH1 0x40 MLOAD PUSH1 0x40 MLOAD DUP1 SWAP2 SUB SWAP1 LOG2 POP POP POP POP POP JUMP JUMPDEST PUSH0 DUP3 PUSH20 0xFFFFFFFFFFFFFFFFFFFFFFFFFFFFFFFFFFFFFFFF AND DUP3 PUSH1 0x40 MLOAD PUSH2 0x12DD SWAP1 PUSH2 0x1A3D JUMP JUMPDEST PUSH0 PUSH1 0x40 MLOAD DUP1 DUP4 SUB DUP2 DUP6 DUP8 GAS CALL SWAP3 POP POP POP RETURNDATASIZE DUP1 PUSH0 DUP2 EQ PUSH2 0x1317 JUMPI PUSH1 0x40 MLOAD SWAP2 POP PUSH1 0x1F NOT PUSH1 0x3F RETURNDATASIZE ADD AND DUP3 ADD PUSH1 0x40 MSTORE RETURNDATASIZE DUP3 MSTORE RETURNDATASIZE PUSH0 PUSH1 0x20 DUP5 ADD RETURNDATACOPY PUSH2 0x131C JUMP JUMPDEST PUSH1 0x60 SWAP2 POP JUMPDEST POP POP SWAP1 POP DUP1 PUSH2 0x1360 JUMPI PUSH1 0x40 MLOAD PUSH32 0x8C379A000000000000000000000000000000000000000000000000000000000 DUP2 MSTORE PUSH1 0x4 ADD PUSH2 0x1357 SWAP1 PUSH2 0x1A9B JUMP JUMPDEST PUSH1 0x40 MLOAD DUP1 SWAP2 SUB SWAP1 REVERT JUMPDEST POP POP POP JUMP JUMPDEST PUSH2 0x136D PUSH2 0x14AD JUMP JUMPDEST PUSH20 0xFFFFFFFFFFFFFFFFFFFFFFFFFFFFFFFFFFFFFFFF AND PUSH2 0x138B PUSH2 0x925 JUMP JUMPDEST PUSH20 0xFFFFFFFFFFFFFFFFFFFFFFFFFFFFFFFFFFFFFFFF AND EQ PUSH2 0x13EA JUMPI PUSH2 0x13AE PUSH2 0x14AD JUMP JUMPDEST PUSH1 0x40 MLOAD PUSH32 0x118CDAA700000000000000000000000000000000000000000000000000000000 DUP2 MSTORE PUSH1 0x4 ADD PUSH2 0x13E1 SWAP2 SWAP1 PUSH2 0x16A8 JUMP JUMPDEST PUSH1 0x40 MLOAD DUP1 SWAP2 SUB SWAP1 REVERT JUMPDEST JUMP JUMPDEST PUSH0 DUP1 PUSH0 SWAP1 SLOAD SWAP1 PUSH2 0x100 EXP SWAP1 DIV PUSH20 0xFFFFFFFFFFFFFFFFFFFFFFFFFFFFFFFFFFFFFFFF AND SWAP1 POP DUP2 PUSH0 DUP1 PUSH2 0x100 EXP DUP2 SLOAD DUP2 PUSH20 0xFFFFFFFFFFFFFFFFFFFFFFFFFFFFFFFFFFFFFFFF MUL NOT AND SWAP1 DUP4 PUSH20 0xFFFFFFFFFFFFFFFFFFFFFFFFFFFFFFFFFFFFFFFF AND MUL OR SWAP1 SSTORE POP DUP2 PUSH20 0xFFFFFFFFFFFFFFFFFFFFFFFFFFFFFFFFFFFFFFFF AND DUP2 PUSH20 0xFFFFFFFFFFFFFFFFFFFFFFFFFFFFFFFFFFFFFFFF AND PUSH32 0x8BE0079C531659141344CD1FD0A4F28419497F9722A3DAAFE3B4186F6B6457E0 PUSH1 0x40 MLOAD PUSH1 0x40 MLOAD DUP1 SWAP2 SUB SWAP1 LOG3 POP POP JUMP JUMPDEST PUSH0 CALLER SWAP1 POP SWAP1 JUMP JUMPDEST PUSH0 DUP1 REVERT JUMPDEST PUSH0 DUP2 SWAP1 POP SWAP2 SWAP1 POP JUMP JUMPDEST PUSH2 0x14CA DUP2 PUSH2 0x14B8 JUMP JUMPDEST DUP2 EQ PUSH2 0x14D4 JUMPI PUSH0 DUP1 REVERT JUMPDEST POP JUMP JUMPDEST PUSH0 DUP2 CALLDATALOAD SWAP1 POP PUSH2 0x14E5 DUP2 PUSH2 0x14C1 JUMP JUMPDEST SWAP3 SWAP2 POP POP JUMP JUMPDEST PUSH0 PUSH1 0x20 DUP3 DUP5 SUB SLT ISZERO PUSH2 0x1500 JUMPI PUSH2 0x14FF PUSH2 0x14B4 JUMP JUMPDEST JUMPDEST PUSH0 PUSH2 0x150D DUP5 DUP3 DUP6 ADD PUSH2 0x14D7 JUMP JUMPDEST SWAP2 POP POP SWAP3 SWAP2 POP POP JUMP JUMPDEST PUSH0 PUSH20 0xFFFFFFFFFFFFFFFFFFFFFFFFFFFFFFFFFFFFFFFF DUP3 AND SWAP1 POP SWAP2 SWAP1 POP JUMP JUMPDEST PUSH0 PUSH2 0x153F DUP3 PUSH2 0x1516 JUMP JUMPDEST SWAP1 POP SWAP2 SWAP1 POP JUMP JUMPDEST PUSH2 0x154F DUP2 PUSH2 0x1535 JUMP JUMPDEST DUP2 EQ PUSH2 0x1559 JUMPI PUSH0 DUP1 REVERT JUMPDEST POP JUMP JUMPDEST PUSH0 DUP2 CALLDATALOAD SWAP1 POP PUSH2 0x156A DUP2 PUSH2 0x1546 JUMP JUMPDEST SWAP3 SWAP2 POP POP JUMP JUMPDEST PUSH0 DUP1 PUSH1 0x40 DUP4 DUP6 SUB SLT ISZERO PUSH2 0x1586 JUMPI PUSH2 0x1585 PUSH2 0x14B4 JUMP JUMPDEST JUMPDEST PUSH0 PUSH2 0x1593 DUP6 DUP3 DUP7 ADD PUSH2 0x14D7 JUMP JUMPDEST SWAP3 POP POP PUSH1 0x20 PUSH2 0x15A4 DUP6 DUP3 DUP7 ADD PUSH2 0x155C JUMP JUMPDEST SWAP2 POP POP SWAP3 POP SWAP3 SWAP1 POP JUMP JUMPDEST PUSH2 0x15B7 DUP2 PUSH2 0x14B8 JUMP JUMPDEST DUP3 MSTORE POP POP JUMP JUMPDEST PUSH0 PUSH1 0x20 DUP3 ADD SWAP1 POP PUSH2 0x15D0 PUSH0 DUP4 ADD DUP5 PUSH2 0x15AE JUMP JUMPDEST SWAP3 SWAP2 POP POP JUMP JUMPDEST PUSH2 0x15DF DUP2 PUSH2 0x1535 JUMP JUMPDEST DUP3 MSTORE POP POP JUMP JUMPDEST PUSH0 DUP2 ISZERO ISZERO SWAP1 POP SWAP2 SWAP1 POP JUMP JUMPDEST PUSH2 0x15F9 DUP2 PUSH2 0x15E5 JUMP JUMPDEST DUP3 MSTORE POP POP JUMP JUMPDEST PUSH0 PUSH2 0x160 DUP3 ADD SWAP1 POP PUSH2 0x1613 PUSH0 DUP4 ADD DUP15 PUSH2 0x15AE JUMP JUMPDEST PUSH2 0x1620 PUSH1 0x20 DUP4 ADD DUP14 PUSH2 0x15D6 JUMP JUMPDEST PUSH2 0x162D PUSH1 0x40 DUP4 ADD DUP13 PUSH2 0x15AE JUMP JUMPDEST PUSH2 0x163A PUSH1 0x60 DUP4 ADD DUP12 PUSH2 0x15AE JUMP JUMPDEST PUSH2 0x1647 PUSH1 0x80 DUP4 ADD DUP11 PUSH2 0x15AE JUMP JUMPDEST PUSH2 0x1654 PUSH1 0xA0 DUP4 ADD DUP10 PUSH2 0x15AE JUMP JUMPDEST PUSH2 0x1661 PUSH1 0xC0 DUP4 ADD DUP9 PUSH2 0x15AE JUMP JUMPDEST PUSH2 0x166E PUSH1 0xE0 DUP4 ADD DUP8 PUSH2 0x15AE JUMP JUMPDEST PUSH2 0x167C PUSH2 0x100 DUP4 ADD DUP7 PUSH2 0x15D6 JUMP JUMPDEST PUSH2 0x168A PUSH2 0x120 DUP4 ADD DUP6 PUSH2 0x15F0 JUMP JUMPDEST PUSH2 0x1698 PUSH2 0x140 DUP4 ADD DUP5 PUSH2 0x15F0 JUMP JUMPDEST SWAP13 SWAP12 POP POP POP POP POP POP POP POP POP POP POP POP JUMP JUMPDEST PUSH0 PUSH1 0x20 DUP3 ADD SWAP1 POP PUSH2 0x16BB PUSH0 DUP4 ADD DUP5 PUSH2 0x15D6 JUMP JUMPDEST SWAP3 SWAP2 POP POP JUMP JUMPDEST PUSH0 DUP1 PUSH0 DUP1 PUSH0 DUP1 PUSH0 DUP1 PUSH2 0x100 DUP10 DUP12 SUB SLT ISZERO PUSH2 0x16DE JUMPI PUSH2 0x16DD PUSH2 0x14B4 JUMP JUMPDEST JUMPDEST PUSH0 PUSH2 0x16EB DUP12 DUP3 DUP13 ADD PUSH2 0x14D7 JUMP JUMPDEST SWAP9 POP POP PUSH1 0x20 PUSH2 0x16FC DUP12 DUP3 DUP13 ADD PUSH2 0x155C JUMP JUMPDEST SWAP8 POP POP PUSH1 0x40 PUSH2 0x170D DUP12 DUP3 DUP13 ADD PUSH2 0x14D7 JUMP JUMPDEST SWAP7 POP POP PUSH1 0x60 PUSH2 0x171E DUP12 DUP3 DUP13 ADD PUSH2 0x14D7 JUMP JUMPDEST SWAP6 POP POP PUSH1 0x80 PUSH2 0x172F DUP12 DUP3 DUP13 ADD PUSH2 0x14D7 JUMP JUMPDEST SWAP5 POP POP PUSH1 0xA0 PUSH2 0x1740 DUP12 DUP3 DUP13 ADD PUSH2 0x14D7 JUMP JUMPDEST SWAP4 POP POP PUSH1 0xC0 PUSH2 0x1751 DUP12 DUP3 DUP13 ADD PUSH2 0x14D7 JUMP JUMPDEST SWAP3 POP POP PUSH1 0xE0 PUSH2 0x1762 DUP12 DUP3 DUP13 ADD PUSH2 0x14D7 JUMP JUMPDEST SWAP2 POP POP SWAP3 SWAP6 SWAP9 POP SWAP3 SWAP6 SWAP9 SWAP1 SWAP4 SWAP7 POP JUMP JUMPDEST PUSH0 PUSH1 0x20 DUP3 DUP5 SUB SLT ISZERO PUSH2 0x1787 JUMPI PUSH2 0x1786 PUSH2 0x14B4 JUMP JUMPDEST JUMPDEST PUSH0 PUSH2 0x1794 DUP5 DUP3 DUP6 ADD PUSH2 0x155C JUMP JUMPDEST SWAP2 POP POP SWAP3 SWAP2 POP POP JUMP JUMPDEST PUSH32 0x4E487B7100000000000000000000000000000000000000000000000000000000 PUSH0 MSTORE PUSH1 0x11 PUSH1 0x4 MSTORE PUSH1 0x24 PUSH0 REVERT JUMPDEST PUSH0 PUSH2 0x17D4 DUP3 PUSH2 0x14B8 JUMP JUMPDEST SWAP2 POP PUSH2 0x17DF DUP4 PUSH2 0x14B8 JUMP JUMPDEST SWAP3 POP DUP3 DUP3 ADD SWAP1 POP DUP1 DUP3 GT ISZERO PUSH2 0x17F7 JUMPI PUSH2 0x17F6 PUSH2 0x179D JUMP JUMPDEST JUMPDEST SWAP3 SWAP2 POP POP JUMP JUMPDEST PUSH0 PUSH2 0x1807 DUP3 PUSH2 0x14B8 JUMP JUMPDEST SWAP2 POP PUSH2 0x1812 DUP4 PUSH2 0x14B8 JUMP JUMPDEST SWAP3 POP DUP3 DUP3 SUB SWAP1 POP DUP2 DUP2 GT ISZERO PUSH2 0x182A JUMPI PUSH2 0x1829 PUSH2 0x179D JUMP JUMPDEST JUMPDEST SWAP3 SWAP2 POP POP JUMP JUMPDEST PUSH0 DUP3 DUP3 MSTORE PUSH1 0x20 DUP3 ADD SWAP1 POP SWAP3 SWAP2 POP POP JUMP JUMPDEST PUSH32 0x544F4F5F4C4F5700000000000000000000000000000000000000000000000000 PUSH0 DUP3 ADD MSTORE POP JUMP JUMPDEST PUSH0 PUSH2 0x1874 PUSH1 0x7 DUP4 PUSH2 0x1830 JUMP JUMPDEST SWAP2 POP PUSH2 0x187F DUP3 PUSH2 0x1840 JUMP JUMPDEST PUSH1 0x20 DUP3 ADD SWAP1 POP SWAP2 SWAP1 POP JUMP JUMPDEST PUSH0 PUSH1 0x20 DUP3 ADD SWAP1 POP DUP2 DUP2 SUB PUSH0 DUP4 ADD MSTORE PUSH2 0x18A1 DUP2 PUSH2 0x1868 JUMP JUMPDEST SWAP1 POP SWAP2 SWAP1 POP JUMP JUMPDEST PUSH32 0x544F4F5F48494748000000000000000000000000000000000000000000000000 PUSH0 DUP3 ADD MSTORE POP JUMP JUMPDEST PUSH0 PUSH2 0x18DC PUSH1 0x8 DUP4 PUSH2 0x1830 JUMP JUMPDEST SWAP2 POP PUSH2 0x18E7 DUP3 PUSH2 0x18A8 JUMP JUMPDEST PUSH1 0x20 DUP3 ADD SWAP1 POP SWAP2 SWAP1 POP JUMP JUMPDEST PUSH0 PUSH1 0x20 DUP3 ADD SWAP1 POP DUP2 DUP2 SUB PUSH0 DUP4 ADD MSTORE PUSH2 0x1909 DUP2 PUSH2 0x18D0 JUMP JUMPDEST SWAP1 POP SWAP2 SWAP1 POP JUMP JUMPDEST PUSH0 PUSH2 0x191A DUP3 PUSH2 0x14B8 JUMP JUMPDEST SWAP2 POP PUSH32 0xFFFFFFFFFFFFFFFFFFFFFFFFFFFFFFFFFFFFFFFFFFFFFFFFFFFFFFFFFFFFFFFF DUP3 SUB PUSH2 0x194C JUMPI PUSH2 0x194B PUSH2 0x179D JUMP JUMPDEST JUMPDEST PUSH1 0x1 DUP3 ADD SWAP1 POP SWAP2 SWAP1 POP JUMP JUMPDEST PUSH0 PUSH1 0x60 DUP3 ADD SWAP1 POP PUSH2 0x196A PUSH0 DUP4 ADD DUP7 PUSH2 0x15D6 JUMP JUMPDEST PUSH2 0x1977 PUSH1 0x20 DUP4 ADD DUP6 PUSH2 0x15D6 JUMP JUMPDEST PUSH2 0x1984 PUSH1 0x40 DUP4 ADD DUP5 PUSH2 0x15AE JUMP JUMPDEST SWAP5 SWAP4 POP POP POP POP JUMP JUMPDEST PUSH32 0x4E487B7100000000000000000000000000000000000000000000000000000000 PUSH0 MSTORE PUSH1 0x12 PUSH1 0x4 MSTORE PUSH1 0x24 PUSH0 REVERT JUMPDEST PUSH0 PUSH2 0x19C3 DUP3 PUSH2 0x14B8 JUMP JUMPDEST SWAP2 POP PUSH2 0x19CE DUP4 PUSH2 0x14B8 JUMP JUMPDEST SWAP3 POP DUP3 PUSH2 0x19DE JUMPI PUSH2 0x19DD PUSH2 0x198C JUMP JUMPDEST JUMPDEST DUP3 DUP3 DIV SWAP1 POP SWAP3 SWAP2 POP POP JUMP JUMPDEST PUSH0 PUSH1 0x40 DUP3 ADD SWAP1 POP PUSH2 0x19FC PUSH0 DUP4 ADD DUP6 PUSH2 0x15AE JUMP JUMPDEST PUSH2 0x1A09 PUSH1 0x20 DUP4 ADD DUP5 PUSH2 0x15AE JUMP JUMPDEST SWAP4 SWAP3 POP POP POP JUMP JUMPDEST PUSH0 DUP2 SWAP1 POP SWAP3 SWAP2 POP POP JUMP JUMPDEST POP JUMP JUMPDEST PUSH0 PUSH2 0x1A28 PUSH0 DUP4 PUSH2 0x1A10 JUMP JUMPDEST SWAP2 POP PUSH2 0x1A33 DUP3 PUSH2 0x1A1A JUMP JUMPDEST PUSH0 DUP3 ADD SWAP1 POP SWAP2 SWAP1 POP JUMP JUMPDEST PUSH0 PUSH2 0x1A47 DUP3 PUSH2 0x1A1D JUMP JUMPDEST SWAP2 POP DUP2 SWAP1 POP SWAP2 SWAP1 POP JUMP JUMPDEST PUSH32 0x4661696C656420746F2073656E64204574686572000000000000000000000000 PUSH0 DUP3 ADD MSTORE POP JUMP JUMPDEST PUSH0 PUSH2 0x1A85 PUSH1 0x14 DUP4 PUSH2 0x1830 JUMP JUMPDEST SWAP2 POP PUSH2 0x1A90 DUP3 PUSH2 0x1A51 JUMP JUMPDEST PUSH1 0x20 DUP3 ADD SWAP1 POP SWAP2 SWAP1 POP JUMP JUMPDEST PUSH0 PUSH1 0x20 DUP3 ADD SWAP1 POP DUP2 DUP2 SUB PUSH0 DUP4 ADD MSTORE PUSH2 0x1AB2 DUP2 PUSH2 0x1A79 JUMP JUMPDEST SWAP1 POP SWAP2 SWAP1 POP JUMP INVALID LOG2 PUSH5 0x6970667358 0x22 SLT KECCAK256 0xB6 MCOPY DUP6 0xE8 DUP13 CODESIZE CODESIZE 0xD9 PUSH27 0x99757A1BC943C5E8E1F6CA34B2D0F45916E456D6A0DEEA64736F6C PUSH4 0x43000819 STOP CALLER "
				},
				"gasEstimates": {
					"creation": {
						"codeDepositCost": "1379000",
						"executionCost": "infinite",
						"totalCost": "infinite"
					},
					"external": {
						"auctions(uint256)": "infinite",
						"bid(uint256)": "infinite",
						"bids(uint256,address)": "infinite",
						"claimBid(uint256)": "infinite",
						"claimNFT(uint256)": "infinite",
						"claimReward(uint256)": "infinite",
						"createAuction(uint256,address,uint256,uint256,uint256,uint256,uint256,uint256)": "infinite",
						"highestBidders(uint256)": "2827",
						"owner()": "2537",
						"renounceOwnership()": "infinite",
						"transferOwnership(address)": "infinite"
					},
					"internal": {
						"_transferETH(address payable,uint256)": "infinite"
					}
				},
				"methodIdentifiers": {
					"auctions(uint256)": "571a26a0",
					"bid(uint256)": "454a2ab3",
					"bids(uint256,address)": "3f1ffcec",
					"claimBid(uint256)": "21113057",
					"claimNFT(uint256)": "fe5c873a",
					"claimReward(uint256)": "ae169a50",
					"createAuction(uint256,address,uint256,uint256,uint256,uint256,uint256,uint256)": "98ecfdac",
					"highestBidders(uint256)": "77484aae",
					"owner()": "8da5cb5b",
					"renounceOwnership()": "715018a6",
					"transferOwnership(address)": "f2fde38b"
				}
			},
			"storageLayout": {
				"storage": [
					{
						"astId": 632,
						"contract": "14-exam-prep/contracts/AuctionHouse.sol:AuctionHouse",
						"label": "_owner",
						"offset": 0,
						"slot": "0",
						"type": "t_address"
					},
					{
						"astId": 59,
						"contract": "14-exam-prep/contracts/AuctionHouse.sol:AuctionHouse",
						"label": "MIN_AUCTION_DURATION",
						"offset": 0,
						"slot": "1",
						"type": "t_uint256"
					},
					{
						"astId": 62,
						"contract": "14-exam-prep/contracts/AuctionHouse.sol:AuctionHouse",
						"label": "MAX_AUCTION_DURATION",
						"offset": 0,
						"slot": "2",
						"type": "t_uint256"
					},
					{
						"astId": 64,
						"contract": "14-exam-prep/contracts/AuctionHouse.sol:AuctionHouse",
						"label": "_nextAuctionId",
						"offset": 0,
						"slot": "3",
						"type": "t_uint256"
					},
					{
						"astId": 69,
						"contract": "14-exam-prep/contracts/AuctionHouse.sol:AuctionHouse",
						"label": "auctions",
						"offset": 0,
						"slot": "4",
						"type": "t_mapping(t_uint256,t_struct(Auction)28_storage)"
					},
					{
						"astId": 75,
						"contract": "14-exam-prep/contracts/AuctionHouse.sol:AuctionHouse",
						"label": "bids",
						"offset": 0,
						"slot": "5",
						"type": "t_mapping(t_uint256,t_mapping(t_address,t_uint256))"
					},
					{
						"astId": 79,
						"contract": "14-exam-prep/contracts/AuctionHouse.sol:AuctionHouse",
						"label": "highestBidders",
						"offset": 0,
						"slot": "6",
						"type": "t_mapping(t_uint256,t_address)"
					}
				],
				"types": {
					"t_address": {
						"encoding": "inplace",
						"label": "address",
						"numberOfBytes": "20"
					},
					"t_bool": {
						"encoding": "inplace",
						"label": "bool",
						"numberOfBytes": "1"
					},
					"t_mapping(t_address,t_uint256)": {
						"encoding": "mapping",
						"key": "t_address",
						"label": "mapping(address => uint256)",
						"numberOfBytes": "32",
						"value": "t_uint256"
					},
					"t_mapping(t_uint256,t_address)": {
						"encoding": "mapping",
						"key": "t_uint256",
						"label": "mapping(uint256 => address)",
						"numberOfBytes": "32",
						"value": "t_address"
					},
					"t_mapping(t_uint256,t_mapping(t_address,t_uint256))": {
						"encoding": "mapping",
						"key": "t_uint256",
						"label": "mapping(uint256 => mapping(address => uint256))",
						"numberOfBytes": "32",
						"value": "t_mapping(t_address,t_uint256)"
					},
					"t_mapping(t_uint256,t_struct(Auction)28_storage)": {
						"encoding": "mapping",
						"key": "t_uint256",
						"label": "mapping(uint256 => struct Auction)",
						"numberOfBytes": "32",
						"value": "t_struct(Auction)28_storage"
					},
					"t_struct(Auction)28_storage": {
						"encoding": "inplace",
						"label": "struct Auction",
						"members": [
							{
								"astId": 7,
								"contract": "14-exam-prep/contracts/AuctionHouse.sol:AuctionHouse",
								"label": "tokenId",
								"offset": 0,
								"slot": "0",
								"type": "t_uint256"
							},
							{
								"astId": 9,
								"contract": "14-exam-prep/contracts/AuctionHouse.sol:AuctionHouse",
								"label": "nftAddress",
								"offset": 0,
								"slot": "1",
								"type": "t_address"
							},
							{
								"astId": 11,
								"contract": "14-exam-prep/contracts/AuctionHouse.sol:AuctionHouse",
								"label": "minPrice",
								"offset": 0,
								"slot": "2",
								"type": "t_uint256"
							},
							{
								"astId": 13,
								"contract": "14-exam-prep/contracts/AuctionHouse.sol:AuctionHouse",
								"label": "startTime",
								"offset": 0,
								"slot": "3",
								"type": "t_uint256"
							},
							{
								"astId": 15,
								"contract": "14-exam-prep/contracts/AuctionHouse.sol:AuctionHouse",
								"label": "endTime",
								"offset": 0,
								"slot": "4",
								"type": "t_uint256"
							},
							{
								"astId": 17,
								"contract": "14-exam-prep/contracts/AuctionHouse.sol:AuctionHouse",
								"label": "minBidIncr",
								"offset": 0,
								"slot": "5",
								"type": "t_uint256"
							},
							{
								"astId": 19,
								"contract": "14-exam-prep/contracts/AuctionHouse.sol:AuctionHouse",
								"label": "timeExtensionWindow",
								"offset": 0,
								"slot": "6",
								"type": "t_uint256"
							},
							{
								"astId": 21,
								"contract": "14-exam-prep/contracts/AuctionHouse.sol:AuctionHouse",
								"label": "timeExtensionIncr",
								"offset": 0,
								"slot": "7",
								"type": "t_uint256"
							},
							{
								"astId": 23,
								"contract": "14-exam-prep/contracts/AuctionHouse.sol:AuctionHouse",
								"label": "seller",
								"offset": 0,
								"slot": "8",
								"type": "t_address"
							},
							{
								"astId": 25,
								"contract": "14-exam-prep/contracts/AuctionHouse.sol:AuctionHouse",
								"label": "nftClaimed",
								"offset": 20,
								"slot": "8",
								"type": "t_bool"
							},
							{
								"astId": 27,
								"contract": "14-exam-prep/contracts/AuctionHouse.sol:AuctionHouse",
								"label": "rewardClaimed",
								"offset": 21,
								"slot": "8",
								"type": "t_bool"
							}
						],
						"numberOfBytes": "288"
					},
					"t_uint256": {
						"encoding": "inplace",
						"label": "uint256",
						"numberOfBytes": "32"
					}
				}
			},
			"userdoc": {
				"kind": "user",
				"methods": {},
				"version": 1
			}
		}
	}
}